:0400000001EF0FF00D
:08000800046ED8CF05F0E0CF33
:1000100006F00001E9CF0CF0EACF07F0E1CF08F0DD
:10002000E2CF09F0D9CF0AF0DACF0BF0F3CF12F01C
:10003000F4CF13F0FACF14F0F5CF15F0F6CF16F099
:10004000F7CF17F0F8CF18F0FBCF19F000C00EF083
:1000500001C00FF002C010F003C011F09DA034EFFA
:1000600000F09EB0C3EF01F0F0A63AEF00F0F0B060
:1000700015EF01F0F0A840EF00F0F0B224EF01F02E
:100080009DAA46EF00F09EBA03EF01F0A3AA4CEF41
:1000900000F0A4BAE9EF00F00EC000F00FC001F0CC
:1000A00010C002F011C003F00CC0E9FF07C0EAFF66
:1000B000078E08C0E1FF09C0E2FF0AC0D9FF0BC0EC
:1000C000DAFF12C0F3FF13C0F4FF14C0FAFF15C02B
:1000D000F5FF16C0F6FF17C0F7FF18C0F8FF19C0EC
:1000E000FBFF045006C0E0FF05C0D8FF1000F76A10
:1000F000020FF66E010EF722000EF86E0900F550A1
:1001000012000000F76A180FF66E010EF722000EBB
:10011000F86E0900F55012002F2C3A220000F76A01
:10012000320FF66E010EF722000EF86E0900F55040
:1001300012005741544348444F472054494D454FBE
:1001400055540000F76A580FF66E010EF722000EA4
:10015000F86E0900F5501200465245534820504FA2
:100160005745522055502100F76A7C0FF66E010E5C
:10017000F722000EF86E0900F5501200534F465456
:10018000574152452052455345542D00F76AA00F60
:10019000F66E010EF722000EF86E0900F5501200FF
:1001A000484152445741524520524553455400005E
:1001B000F76AC40FF66E010EF722000EF86E090002
:1001C000F550120036333935363433333439313360
:1001D000000040804150412A036A2C0FE96E000E56
:1001E0000320EA6EA4AAFED70F011DCFEFFF036A1A
:1001F00041502C0FE96E000E0320EA6EEF6AA49ABC
:1002000000014CEF00F0408201014151412B036A93
:10021000420FE96E000E0320EA6E9EAAFED7AECF13
:10022000EFFF9E9A00014CEF00F04084010EEA6E51
:10023000710EE96EE26A420EE16EE752E6CFEEFF22
:10024000FCE1F0904CEF00F004018E83F09200018D
:100250004CEF00F0696E69740D004C544520496EF6
:10026000697469616C697A65640A00007369676E14
:10027000616C0D000A534D532053656E743A20256E
:10028000730A00004F46460D00004F4E0D0069678F
:10029000740D00004C54452049676E697465640A0A
:1002A000000006015451016A535D03E253C600F099
:1002B0000CD0006A080E556F533700365451005C5D
:1002C000D8B0006E0136552FF7D700011200016A31
:1002D000026A006A036A0601565102E1555118E0AC
:1002E000100E576FD8905337543700360336565197
:1002F000035C02E15551005C07E35551005ED8A054
:1003000003065651035ED88001360236572FEAD7CE
:100310000001AFEF01F00601526B516BD00E50257A
:10032000516F070E526FD8B0522B5151030B536FC0
:10033000546B53530BE1545309E150C653F6640E0A
:10034000546F0001AEDF005214E10601546B50C639
:1003500053F6010E566F900E556F0001B8D700C0CE
:1003600053F6060103C054F6535308E1545306E113
:100370000001010E016E05D004D00601000E016ED1
:100380000001E4EF01F0CD92CF8ECD820401916B9C
:100390000301802B80513B084CE2806B408C812B09
:1003A00081513B0846E2816B822B8251170841E262
:1003B000826B832B83511D080AE18451020807E1F7
:1003C00085C350F60001A7D7015228E003018351ED
:1003D0001E0806E184510208D8A402D000011ED0F4
:1003E00083511F0818E184510408D8A402D00001E9
:1003F00015D084510608D8A402D000010FD0845132
:100400000908D8A402D0000109D084510B08D8A44F
:1004100002D0000103D08351200804E10301842BA2
:10042000010E836F84510D0803E1852B010E846F4B
:10043000408A8251170806E181513A0803E180534E
:1004400001E1408E825104018D5D0BE00301815179
:100450003A08D8B402D0040104D004018E8182C3CA
:100460008DF481C353F68CC454F600011ADF005298
:1004700005E140B802D04088408601D040989E9067
:100480004CEF00F0525443206461746520616E6447
:100490002074696D653A2025730A00005254432088
:1004A000757064617465640A0000594541525F507B
:1004B0005245563D25690A0066726F6D20434F55BF
:1004C0004E5445524E455759454152203D25730AD9
:1004D000000041542B43434C4B3D222573220D0019
:1004E000636C6F636B207365740A000041542B4387
:1004F000434C4B3F0D004D435520636C6F636B20A5
:100500007365740A00004D43552064617465206171
:100510006E642074696D653A2025730A00002020FE
:10052000202020204445425547204D4F4445204D32
:10053000454E550A0000202020202020412E20205A
:1005400020202047657420646174612066726F6D9D
:10055000207468652073656E736F720A0000202036
:1005600020202020422E202020202047657420615A
:10057000725127732063757272656E7420636F6E9B
:1005800066696775726174696F6E730A0000202076
:1005900020202020432E2020202020446973706CCE
:1005A0006179204445425547206D656E750A00000B
:1005B000202020202020442E20202020204368615D
:1005C0006E67652073656E64696E672074696D651A
:1005D0000A00202020202020452E202020202043FB
:1005E0006865636B20736174656C6C6974652073F6
:1005F000656E64696E670A00202020202020462E48
:100600002020202020536574207365727665722047
:100610006E756D6265720A00202020202020472E12
:1006200020202020204C69737420726567697374E0
:1006300065726564206E756D626572730A002020B4
:1006400020202020482E202020202047656E657223
:100650006174652043524320636F64650A00202063
:1006600020202020492E2020202020536574206443
:1006700061746520616E642074696D650A002020D4
:10068000202020204A2E2020202020536574207016
:100690006F77657220626F61726420636F6E666946
:1006A0006775726174696F6E0A0020202020202017
:1006B0004C2E2020202020446F776E6C6F616420C8
:1006C000646174612066726F6D20666C617368206E
:1006D0006D656D6F72790A002020202020204D2E3C
:1006E00020202020204368616E676520706173734D
:1006F000776F72640A002020202020204E2E2020B8
:10070000202020456E61626C6520736174656C6C9D
:100710006974650A00002020202020204F2E202010
:10072000202020536574207468652073656E736F94
:100730007220747970650A00202020202020512E1C
:100740002020202054657374204972696469756D96
:1007500020736174656C6C69746520636F6D6D6185
:100760006E64730A0000202020202020532E2020B9
:100770002020205475726E206F6666207761746346
:1007800068646F670A00202020202020572E202038
:1007900020202045786974204445425547206D6FDC
:1007A00064650A00202020202020582E20202020B0
:1007B0002044656C65746520726567697374657241
:1007C0006564206E756D6265720A0000202020202D
:1007D0002020612E202020202052656769737465D7
:1007E00072206E756D6265720A000A456E746572DC
:1007F0002043686F6963653A0A005072657373201D
:100800004320746F206368616E67650A0000456E5F
:10081000746572204461746520616E642054696D52
:10082000652028464F524D4154202259592F4D4D95
:100830002F44442C48483A4D4D3A53532229000046
:10084000506C656173652063686F6F736520616EBE
:100850006F74686572206C65747465722066726F5F
:100860006D20746865204445425547206D656E755E
:100870000A004F54484552205245534554204341A5
:10088000555345202825692900002573202D202552
:1008900073000A2A2A2A2A2A2A2A2A2A2A2A2A2AB9
:1008A0002A2A2A2A2A2A2A2A2A2A2A2A2A2A2A2AA8
:1008B0002A2A2A2A2A2A2A2A2A2A2A2A2A2A2A2A98
:1008C0002A2A2A2A0A00554C4154204C6967687428
:1008D0006E696E67204D6F6E69746F72696E672006
:1008E00053746174696F6E20284265746120766567
:1008F0007273696F6E290A000A496E697469616CC6
:10090000697A696E67204254443230300A004445A7
:10091000425547204D4F4445000052657365742091
:100920004D43550A000054696D652053796E630A82
:100930000000060EEA6E3F0EE96EEF500EE0050E67
:10094000016E006A002EFED7012EFBD72E0E006E20
:10095000002EFED700D0EF2EF2D712000900F5527C
:1009600013E0F6CF3FF6F7CF40F6F8CF41F6F5505B
:10097000A4A8FED70F011C6F3FC6F6FF40C6F7FFC5
:1009800041C6F8FF0001EAD71200EA6A2C0EE96EB0
:10099000000E77EC00F00A000900F550EE6E000939
:1009A000FBE14090416A120090C4EAFF8FC4E9FF66
:1009B00006014AC6EFFFE92AD8B4EA2AEF6A040121
:1009C0008F2BD8B4902B000112000900F6CFDCF574
:1009D000F7CFDDF5F8CFDEF5F5CF4AF6E5DFDCC57C
:1009E000F6FFDDC5F7FFDEC5F8FF0501DB2F01D0FF
:1009F00002D00001EAD700011200200E06012BA947
:100A0000300E2C6F2AC600F000AE08D0001E002A5F
:100A100000C02AF62D0E2C6F2B8F2B8101501B6AE4
:100A2000F2BE1B8EF29E2AC653F6640E546F00016E
:100A300038DC1BBEF28E00C02AF6300E01240601FF
:100A40002D6F1B6AF2BE1B8EF29E2AC653F60A0E4B
:100A5000546F000126DC1BBEF28E300E002406010E
:100A60002F6F300E01242E6F2CC600F0300E2D5D3E
:100A700004E02B832BBF2B8512D02CC62DF6200E25
:100A80002C6F300E2E5D04E02B812BBF2B8307D003
:100A9000D8A42B8104E12DC62EF6200E2D6F2BB588
:100AA00005D02BB307D02BB109D00CD02CC64AF6F9
:100AB00000017ADF2DC64AF6000176DF2EC64AF61F
:100AC000000172DF2FC64AF600016EDF1200EF52FE
:100AD00012E0EACF49F6E9CF48F6EF50A4A8FED7D6
:100AE0000F011C6F49C6EAFF48C6E9FFE92AD8B4DE
:100AF000EA2A0001ECD7120006012751090811E388
:100B000029C690F428C68FF4300E4A6F00014CDFDE
:100B100027C62AF6180E06012B6F00016EDF0BD0D8
:100B2000060129C690F428C68FF427C62AF6180EA7
:100B30002B6F000162DF060128C601F029C602F012
:100B4000000112002AC62EF629C62DF62EC6EAFF8F
:100B500006012DC6E9FFEF5206E02D2BD8B42E2B4F
:100B60000001F4D706012CC6EAFF2BC6E9FFEF52BD
:100B700013E02CC6EAFF2BC6E9FFEFCF31F62EC6F5
:100B8000EAFF2DC6E9FF31C6EFFF2D2BD8B42E2B7F
:100B90002B2BD8B42C2BE7D72EC6EAFF2DC6E9FFA6
:100BA000EF6A29C601F02AC602F00001120028C629
:100BB0002EF627C62DF62EC6EAFF06012DC6E9FF42
:100BC000EF5206E02D2BD8B42E2B0001F4D70601EE
:100BD0002AC6EAFF29C6E9FFEF521CE02C5303E1C5
:100BE0002B51000817E22AC6EAFF29C6E9FFEFCF1A
:100BF00031F62EC6EAFF2DC6E9FF31C6EFFF2D2BD9
:100C0000D8B42E2B292BD8B42A2B2B51D8B42C078F
:100C10002B07DED72EC6EAFF2DC6E9FFEF6A27C6EF
:100C200001F028C602F0000162EF06F00601246B15
:100C3000266B256B2F0E246F85C327F600015CDF22
:100C400002C028F601C027F6030EEA6E870EE96E91
:100C500002C0E2FF01C0E1FFE752E6CFEEFFFCE198
:100C600084C327F649DF02C028F601C027F6030E29
:100C700006012A6F870E296F02C02CF601C02BF6E1
:100C8000000160DF83C327F637DF02C028F601C00A
:100C900027F6030E06012A6F870E296F02C02CF675
:100CA00001C02BF600014EDF030E0601286F870EF0
:100CB000276F060E2A6F240E296F2C6B010E2B6FE7
:100CC000000175D782C327F617DF02C028F601C0DE
:100CD00027F6030E06012A6F870E296F02C02CF635
:100CE00001C02BF600012EDF81C327F605DF02C00D
:100CF00028F601C027F6030E06012A6F870E296F1A
:100D000002C02CF601C02BF600011CDF80C327F6C1
:100D1000F3DE02C028F601C027F6030E06012A6F93
:100D2000870E296F02C02CF601C02BF600010ADFE6
:100D3000870E016E030E026E1200EF520FE0EACF33
:100D4000DCF5E9CFDBF5EFCF4AF62EDEDCC5EAFFB6
:100D5000DBC5E9FFE92AD8B4EA2AEFD7120005017A
:100D60009E6B9F6BA06BA16BA26BA36BA46BA56B1F
:100D7000A66BA76BA86BA96BAA6BAB6BAC6BAD6BCF
:100D8000AE6BAF6BB06BB16BD0500F0BD0A8000E39
:100D9000D080D082D088D886D888DA6FDA51070A16
:100DA000000107E00B0A13E00C0A1FE00F0A2BE01A
:100DB00038D0050EEA6E9E0EE96E000E8FEC00F044
:100DC0000A000900F550EE6E0009FBE146D0050E61
:100DD000EA6E9E0EE96E000EA2EC00F00A00090019
:100DE000F550EE6E0009FBE138D0050EEA6E9E0E5E
:100DF000E96E000EB4EC00F00A000900F550EE6E4A
:100E00000009FBE12AD0050EEA6E9E0EE96E000E87
:100E1000C6EC00F00A000900F550EE6E0009FBE197
:100E20001CD0050E0401906F9E0E8F6F720EF66E31
:100E3000080EF76E000EF86E130E0501DB6F000151
:100E4000C4DDDAC52AF6180E06012B6F0001D5DDC8
:100E5000290E06014A6F0001A7DD050EEA6E9E0EFF
:100E6000E96E35DE0A0EA4A8FED70F011C6F000143
:100E7000DDDE050E0401906FB20E8F6F90C4EAFFA5
:100E80008FC4E9FFEF6A050EEA6E9E0EE96E00015F
:100E900054DF8C0EF66E080EF76E000EF86E030E21
:100EA0000501DB6F000191DD90C4EAFF8FC4E9FF0B
:100EB000EF6A030EEA6E870EE96E3FDF0CEF11F06A
:100EC00005019F51020A000103E0030A06E00AD06F
:100ED00096928D829996909609D096928D92999637
:100EE000908604D096928D929996909612009FC506
:100EF000EAFF05019EC5E9FFEFCFA2F5A1C5EAFF14
:100F0000A0C5E9FFEF50A25D40E09FC5EAFF9EC586
:100F1000E9FFEFCFA2F5A251400803E2A2515A081F
:100F200006E2A251600846E2A2517A0843E3A1C555
:100F3000EAFFA0C5E9FFEFCFA2F5A251400803E206
:100F4000A2515A0806E2A251600834E2A2517A087E
:100F500031E39FC5EAFF9EC5E9FFEFCFA2F5A1C52A
:100F6000EAFFA0C5E9FF200EEF24A25D0EE0A1C5B7
:100F7000EAFFA0C5E9FFEFCFA2F59FC5EAFF9EC536
:100F8000E9FF200EEF24A25D15E19FC5EAFF9EC593
:100F9000E9FFEF5203E1000E016E21D09FC503F07F
:100FA0009E519E2BD8B49F2BA02BD8B4A12B00010F
:100FB0009ED705019FC503F09EC5E9FF03C0EAFF68
:100FC000EFCFA2F5A1C503F0A0C5E9FF03C0EAFF7A
:100FD000EF50A25D02E2FF0E01D0010E016E000192
:100FE0001200D3DC40A0FED7320E06013F6F000195
:100FF000A0DC120048C64CF647C64BF64CC6EAFFCA
:1010000006014BC6E9FFEF522DE04AC64EF649C62F
:101010004DF64EC6EAFF4DC6E9FFEF520BE14751D0
:101020004B5D006E48514C59036E00C001F0026EDA
:1010300022D00ED04CC6EAFF4BC6E9FFEFCF4FF6E9
:101040004EC6EAFF4DC6E9FFEF504F5D01E104D007
:101050004D2BD8B44E2BDDD74B2BD8B44C2B0001E5
:10106000CDD7060147514B5D006E48514C59036E78
:1010700000C001F0026E0001ACEF08F048C64CF66B
:1010800047C64BF64CC6EAFF06014BC6E9FFEF52D6
:1010900028E04AC64EF649C64DF64EC6EAFF4DC692
:1010A000E9FFEF5218E04CC603F04BC6E9FF03C05E
:1010B000EAFFEFCF4FF64EC6EAFF4DC6E9FFEF500D
:1010C0004F5D05E14BC601F04CC602F00DD04D2B33
:1010D000D8B44E2BE2D74B2BD8B44C2B0001D2D72F
:1010E0000601000E016E026E0001C5EF08F048C651
:1010F0004AF647C649F64AC6EAFF060149C6E9FF6D
:10110000EF5206E0492BD8B44A2B0001F4D7060170
:101110004751495D006E48514A59036E00C001F0C5
:10112000026E0001E1EF08F006013F51401104E0BA
:1011300040C603F03F5103D01DC003F01C50436F65
:1011400003C044F644C648F643C647F642C64AF6CC
:1011500041C649F600014ED701500601432702500F
:10116000442344C6EAFF43C6E9FFEF5204E1000E00
:10117000016E026E31D044C648F643C647F642C6F9
:101180004AF641C649F6000179D702C046F601C0C9
:1011900045F60601455302E146530DE046C6EAFF17
:1011A00045C6E9FFEF6A452BD8B4462B46C61DF06D
:1011B00045C61CF00DD044C648F643C647F60001AC
:1011C00096D70150060143251C6E025044211D6E26
:1011D00043C601F044C602F000011200006A016A31
:1011E00006014651D89047B100260032013247B37C
:1011F00000260032013247B500260032013247B7DF
:1012000000260032013247B900260032013247BBC6
:1012100000260032013247BD00260032013247BFAE
:1012200000260032013200017EEF09F00601446B16
:10123000426B0A0E436F416B3F51401103E1000EB8
:10124000016EBBD04451442B3F25E96E000E402176
:10125000EA6EEFCF45F645512D080CE1010E426FC5
:101260004451442B3F25E96E000E4021EA6EEFCF3A
:1012700045F60CD045512B0809E14451442B3F253C
:10128000E96E000E4021EA6EEFCF45F645512F087A
:10129000D8B08BD045513908D8A087D045513008F7
:1012A0001EE144513F25E96E000E4021EA6EEF50E9
:1012B000780809E044513F25E96E000E4021EA6EAE
:1012C000EF5058080CE1100E436F442B4451442B4F
:1012D0003F25E96E000E4021EA6EEFCF45F64351FF
:1012E0000A081CE145512F0818E24551390815E359
:1012F0000A0E466F41C647F6000170D7300E060150
:10130000455D0124416F4451442B3F25E96E000E99
:101310004021EA6EEFCF45F6E5D747D0435110089C
:1013200044E14551600806E245517A0803E345511E
:10133000DF0B01D04551456F45512F0803E2455160
:10134000390806E24551400830E2455146082DE390
:1013500045512F080CE24551390809E34139466FE0
:10136000F00E4617300E455D4625416F09D04139D4
:10137000466FF00E4617410E455D0A0F4625416F38
:101380004451442B3F25E96E000E4021EA6EEFCF19
:1013900045F64551600806E245517A0803E3455198
:1013A000DF0B01D04551456FC7D7422D04D04351C3
:1013B0000A0801E1416D41C601F0000112001B6AFB
:1013C000F2BE1B8EF29E30C653F60A0E0601546F13
:1013D000000151EC01F01BBEF28E01380601316FA5
:1013E000F00E31171B6AF2BE1B8EF29E30C653F60A
:1013F0000A0E546F000151EC01F01BBEF28E00503A
:1014000006013111016E00011200679EA19A48C6C3
:101410006AFF020E67BE05D0A1AAFED7000E66BC09
:10142000010E016E1200668066B0FED7A20E0601A4
:10143000486F0001EADF2FC648F6E7DF30C648F6FE
:10144000E4DF668466B4FED712000601106B116BF0
:10145000126B136B146B156B166B176B186B196B88
:101460001A6B1B6B1C6B1D6B1E6B1F6B206B216B38
:10147000226B236B246B256B266B276B286B296BE8
:101480002A6B2B6B2C6BEA6A220EE96E000E0001B0
:1014900082EC00F00A000900F550EE6E0009FBE155
:1014A000060EEA6E160EE96E0FC6E2FF0EC6E1FFEB
:1014B000E752E6CFEEFFFCE1960E06013F6F00011A
:1014C00099EC04F0060E0601406F160E3F6F426B5A
:1014D000220E416F000128DE02C02EF601C02DF65B
:1014E000060EEA6E2A0EE96E2EC6E2FF2DC6E1FF59
:1014F000E752E6CFEEFFFCE1060E0601406F2A0E32
:101500003F6F000193DE01C02FF601C030F657DFB8
:1015100001C015F60601406B3F6B426B220E416F16
:10152000000102DE02C02EF601C02DF6060EEA6EA4
:101530002A0EE96E2EC6E2FF2DC6E1FFE752E6CF86
:10154000EEFFFCE1060E0601406F2A0E3F6F000120
:101550006DDE01C02FF601C030F631DF01C014F698
:101560000601406B3F6B426B220E416F0001DCDDD8
:1015700002C02EF601C02DF6060EEA6E2A0EE96EA6
:101580002EC6E2FF2DC6E1FFE752E6CFEEFFFCE1FB
:10159000060E0601406F2A0E3F6F000147DE01C0B4
:1015A0002FF601C030F60BDF01C013F60601406BC9
:1015B0003F6B426B220E416F0001B6DD02C02EF67A
:1015C00001C02DF6060EEA6E2A0EE96E2EC6E2FF67
:1015D0002DC6E1FFE752E6CFEEFFFCE1060E060165
:1015E000406F2A0E3F6F000121DE01C02FF601C0BF
:1015F00030F6E5DE01C012F60601406B3F6B426B30
:10160000220E416F000190DD02C02EF601C02DF6C2
:10161000060EEA6E2A0EE96E2EC6E2FF2DC6E1FF27
:10162000E752E6CFEEFFFCE1060E0601406F2A0E00
:101630003F6F0001FBDD01C02FF601C030F6BFDEB9
:1016400001C011F60601406B3F6B426B220E416FE9
:1016500000016ADD02C02EF601C02DF6060EEA6E0C
:101660002A0EE96E2EC6E2FF2DC6E1FFE752E6CF55
:10167000EEFFFCE1060E0601406F2A0E3F6F0001EF
:10168000D5DD01C02FF601C030F699DE01C010F69D
:10169000030E06012F6F10C630F60001C4DE040EE3
:1016A00006012F6F11C630F60001BDDE050E0601E2
:1016B0002F6F12C630F60001B6DE060E06012F6F40
:1016C00013C630F60001AFDE080E06012F6F14C6F8
:1016D00030F60001A8DE090E06012F6F15C630F6A0
:1016E0000001A1DE9C0EF66E040EF76E000EF86E81
:1016F000AEEC04F0C9EF0EF0679C668666B6FED7C6
:1017000000B0669A00A0668A668866B8FED76ACF7F
:1017100001F049EF0CF006014939006E0F0E00167A
:1017200000500A0DF3CF4AF649510F0B4A25016EBE
:101730000001120001501B6AF2BE1B8EF29E48C6C9
:1017400053F6640E0601546F000151EC01F01BBE0C
:10175000F28E00C048F60150300E08E1060149A3A0
:1017600010D049B70ED049B9200E04D006014997D0
:1017700049994981012601C04AF60001D4EC04F0E0
:1017800006011B6AF2BE1B8EF29E48C653F60A0E75
:10179000546F000151EC01F01BBEF28E00C048F600
:1017A0000150300E08E1060149B70BD049A109D01C
:1017B00049B9200E0001012601C04AF6D4EC04F01C
:1017C0000601300E482748C64AF60001D4EC04F062
:1017D00012000900F6CF49F6F7CF4AF6F8CF4BF6DC
:1017E000F550A4A8FED70F011C6F49C6F6FF4AC6E4
:1017F000F7FF4BC6F8FF0601482F01D002D00001C9
:10180000E8D7000112000601246B256B266B276BBD
:10181000286B296B2A6B2B6B2C6B2D6B2E6B2F6B14
:10182000306B316B326B336B346B356B366B376BC4
:10183000386B396B3A6B3B6B3C6B3D6B3E6B476B6C
:10184000668066B0FED7A20E486F0001DEDD030E93
:101850000601486F0001D9DD668466B4FED7668054
:1018600066B0FED7A30E0601486F0001CEDD01C0B1
:101870003EF60601476B4751060810E3036A4751DD
:101880003F0FE96E060E0320EA6E010E006E0001A6
:1018900033D701C0EFFF0601472BEDD7668466B44E
:1018A000FED73F517F0B486F496F000134DF01C005
:1018B00024F640C649F62FDF01C025F641C649F699
:1018C0002ADF01C026F642C649F625DF01C027F609
:1018D00044C649F620DF01C028F645C649F61BDF9D
:1018E00001C029F6060E0401906F2A0E8F6F29C6DB
:1018F00048F61B0E0601496F00011CDF2F0E060182
:101900004A6F0001D4EC04F028C648F61B0E06010D
:10191000496F00010FDF2F0E06014A6F0001D4EC62
:1019200004F027C648F61B0E0601496F000102DFCE
:101930002C0E06014A6F0001D4EC04F026C648F6CE
:101940001B0E0601496F0001F5DE3A0E06014A6FD3
:101950000001D4EC04F025C648F61B0E0601496FC1
:101960000001E8DE3A0E06014A6F0001D4EC04F0F3
:1019700024C648F61B0E0601496F0001DBDE840E0B
:10198000F66E040EF76E000EF86E130E0601486F29
:1019900000011FDF060EEA6E2A0EE96E67EC05F005
:1019A0000A0EA4A8FED70F011C6F2A0E016E060EA8
:1019B000026E0001F4EF0DF00601276B266B286B19
:1019C000296B2A6B2B6B2C6B2D6B2E6B2F6B306B5B
:1019D000316B326B336B346B356B366B376B386B0B
:1019E000396B3A6B3B6B3C6B3D6B3E6BEA6A220E8C
:1019F000E96E000E000182EC00F00A000900F550CB
:101A0000EE6E0009FBE1060EEA6E280EE96E25C6B1
:101A1000E2FF24C6E1FFE752E6CFEEFFFCE1960EBF
:101A200006013F6F000199EC04F0060E0601406FBD
:101A3000280E3F6F426B220E416F000194EC08F0BC
:101A400002C027F601C026F6060EEA6E3C0EE96ECD
:101A500027C6E2FF26C6E1FFE752E6CFEEFFFCE134
:101A6000060E0601406F3C0E3F6F000116EC09F0B8
:101A700001C085F30601406B3F6B426B220E416F44
:101A8000000194EC08F002C027F601C026F6060E0D
:101A9000EA6E3C0EE96E27C6E2FF26C6E1FFE7527A
:101AA000E6CFEEFFFCE1060E0601406F3C0E3F6FF5
:101AB000000116EC09F001C084F30601406B3F6B96
:101AC000426B220E416F000194EC08F002C027F631
:101AD00001C026F6060EEA6E3C0EE96E27C6E2FF4E
:101AE00026C6E1FFE752E6CFEEFFFCE1060E060157
:101AF000406F3C0E3F6F000116EC09F001C083F30C
:101B00000601406B3F6B426B220E416F000194EC6B
:101B100008F002C027F601C026F6060EEA6E3C0E5B
:101B2000E96E27C6E2FF26C6E1FFE752E6CFEEFFE9
:101B3000FCE1060E0601406F3C0E3F6F000116EC03
:101B400009F001C082F30601406B3F6B426B220E2D
:101B5000416F000194EC08F002C027F601C026F6A0
:101B6000060EEA6E3C0EE96E27C6E2FF26C6E1FFCE
:101B7000E752E6CFEEFFFCE1060E0601406F3C0E99
:101B80003F6F000116EC09F001C081F30601406BC4
:101B90003F6B426B220E416F000194EC08F002C0D3
:101BA00027F601C026F6060EEA6E3C0EE96E27C641
:101BB000E2FF26C6E1FFE752E6CFEEFFFCE1060EAC
:101BC0000601406F3C0E3F6F000116EC09F001C0AA
:101BD00080F3F60EF66E040EF76E000EF86EAEECA5
:101BE00004F00BEF0EF00FD602C00FF601C00EF698
:101BF000060EEA6E100EE96E0FC6E2FF0EC6E1FF9A
:101C0000E752E6CFEEFFFCE1060E0601256F100E4F
:101C1000246F0001D1D616EC06F002C00FF601C009
:101C20000EF6060EF66E050EF76E000EF86E130E2B
:101C30000601486F0001CDDD0FC6EAFF0EC6E9FFC1
:101C400067EC05F00A0EA4A8FED70F011C6F000177
:101C5000120005019F6B9E6BA091A16BA26BA36B01
:101C6000A46BA56BA66BA76BA86BA96BAA6BAB6BE0
:101C7000AC6BAD6BAE6BAF6BB06BB16BB26BB36B90
:101C8000B46BB56BB66BB76BB86BB96BBA6BBB6B40
:101C9000BC6BBD6BBE6BBF6BC06BC16BC26BC36BF0
:101CA000C46BC56BC66BC76BC86BC96BCA6BCB6BA0
:101CB000CC6BCD6BCE6BCF6BD06BD16BD26BD36B50
:101CC000D46BD56BD66BD76BD86BD96BDA6BDB6B00
:101CD000DC6BDD6BDE6BDF6BE06BE16BE26BE36BB0
:101CE000E46BE56BE66BE76BE86BE96BEA6BEB6B60
:101CF000EC6BED6BEE6BEF6BF06BF16BF26BF36B10
:101D0000F46BF56B200EF66FF76BF86BF96BFA6BF3
:101D1000FB6BFC6BFD6BFE6BFF6B0601006B016BDD
:101D2000026B036B046B056B066B076B086B096B2F
:101D30000A6B0B6BEA0EF66E070EF76E000EF86E6E
:101D40000001AEEC04F0F1EC07F02C50490A01E080
:101D500022D016EC06F0FA0EF66E070EF76E000EA5
:101D6000F86EAEEC04F0F1EC07F02C50430812E1F1
:101D70000E0EF66E080EF76E000EF86EAEEC04F066
:101D8000F1EC07F006010F6B2C0E0E6F000125EF32
:101D90000AF029DF0BD0400EF66E080EF76E000E2B
:101DA000F86EAEEC04F002D0C5EC04F0000E0501B4
:101DB000A0B1010E016E00014EEF11F004018EB5CD
:101DC00016D005019E2D07D0010E9F6F000160EC1B
:101DD00007F009D005019E51020806E1020E9F6F2F
:101DE000000160EC07F0050104018E8507D00501B4
:101DF0009F6B000160EC07F004018E9500019EEFDF
:101E000011F0F86AD09E078E720ED36E9B6A646AD8
:101E1000C69A000EC76E200EC66E949A9488949649
:101E2000958C958A270E696E280E676E688E689C61
:101E300096988D8898988F8865960C0EAF6EA20E36
:101E4000AC6E900EAB6E4090416A40920101416BC6
:101E5000426B436B40940301806B816B826B836B9D
:101E6000846B856B866B04018B6B0F0E8C6F4096B9
:101E700040988D6B409A409C409E8E910F01208728
:101E8000440E1E6F000E1F6FA60E216F900E226F64
:101E900004018E93906B8F6B916B000E0F01236F7B
:101EA000246F256FC196C198C19A2E6B2F6B546B0E
:101EB00004018E9510D002001C00001E402200FF7D
:101EC000404200FF414400FFC0003EC000FF438786
:101ED0000005C0000000000EF86E1E0EF76EB60E74
:101EE000F66E0900F550006E000A13E00900F55087
:101EF000016EE8BE05D03F0BEA6E0900F5CFE9FFA1
:101F000001BC090001AC0900F5CFEEFF004EE9D796
:101F1000F9D7F86A640E926F650E936F620E946F34
:101F2000750E956F670E966F976B720E986F650EB4
:101F3000996F730E9A6F650E9B6F740E9C6F9D6BFD
:101F40009F6BA06BA16BA26BA36BA46BA56BA66B25
:101F5000A76BA86BA96BAA6BAB6BAC6BAD6BAE6BD5
:101F6000AF6BB06BB16BB26BB36BB46BB56BB66B85
:101F7000B76BB86BB96BBA6BBB6BBC6BBD6BBE6B35
:101F8000BF6BC06BC16BC26BC36BC46BC56BC66BE5
:101F9000C76BC86BC96BCA6BCB6BCC6BCD6BCE6B95
:101FA000CF6BD06BD16BD26BD36BD46BD56BD66B45
:101FB000D76BD86BD96BDA6BDB6BDC6BDD6BDE6BF5
:101FC000DF6BE06BE16BE26BE36BE46BE56BE66BA5
:101FD000E76BE86BE96BEA6BEB6BEC6BED6BEE6B55
:101FE000EF6BF06BF16BF26BF36BF46BF56BF66B05
:101FF000F76BF86BF96BFA6BFB6BFC6BFD6BFE6BB5
:10200000FF6B0501006B016B026B036B046B056BCF
:10201000066B076B086B096B0A6B0B6B0C6B0D6B1C
:102020000E6B0F6B106B116B126B136B146B156BCC
:10203000166B176B186B196B1A6B1B6B1C6B1D6B7C
:102040001E6B1F6B206B216B226B236B246B256B2C
:10205000266B276B286B296B2A6B2B6B2C6B2D6BDC
:102060002E6B2F6B306B316B326B336B346B356B8C
:10207000366B376B386B396B3A6B3B6B3C6B3D6B3C
:102080003E6B3F6B406B416B426B436B446B456BEC
:10209000466B476B486B496B4A6B4B6B4C6B4D6B9C
:1020A0004E6B4F6B506B516B526B536B546B556B4C
:1020B000566B576B586B596B5A6B5B6B5C6B5D6BFC
:1020C0005E6B5F6B606B616B626B636B646B656BAC
:1020D000666B676B686B696B6A6B6B6B6C6B6D6B5C
:1020E0006E6B6F6B706B716B726B736B746B756B0C
:1020F000766B776B786B796B7A6B7B6B7C6B7D6BBC
:102100007E6B7F6B806B816B826B836B846B856B6B
:10211000866B876B886B896B8A6B8B6B8C6B8D6B1B
:102120008E6B8F6B906B916B926B936B946B956BCB
:10213000966B976B986B996B9A6B9B6B9C6B9D6B7B
:10214000020E9E6FFA0E06013F6F000199EC04F03B
:1021500005019E2FF7D7920EF66E080EF76E000E51
:10216000F86E0001AEEC04F0C60EF66E080EF76EC7
:10217000000EF86EAEEC04F09D809D8AA38AF28872
:10218000F086C00EF212F198D1808F0ECD6EAA6A41
:10219000C69A949A94889496220EC66E000EC76EC4
:1021A000020E05019E6FFA0E06013F6F000199ECC9
:1021B00004F005019E2FF7D7080E9E6FFA0E060158
:1021C0003F6F000199EC04F005019E2FF7D7040141
:1021D0008E930001C5EC04F0010EEA6E440EE96E28
:1021E000000ED8EC00F00A000900F550EE6E000970
:1021F000FBE1010EEA6E620EE96E000ED8EC00F013
:102200000A000900F550EE6E0009FBE13C0E0401E6
:102210008C6F0001AFEF06F0F80EF66E080EF76E49
:10222000000EF86EAEEC04F0C80E06013F6F000120
:1022300099EC04F0C80E06013F6F000199EC04F020
:10224000040040A051D0010E05019F6F000160EC19
:1022500007F0010E415C036A2C0FE96E000E0320AB
:10226000EA6EEF6A05019F6B2C0E9E6F040EA16F44
:10227000920EA06F000177EC07F0015210E1010E01
:1022800005019F6F000160EC07F00E0EF66E090E5F
:10229000F76E000EF86EAEEC04F0DBD422D0050130
:1022A0009F6B2C0E9E6F040EA16F980EA06F000105
:1022B00077EC07F0015215E1010E05019F6F000157
:1022C00060EC07F01A0EF66E090EF76E000EF86E4F
:1022D000AEEC04F0320E06013F6F000199EC04F001
:1022E000FF00C5EC04F037D040A606D0010E050172
:1022F0009F6F000160EC07F040AE10D0010E0501A9
:102300009F6F000160EC07F0260EF66E090EF76E67
:10231000000EF86EAEEC04F066DC409E04018EA167
:1023200008D0010E05019F6F000160EC07F0040169
:102330008E91010E05019E6F000140D5020E050130
:102340009E6FFA0E06013F6F000199EC04F0050143
:0A2350009E2FF7D7000174D7030099
:020000040030CA
:0E0000001D487E3EF98B9100FFC0FFE0FF40DF
:00000001FF
;PIC18F87K22
;CRC=057F  CREATED="15-Aug-25 09:24"
