:040000006DEF2BF085
:08000800046ED8CF05F0E0CF33
:1000100006F00001E9CF0CF0EACF07F0E1CF08F0DD
:10002000E2CF09F0D9CF0AF0DACF0BF0F3CF12F01C
:10003000F4CF13F0FACF14F0F5CF15F0F6CF16F099
:10004000F7CF17F0F8CF18F0FBCF19F000C00EF083
:1000500001C00FF002C010F003C011F09DA034EFFA
:1000600000F09EB093EF03F0F0A63AEF00F0F0B08E
:100070008EEF01F0F0A840EF00F0F0B29DEF01F03C
:100080009DAA46EF00F09EBA7CEF01F0A3AA4CEFC8
:1000900000F0A4BA62EF01F00EC000F00FC001F052
:1000A00010C002F011C003F00CC0E9FF07C0EAFF66
:1000B000078E08C0E1FF09C0E2FF0AC0D9FF0BC0EC
:1000C000DAFF12C0F3FF13C0F4FF14C0FAFF15C02B
:1000D000F5FF16C0F6FF17C0F7FF18C0F8FF19C0EC
:1000E000FBFF045006C0E0FF05C0D8FF1000F76A10
:1000F000020FF66E010EF722000EF86E0900F550A1
:1001000012000000F76A180FF66E010EF722000EBB
:10011000F86E0900F55012004F4B0000F76A300FDF
:10012000F66E010EF722000EF86E0900F55012006F
:100130002F2C3A220000F76A4A0FF66E010EF722C2
:10014000000EF86E0900F5501200425444726563C7
:100150006F6E0D00F76A680FF66E010EF722000E43
:10016000F86E0900F5501200425444636F6E0D00A2
:10017000F76A840FF66E010EF722000EF86E090082
:10018000F5501200425444737461626C650D0000B6
:10019000F76AA40FF66E010EF722000EF86E090042
:1001A000F5501200524D532A0000F76ABE0FF66E4A
:1001B000010EF722000EF86E0900F55012004E46AF
:1001C000442A0000F76AD80FF66E010EF722000EDF
:1001D000F86E0900F55012004352532A0000F76AE6
:1001E000F20FF66E010EF722000EF86E0900F550C0
:1001F00012004357532A0000F76A0C0FF66E020EE6
:10020000F722000EF86E0900F55012002E2B0000A8
:10021000F76A240FF66E020EF722000EF86E090040
:10022000F55012005741544348444F472054494D1C
:10023000454F55540000F76A4A0FF66E020EF7223A
:10024000000EF86E0900F550120046524553482042
:10025000504F5745522055502100F76A6E0FF66EE9
:10026000020EF722000EF86E0900F5501200534FEF
:100270004654574152452052455345542D00F76A84
:10028000920FF66E020EF722000EF86E0900F5507E
:10029000120048415244574152452052455345545B
:1002A0000000F76AB60FF66E020EF722000EF86E27
:1002B0000900F550120036333935363433333439CA
:1002C0003133000040804150412A036A2C0FE96E0F
:1002D000000E0320EA6EA4AAFED70F011DCFEFFF88
:1002E000036A41502C0FE96E000E0320EA6EEF6A9C
:1002F000A49A00014CEF00F0408201014151412BD2
:10030000036A420FE96E000E0320EA6E9EAAFED732
:10031000AECFEFFF9E9A00014CEF00F04084010E3B
:10032000EA6E710EE96EE26A420EE16EE752E6CFC6
:10033000EEFFFCE1F0904CEF00F004018E83F092B0
:1003400000014CEF00F041542B434F50533F0D0040
:1003500041542B435245473F0D0041540D00475334
:100360004D206D6F64756C65206163746976650AF4
:10037000000047534D206D6F64756C65206E6F20D3
:10038000726573706F6E73650A0049676E69746594
:100390002047534D206D6F64756C650A0000415411
:1003A0005E534D534F0D000047534D204D6F647504
:1003B0006C652053687574646F776E0A0000496E2F
:1003C000697469616C697A652047534D204D6F648B
:1003D000756C650A0000436865636B696E67206E23
:1003E0006574776F726B207265676973747261747C
:1003F000696F6E2C20706C6561736520776169741C
:100400000A005265676973746572656420746F20B1
:100410006E6574776F726B3A2025730A00004E6523
:1004200074776F726B207265676973747261746937
:100430006F6E206661696C65640A000050657266C3
:100440006F726D696E672047534D206D6F64756CD8
:1004500065207265626F6F740A0041542646300D44
:100460000000415445300D0041545E5353594E43F2
:100470003D310D0041542B434E4D493D312C312C23
:10048000302C302C310D000041542B434D47463D5C
:10049000310D000041542B43534D533D300D0000AE
:1004A00041542B434C49503D310D000041542B43E6
:1004B0005042533D4F4E0D0041542B43504D533D40
:1004C0004D542C4D542C4D540D0047534D20726506
:1004D0006164790A000041542B434D47443D25692E
:1004E0000D0041542B434D47533D25632573256330
:1004F0002C3132390D004D6573736167652073656A
:100500006E7420746F3A2025730A000047534D2003
:100510006572726F7220323A204D65737361676540
:10052000204E4F542073656E742E0A0047534D20A1
:1005300054696D656F757420323A204D657373612F
:100540006765204E4F542073656E742E0A00475322
:100550004D206572726F7220313A20204D657373A1
:10056000616765204E4F542073656E742E0A00003B
:1005700047534D2054696D656F757420313A204D95
:10058000657373616765204E4F542073656E742EDA
:100590000A0041542B4353510D00534D533A20252B
:1005A000730A000054727920746F2073656E6420A2
:1005B0002569202D3E20000041542B43434C4B3DE8
:1005C000222573220D0047534D20636C6F636B200F
:1005D0007365740A000047534D20636C6F636B2092
:1005E0004E4F54207365740A000041542B43434C12
:1005F0004B3F0D00696E69740D004C544520496EE7
:10060000697469616C697A65640A00007369676E70
:10061000616C0D000A534D532053656E743A2025CA
:10062000730A00004F46460D00004F4E0D006967EB
:10063000740D00004C54452049676E697465640A66
:1006400000000701F551016AF45D03E2F4C700F010
:100650000CD0006A080EF66FF4370036F551005CD6
:10066000D8B0006E0136F62FF7D700011200016AEC
:10067000026A006A036A0701F75102E1F65118E0C5
:10068000100EF86FD890F437F53700360336F7516F
:10069000035C02E1F651005C07E3F651005ED8A06E
:1006A0000306F751035ED88001360236F82FEAD7E9
:1006B00000017FEF03F00701F36BF26BD00EF12521
:1006C000F26F070EF36FD8B0F32BF251030BF46FF8
:1006D000F56BF4530BE1F55309E1F1C7F4F7640E40
:1006E000F56F0001AEDF005214E10701F56BF1C7B1
:1006F000F4F7010EF76F900EF66F0001B8D700C047
:10070000F4F7070103C0F5F7F45308E1F55306E1E8
:100710000001010E016E05D004D00701000E016E2C
:100720000001B4EF03F0CD92CF8ECD820401916B26
:100730000301802B80513B084CE2806B408C812B65
:1007400081513B0846E2816B822B8251170841E2BE
:10075000826B832B83511D080AE18451020807E153
:1007600085C3F1F70001A7D7015228E003018351A7
:100770001E0806E184510208D8A402D000011ED050
:1007800083511F0818E184510408D8A402D0000145
:1007900015D084510608D8A402D000010FD084518E
:1007A0000908D8A402D0000109D084510B08D8A4AC
:1007B00002D0000103D08351200804E10301842BFF
:1007C000010E836F84510D0803E1852B010E846FA8
:1007D000408A8251170806E181513A0803E18053AB
:1007E00001E1408E825104018D5D0BE003018151D6
:1007F0003A08D8B402D0040104D004018E8182C327
:100800008DF481C3F4F78CC4F5F700011ADF0052B0
:1008100005E140B802D04088408601D040989E90C3
:100820004CEF00F0525443206461746520616E64A3
:100830002074696D653A2025730A000052544320E4
:10084000757064617465640A0000594541525F50D7
:100850005245563D25690A0066726F6D20434F551B
:100860004E5445524E455759454152203D25730A35
:10087000000041542B43434C4B3D222573220D0075
:10088000636C6F636B207365740A000041542B43E3
:10089000434C4B3F0D004D435520636C6F636B2001
:1008A0007365740A00004D435520646174652061CE
:1008B0006E642074696D653A2025730A000020205B
:1008C000202020204445425547204D4F4445204D8F
:1008D000454E550A0000202020202020412E2020B7
:1008E00020202047657420646174612066726F6DFA
:1008F000207468652073656E736F720A0000202093
:1009000020202020422E20202020204765742061B6
:10091000725127732063757272656E7420636F6EF7
:1009200066696775726174696F6E730A00002020D2
:1009300020202020432E2020202020446973706C2A
:100940006179204445425547206D656E750A000067
:10095000202020202020442E2020202020436861B9
:100960006E67652073656E64696E672074696D6576
:100970000A00202020202020452E20202020204357
:100980006865636B20736174656C6C697465207352
:10099000656E64696E670A00202020202020462EA4
:1009A00020202020205365742073657276657220A4
:1009B0006E756D6265720A00202020202020472E6F
:1009C00020202020204C697374207265676973743D
:1009D00065726564206E756D626572730A00202011
:1009E00020202020482E202020202047656E657280
:1009F0006174652043524320636F64650A002020C0
:100A000020202020492E202020202053657420649F
:100A100061746520616E642074696D650A00202030
:100A2000202020204A2E2020202020536574207072
:100A30006F77657220626F61726420636F6E6669A2
:100A40006775726174696F6E0A0020202020202073
:100A50004C2E2020202020446F776E6C6F61642024
:100A6000646174612066726F6D20666C61736820CA
:100A70006D656D6F72790A002020202020204D2E98
:100A800020202020204368616E67652070617373A9
:100A9000776F72640A002020202020204E2E202014
:100AA000202020456E61626C6520736174656C6CFA
:100AB0006974650A00002020202020204F2E20206D
:100AC000202020536574207468652073656E736FF1
:100AD0007220747970650A00202020202020512E79
:100AE0002020202054657374204972696469756DF3
:100AF00020736174656C6C69746520636F6D6D61E2
:100B00006E64730A0000202020202020532E202015
:100B10002020205475726E206F66662077617463A2
:100B200068646F670A00202020202020572E202094
:100B300020202045786974204445425547206D6F38
:100B400064650A00202020202020582E202020200C
:100B50002044656C6574652072656769737465729D
:100B60006564206E756D6265720A00002020202089
:100B70002020612E20202020205265676973746533
:100B800072206E756D6265720A000A456E74657238
:100B90002043686F6963653A0A0050726573732079
:100BA0004320746F206368616E67650A0000456EBC
:100BB000746572204461746520616E642054696DAF
:100BC000652028464F524D4154202259592F4D4DF2
:100BD0002F44442C48483A4D4D3A535322290000A3
:100BE000506C656173652063686F6F736520616E1B
:100BF0006F74686572206C65747465722066726FBC
:100C00006D20746865204445425547206D656E75BA
:100C10000A004153333933352052656164790A0043
:100C20000A4C696768746E696E6720446574656311
:100C30007465642121210A2A2A2A2A2A2A2A2A2A90
:100C40002A2A2A2A2A2A2A2A2A2A2A2A2A2A2A2A04
:100C50002A2A2A2A2A2A2A2A2A2A2A2A2A2A2A2AF4
:100C60002A2A2A2A2A2A2A2A2A2A2A2A2A2A2A2AE4
:100C70002A2A2A2A2A2A2A2A2A2A2A2A2A2A2A2AD4
:100C80002A2A2A2A2A2A2A2A2A2A2A2A2A2A2A2AC4
:100C90002A2A2A2A2A2A2A2A2A2A2A2A2A2A2A2AB4
:100CA0002A2A2A2A2A2A2A2A2A2A2A2A2A2A2A2AA4
:100CB0002A2A2A2A2A2A2A2A2A2A2A2A2A2A2A2A94
:100CC0002A2A2A2A2A2A2A2A2A2A2A2A2A00464379
:100CD0003A25732B257347533A2A2B42543A2573EE
:100CE0002B44543A2A0D0000534D5320746F205367
:100CF000656E743A20257300446174652D54696DE6
:100D0000653A2025730A0000534D5320746F205319
:100D1000656E743A20257300446174652D54696DC5
:100D2000653A2025730A0000534D5320746F2053F9
:100D3000656E743A20257300446174652D54696DA5
:100D4000653A2025730A0000534D5320746F2053D9
:100D5000656E743A20257300446174652D54696D85
:100D6000653A2025730A0000534D5320746F2053B9
:100D7000656E743A20257300446174652D54696D65
:100D8000653A2025730A0000534D5320746F205399
:100D9000656E743A202573000A4152512041636305
:100DA0006570747320526571756573740A004D65C2
:100DB0007373616765204E756D626572203D2025F5
:100DC000690A00000A4D657373616765204E756D91
:100DD000626572203D2025690A000A4D65737361C2
:100DE0006765204E756D626572203D2025690A0099
:100DF0004C5425693A25302E33662B4C4E25693AE2
:100E000025302E33662B00004C5425693A25732B70
:100E10004C4E25693A25732B000030302E3030308F
:100E200000003030302E30303000446174652D5475
:100E3000696D653A2025730A00005761726E696E0C
:100E400067202D20466C61736820436F756E743A7D
:100E50002025582020004F544845522052455345E4
:100E60005420434155534520282569290000257306
:100E7000202D202573000A2A2A2A2A2A2A2A2A2AE9
:100E80002A2A2A2A2A2A2A2A2A2A2A2A2A2A2A2AC2
:100E90002A2A2A2A2A2A2A2A2A2A2A2A2A2A2A2AB2
:100EA0002A2A2A2A2A2A2A2A0A00554C4154204C46
:100EB000696768746E696E67204D6F6E69746F72D2
:100EC000696E672053746174696F6E20284265747F
:100ED000612076657273696F6E290A000A496E692E
:100EE0007469616C697A696E6720425444323030AB
:100EF0000A004445425547204D4F44450000526585
:100F0000736574204D43550A000054696D65205384
:100F1000796E630A0000070EEA6E6D0EE96EEF50FF
:100F20000EE0050E016E006A002EFED7012EFBD7E3
:100F30002E0E006E002EFED700D0EF2EF2D712003C
:100F40000900F55213E0F6CF90F7F7CF91F7F8CFFD
:100F500092F7F550A4A8FED70F011C6F90C7F6FFBB
:100F600091C7F7FF92C7F8FF0001EAD71200EA6ABB
:100F70002C0EE96E000E77EC00F00A000900F55027
:100F8000EE6E0009FBE14090416A120090C4EAFF56
:100F90008FC4E9FF0701BCC7EFFFE92AD8B4EA2AEA
:100FA000EF6A04018F2BD8B4902B000112000900C6
:100FB000F6CFB0F7F7CFB1F7F8CFB2F7F5CFBCF770
:100FC000E5DFB0C7F6FFB1C7F7FFB2C7F8FF07010B
:100FD000AF2F01D002D00001EAD700011200200E8D
:100FE0000701B0A9300EB16FAFC700F000AE08D056
:100FF000001E002A00C0AFF72D0EB16FB08FB08178
:1010000001501B6AF2BE1B8EF29EAFC7F4F7640E4E
:10101000F56F000121EC03F01BBEF28E00C0AFF7AC
:10102000300E01240701B26F1B6AF2BE1B8EF29EC6
:10103000AFC7F4F70A0EF56F000121EC03F01BBEF9
:10104000F28E300E00240701B46F300E0124B36F0E
:10105000B1C700F0300EB25D04E0B083B0BFB08520
:1010600012D0B1C7B2F7200EB16F300EB35D04E0FD
:10107000B081B0BFB08307D0D8A4B08104E1B2C7BB
:10108000B3F7200EB26FB0B505D0B0B307D0B0B192
:1010900009D00CD0B1C7BCF7000178DFB2C7BCF7EC
:1010A000000174DFB3C7BCF7000170DFB4C7BCF741
:1010B00000016CDF1200EF5212E0EACF6BF7E9CFCC
:1010C0006AF7EF50A4A8FED70F011C6F6BC7EAFFA9
:1010D0006AC7E9FFE92AD8B4EA2A0001ECD712006E
:1010E00007016551090811E367C790F466C78FF4DB
:1010F000300EBC6F00014ADF65C7AFF7180E07015D
:10110000B06F00016CDF0BD0070167C790F466C7B2
:101110008FF465C7AFF7180EB06F000160DF0701ED
:1011200066C701F067C702F000011200A8C7ACF75C
:10113000A7C7ABF7ACC7EAFF0701ABC7E9FFEF52A0
:1011400006E0AB2BD8B4AC2B0001F4D70701AAC73B
:10115000EAFFA9C7E9FFEF5213E0AAC7EAFFA9C750
:10116000E9FFEFCFAFF7ACC7EAFFABC7E9FFAFC707
:10117000EFFFAB2BD8B4AC2BA92BD8B4AA2BE7D755
:10118000ACC7EAFFABC7E9FFEF6AA7C701F0A8C782
:1011900002F00001120066C76CF765C76BF76CC7F9
:1011A000EAFF07016BC7E9FFEF5206E06B2BD8B4EB
:1011B0006C2B0001F4D7070168C7EAFF67C7E9FF96
:1011C000EF521CE06A5303E16951000817E268C757
:1011D000EAFF67C7E9FFEFCF6FF76CC7EAFF6BC79E
:1011E000E9FF6FC7EFFF6B2BD8B46C2B672BD8B41C
:1011F000682B6951D8B46A076907DED76CC7EAFF64
:101200006BC7E9FFEF6A65C701F066C702F000012E
:1012100056EF09F00701626B646B636B2F0E626F10
:1012200085C365F700015CDF02C066F701C065F7A2
:10123000030EEA6E870EE96E02C0E2FF01C0E1FF15
:10124000E752E6CFEEFFFCE184C365F749DF02C059
:1012500066F701C065F7030E0701A86F870EA76F39
:1012600002C0AAF701C0A9F7000160DF83C365F7D8
:1012700037DF02C066F701C065F7030E0701A86FEC
:10128000870EA76F02C0AAF701C0A9F700014EDFC1
:10129000030E0701666F870E656F070E686F620E9B
:1012A000676F6A6B010E696F000175D782C365F7BE
:1012B00017DF02C066F701C065F7030E0701A86FCC
:1012C000870EA76F02C0AAF701C0A9F700012EDFA1
:1012D00081C365F705DF02C066F701C065F7030E3D
:1012E0000701A86F870EA76F02C0AAF701C0A9F770
:1012F00000011CDF80C365F7F3DE02C066F701C0A2
:1013000065F7030E0701A86F870EA76F02C0AAF743
:1013100001C0A9F700010ADF870E016E030E026EFD
:101320001200EF520FE0EACF69F7E9CF68F7EFCF8D
:10133000BCF72CDE69C7EAFF68C7E9FFE92AD8B421
:10134000EA2AEFD7120006019E6B9F6BA06BA16B80
:10135000A26BA36BA46BA56BA66BA76BA86BA96B09
:10136000AA6BAB6BAC6BAD6BAE6BAF6BB06BB16BB9
:10137000D0500F0BD0A8000ED080D082D088D88655
:10138000D888DA6FDA51070A000107E00B0A13E088
:101390000C0A1FE00F0A2BE038D0060EEA6E9E0EF4
:1013A000E96E000E08EC01F00A000900F550EE6E3F
:1013B0000009FBE146D0060EEA6E9E0EE96E000EB5
:1013C0001BEC01F00A000900F550EE6E0009FBE18C
:1013D00038D0060EEA6E9E0EE96E000E2DEC01F07E
:1013E0000A000900F550EE6E0009FBE12AD0060E56
:1013F000EA6E9E0EE96E000E3FEC01F00A00090055
:10140000F550EE6E0009FBE11CD0060E0401906F52
:101410009E0E8F6F560EF66E0E0EF76E000EF86E65
:10142000130E0701AF6F0001C2DDDAC6AFF7180E69
:101430000701B06F0001D3DD290E0701BC6F000169
:10144000A5DD060EEA6E9E0EE96E35DE0A0EA4A834
:10145000FED70F011C6F0001DDDE060E0401906F48
:10146000B20E8F6F90C4EAFF8FC4E9FFEF6A060ED9
:10147000EA6E9E0EE96E000154DF700EF66E0E0EDF
:10148000F76E000EF86E030E0701AF6F00018FDDDF
:1014900090C4EAFF8FC4E9FFEF6A030EEA6E870E7D
:1014A000E96E3FDF7BEF2DF0988686B6FED7080EFB
:1014B000006E0701656B008E0ED0009E0CD0D89098
:1014C00086B6D8806533008C06D0009C002EF7D7F6
:1014D00065C701F00CD0100E00BE040E016E012E87
:1014E000FED700D000BEE9D700BCEFD7E8D7000197
:1014F0001200070163BF12D00F0E006E6239001692
:101500000A0E005C03E2300E002602D06351002672
:101510000050A4A8FED70F011C6F07010F0E621721
:101520000A0E625D02E2300E02D0639F63516227B1
:101530006251A4A8FED70F011C6F00011200070121
:101540006A6B6A6B6A3D01D012D0036A6A51420F1E
:10155000E96E000E0320EA6EEF6A036A6A51700FAB
:10156000E96E020E0320EA6EEF6A6A2BEBD70101E7
:10157000416B426B4092000112000900F6CF91F7D7
:10158000F7CF92F7F8CF93F7F550A4A8FED70F0145
:101590001C6F91C7F6FF92C7F7FF93C7F8FF0701CB
:1015A000902F01D002D00001E8D700011200EF52C5
:1015B00010E0EACF6BF7E9CF6AF7EF509EA8FED7AD
:1015C000AD6E6BC7EAFF6AC7E9FFE92AD8B4EA2A19
:1015D000EED70DEF0CF0B0C7B2F7AFC7B1F7B2C797
:1015E000EAFF0701B1C7E9FFEF5206E0B12BD8B41B
:1015F000B22B0001F4D70701AF51B15D006EB051BD
:10160000B259036E00C001F0026E00011200070122
:101610006A6B6B6B6C6B030EB06F6F0EAF6F00017C
:10162000DADF01C06CF701014251415D07016C5DD9
:101630000BE00AE36A2B6A511D0806E3640E6D6F26
:10164000000169DCF0D7070142C16CF76A511D083F
:10165000D8A0C2D06A6B01014151425D23E0036A08
:101660004251420FE96E000E0320EA6E03016F51F2
:10167000EF5CD8A402D0010115D0010E0101422572
:1016800007016E6F1B6AF2BE1B8EF29EF46FF56946
:10169000000121EC03F01BBEF28E00C042F10701F5
:1016A000DAD7010107016B6B01014151425D3AE05C
:1016B000036A4251420FE96E000E0320EA6EEFCF3B
:1016C0006DF7036A07016B516F0FE96E030E03207C
:1016D000EA6EEF506D5DD8B402D0010123D0036AE9
:1016E0006B516F0FE96E030E0320EA6EEF52D8A420
:1016F00002D0010117D06B516B2B010E0101422565
:1017000007016E6F1B6AF2BE1B8EF29EF46FF569C5
:10171000000121EC03F01BBEF28E00C042F1070174
:10172000C3D70101036A07016B516F0FE96E030E06
:101730000320EA6EEF5234E1036A01014151420F86
:10174000E96E000E0320EA6EEF6A4251415D070127
:101750006C6F6B6B6B516C5D1CE3036A6B51700FAC
:10176000016E020E032203C06EF76B510101422588
:10177000036A420FE96E000E0320EA6EEFCF6FF7A7
:1017800007016EC7EAFF01C0E9FF6FC7EFFF6B2BD0
:10179000E1D741C142F1700E016E020E026E21D0FE
:1017A000036A6B516F0FE96E030E0320EA6EEF526E
:1017B00006E001014151425DD8A44ED70701640EF5
:1017C0006D6F00018BEC07F06CC742F107016A2BCB
:1017D0006A510908D8B03FD741C142F1000E016EED
:1017E000026E00010EEF0CF0030EEA6E6F0EE96E52
:1017F000000E82EC00F00A000900F550EE6E0009C0
:10180000FBE19DDEC80E07016D6F00018BEC07F058
:1018100069C7EAFF68C7E9FFCAD6F9D601500210C6
:1018200016E0140EF66E060EF76E000EF86E0B0E36
:101830000701906F0001A1DE69C7EAFF68C7E9FFF1
:101840003ADC0A0EA4A8FED70F011C6F000112009B
:10185000070161510A080DE162530BE16351200851
:1018600008E1645306E16551210803E1010E676F49
:10187000D5D06151100820E162531EE16351200868
:101880001BE1645319E1652D17D00A0EA4A8FED7F9
:101890000F011C6F040EEA6E770EE96E000E000158
:1018A000C8EC00F00A000900F550EE6E0009FBE1FB
:1018B000020E0701676FB2D0615137080DE1625324
:1018C0000BE16351200808E1645306E16551020809
:1018D00003E1030E676FA2D0615127081CE1625338
:1018E0001AE16351200817E1645315E165510308BB
:1018F00012E1040EEA6E770EE96E000E0001D5ECDF
:1019000000F00A000900F550EE6E0009FBE1030E3D
:101910000701676F83D06151100821E162531FE115
:10192000635120081CE164531AE165510F0817E167
:101930000A0EA4A8FED70F011C6F040EEA6E770EE4
:10194000E96E000E0001E2EC00F00A000900F5501B
:10195000EE6E0009FBE1030E0701676F5FD0615176
:1019600057080DE162530BE16351200808E164530D
:1019700006E16551040803E1030E676F4FD0615122
:10198000120821E162531FE1635120081CE16453F6
:101990001AE16551050817E10A0EA4A8FED70F0148
:1019A0001C6F040EEA6E770EE96E000E0001EFEC7C
:1019B00000F00A000900F550EE6E0009FBE1030E8D
:1019C0000701676F2BD061513F080BE1625309E1BA
:1019D0006351200806E1645304E16551060801E102
:1019E0001DD0615116080BE1625309E163512008D3
:1019F00006E1645304E16551070801E10FD061512C
:101A000016080BE1625309E16351200806E16453B3
:101A100004E16551090801E101D0676B00018FDD28
:101A2000040EEA6E630EE96E040EE26E770EE16E4E
:101A3000E752E6CFEEFFFCE1040E0401906F930E37
:101A40008F6F90C4EAFF8FC4E9FFEF6A040EEA6E5D
:101A5000630EE96E000165DC66C7AFF7180E07017B
:101A6000B06F0001EFEC07F00D0E0701BC6F000135
:101A7000C6EC07F0880EF66E0D0EF76E000EF86ECF
:101A80000D0E0701906F000178DD040EEA6E930ED3
:101A9000E96E5BEC08F0040EEA6E630EE96E000E70
:101AA00077EC00F00A000900F550EE6E0009FBE14A
:101AB000040EEA6E770EE96E000E77EC00F00A0075
:101AC0000900F550EE6E0009FBE1040E0701696F95
:101AD000930E686F000188DEC80E07016D6F00016C
:101AE0008BEC07F0070167C701F0000197EF22F0C8
:101AF00098988F98080E016E00D00000018E10D0CB
:101B0000019E070190330001D8B08F88D8A08F982C
:101B1000018C06D0019C012EF4D700D000008F88E4
:101B2000100EE96EE92EFED700D0000001BEE8D706
:101B300001BCF0D71200200E070191A9300E926F60
:101B400090C700F000AE08D0001E002A00C090F739
:101B50002D0E926F918F918101501B6AF2BE1B8EE8
:101B6000F29E90C7F4F7640EF56F000121EC03F0CC
:101B70001BBEF28E00C090F7300E01240701936F58
:101B80001B6AF2BE1B8EF29E90C7F4F70A0EF56F29
:101B9000000121EC03F01BBEF28E300E0024070181
:101BA000956F300E0124946F92C700F0300E935D54
:101BB00004E0918391BF918512D092C793F7200ED4
:101BC000926F300E945D04E0918191BF918307D0B4
:101BD000D8A4918104E193C794F7200E936F91B537
:101BE00005D091B309D091B10DD012D09251A4A8D3
:101BF000FED70F011C6F07019351A4A8FED70F0158
:101C00001C6F07019451A4A8FED70F011C6F070198
:101C10009551A4A8FED70F011C6F00011200070107
:101C2000B56BB66B010EB76FDA6AD96A070EBA6F79
:101C3000AD0EB96F070EEA6EB10EE96EBAC7E2FFDC
:101C4000B9C7E1FFB7C7B8F7D890E550EE02F35037
:101C5000B523F450B623B82FF7D7B5C7DEFFB6C704
:101C6000B5F7B66BD8B0B62BB92BD8B4BA2BB72B07
:101C7000B7510508DFE10001CDEF0EF0D8B204D076
:101C8000070EEA6EBD0EE96E0701B851BC19800B54
:101C9000C26FB8AF0BD0B51FB61FB71FB81FB52B9B
:101CA000D8B4B62BD8B4B72BD8B4B82BBCAF0BD0A4
:101CB000B91FBA1FBB1FBC1FB92BD8B4BA2BD8B4DD
:101CC000BB2BD8B4BC2B006A016A026A036ABD6BE5
:101CD000BE6BBF6BC06BBC51BB11BA11B9112CE00C
:101CE000200EC16FD890B537B637B737B837BD3784
:101CF000BE37BF37C037BC51C05D08E1BB51BF5DC7
:101D000005E1BA51BE5D02E1B951BD5D0FE3B951C4
:101D1000BD5FBA51D8A0BA3DBE5FBB51D8A0BB3D94
:101D2000BF5FBC51D8A0BC3DC05FD8800036013633
:101D300002360336C12FD6D7C2AF0BD0001E011E0C
:101D4000021E031E002AD8B4012AD8B4022AD8B42D
:101D5000032ABDC7EFFFBEC7ECFFBFC7ECFFC0C77C
:101D6000ECFF000112000701A86BA76BA66B010E28
:101D7000A56FAA6BAB6BA1AF19D0010EAA6FA1C75B
:101D8000B0F7A0C7AFF79FC7AEF79EC7ADF7B4696E
:101D9000B369B269B169000142D703C0A1F702C0BB
:101DA000A0F701C09FF700C09EF70701A55306E109
:101DB000A65304E1A75302E1A8536AE0D892A1C751
:101DC000B8F7A0C7B7F79FC7B6F79EC7B5F7BC6B04
:101DD000BB6BBA6BA2C7B9F7000150DF03C0A8F70D
:101DE00002C0A7F701C0A6F700C0A5F70701AB51D5
:101DF000A325016E000EA421036E01C0ADF7AE6FE6
:101E0000EACFB0F7E9CFAFF7D882070EEA6EB10E8E
:101E1000E96EA1C7B8F7A0C7B7F79FC7B6F79EC7C7
:101E2000B5F7BC6BBB6BBA6BA2C7B9F7000126DF75
:101E3000B0C7EAFFAFC7E9FF300E0701B125006E5A
:101E4000000EB221000EB321000EB421AEC7EAFF8E
:101E5000ADC7E9FF00C0EFFFAB51A325E96E000E4F
:101E6000A421EA6EEF50390809E2AB51A325E96ECF
:101E7000000EA421EA6E070EEF24EF6EAB2BA8C76D
:101E8000A1F7A7C7A0F7A6C79FF7A5C79EF78ED74C
:101E9000AA2D09D0AB51A325E96E000EA421EA6E4C
:101EA0002D0EEF6EAB2BA96BD890AB31A95D2AE25A
:101EB000A951A325E96E000EA421EA6EEFCFACF77D
:101EC000A951A325016E000EA421036EA951AB5D9B
:101ED000FF0FA325E96E000EA421EA6EEFCFAFF746
:101EE00003C0EAFF01C0E9FFAFC7EFFFA951AB5D37
:101EF000FF0FA325E96E000EA421EA6EACC7EFFF29
:101F0000A92BD2D7AB51A325E96E000EA421EA6E0E
:101F1000EF6AA3C701F0A4C702F00001E9EF0FF0D8
:101F200007019769966993C703F09251D8B4930754
:101F30009207031040E091C7EAFF9051902BD8B46C
:101F4000912BE96EEF509719946F956B9531036E55
:101F50009431026E03320232033202320332023211
:101F60000F0E03160250941B0350951B96C79FF744
:101F70009E6B9439036E026AF00E031602509E1B8C
:101F800003509F1B9435026E9535036E023603365F
:101F9000023603360236033602360336E00E0216E8
:101FA00002509E1B03509F1B9E519419966F9F5188
:101FB0009519976FB8D7A16BA06B97C79FF796C776
:101FC0009EF7100EA26F070EA46F980EA36F00016C
:101FD000CAD6070196C701F097C702F000011200A8
:101FE0000701646B636B676B68696969120E6A6FDE
:101FF0006B6B020E6C6F6D6F6E6B6F6B706B010EA7
:10200000716F726F736B746B756B766B776BAD0EF4
:10201000786F6B0E796F7A697B69160E7C6F7D6BBA
:10202000020E7E6F010E7F6F806B060E816F826BDA
:10203000040E836F060E846F010E856F866B876BAF
:10204000886B896B8A6B8B6B8C6B8D6B3E0E8E6F86
:102050005A0E8F6F6151010A000106E0030A52E037
:10206000010AD8B4E2D092D1980EF66E0D0EF76E3A
:10207000000EF86EA0EC07F007019069000138DD52
:1020800007019069000134DD0A0E0701906F00011D
:102090002FDD0701906B00012BDD020E0701906F11
:1020A000000126DD330E0701906F000121DD0701DD
:1020B000906B00011DDD0701906B000119DD9F0E83
:1020C0000701906F000114DDF70E0701906F00010A
:1020D0000FDDAE0EF66E0D0EF76E000EF86E110EE1
:1020E0000701906F0001BDEC0AF062C790F7180E6F
:1020F0000701916F00011FDD0A0EA4A8FED70F0192
:102100001C6F45D10701676B6751110804E362C773
:102110006FF7672BF9D7070E916F680E906F936B6F
:10212000100E926F0001FCDE02C064F701C063F77D
:10213000070E036E640EE96E03C0EAFFEFCF65F78A
:10214000070E036E630EE96E03C0EAFFEFCF66F77A
:102150000701676B6751110806E366C778F765C723
:1021600079F7672BF7D790690001C2DC0701906906
:102170000001BEDC120E0701906F0001B9DC0701FF
:10218000906B0001B5DC020E0701906F0001B0DC1E
:10219000020E0701906F0001ABDC0701906B00019C
:1021A000A7DC6FC790F7A4DC0701906B0001A0DCEF
:1021B000010E0701906F00019BDC010E0701906F7B
:1021C000000196DC0701906B000192DC0701906B27
:1021D00000018EDC0701906B00018ADC0701906B27
:1021E000000186DC0701906B000182DC78C790F764
:1021F0007FDC79C790F77CDCC40EF66E0D0EF76EAF
:10220000000EF86E120E0701906F0001BDEC0AF08F
:1022100062C790F7180E0701916F00018CDC0A0E5F
:10222000A4A8FED70F011C6FB2D00701676B6751DE
:10223000150804E362C781F7672BF9D7070E916F82
:102240007A0E906F936B140E926F000169DE02C0DC
:1022500064F701C063F7070E036E640EE96E03C0F6
:10226000EAFFEFCF65F7070E036E630EE96E03C05A
:10227000EAFFEFCF66F70701676B6751150806E3C2
:1022800066C78EF765C78FF7672BF7D79069000190
:102290002FDC0701906900012BDC160E0701906FFF
:1022A000000126DC0701906B000122DC020E070111
:1022B000906F00011DDC010E0701906F000118DC1A
:1022C0000701906B000114DC81C790F711DC070156
:1022D000906B00010DDC040E0701906F000108DC1B
:1022E000060E0701906F000103DC010E0701906FDD
:1022F000000178EC0DF00701906B000178EC0DF017
:102300000701906B000178EC0DF00701906B000164
:1023100078EC0DF00701906B000178EC0DF00701EF
:10232000906B000178EC0DF00701906B000178ECE8
:102330000DF00701906B000178EC0DF00701906B38
:10234000000178EC0DF08EC790F778EC0DF08FC798
:1023500090F778EC0DF0DA0EF66E0D0EF76E000EBB
:10236000F86E120E0701906F0001BDEC0AF062C713
:1023700090F7180E0701916F00019BEC0DF00A0E0B
:10238000A4A8FED70F011C6F02D000010F010001AD
:102390009FEF22F007016151010A00010DE0030ADD
:1023A000D8B4CFD0010AD8B457D1070AD8B4DFD1F6
:1023B000010AD8B467D2F2D2200EF66E0C0EF76E78
:1023C000000EF86EA0EC07F0040E0401906F930E5F
:1023D0008F6FCE0EF66E0C0EF76E000EF86E030EBB
:1023E0000701AF6F0001D7EC07F090C4EAFF8FC47C
:1023F000E9FFEF6A040EEA6E4F0EE96E91EC09F008
:102400002B0E0701BC6F0001C6EC07F090C4EAFF79
:102410008FC4E9FFEF6A030EEA6EAF0EE96E91EC2E
:1024200009F0D60EF66E0C0EF76E000EF86E080E62
:102430000701AF6F0001D7EC07F090C4EAFF8FC42B
:10244000E9FFEF6A030EEA6E9B0EE96E91EC09F06C
:10245000E00EF66E0C0EF76E000EF86E060E07011B
:10246000AF6F0001D7EC07F0E80EF66E0C0EF76EBA
:10247000000EF86E0D0E0701906F0001BDEC0AF022
:10248000040EEA6E930EE96E5BEC08F0040E070191
:10249000696F930E686F0001F4EC0BF0030EEA6EA7
:1024A000AF0EE96E000E77EC00F00A000900F5505F
:1024B000EE6E0009FBE10AEC09F0030EEA6E9B0EDA
:1024C000E96E030EE26E870EE16EE752E6CFEEFF95
:1024D000FCE1F80EF66E0C0EF76E000EF86E0B0EA9
:1024E0000701906F0001BDEC0AF0030EEA6E9B0E2F
:1024F000E96E5BEC08F00A0EA4A8FED70F011C6F72
:10250000030EEA6E870EE96E000E000177EC00F014
:102510000A000900F550EE6E0009FBE1030EEA6EB9
:102520009B0EE96E000E77EC00F00A000900F550F2
:10253000EE6E0009FBE10A0EA4A8FED70F011C6F86
:102540002ED2040EEA6E590EE96E000E9BEC00F0DE
:102550000A000900F550EE6E0009FBE1040E0401CB
:10256000906F930E8F6F90C4EAFF8FC4E9FFEF6AFC
:10257000040EEA6E590EE96E000191EC09F0080EA6
:10258000F66E0D0EF76E000EF86E0D0E0701906FD1
:102590000001BDEC0AF0040EEA6E930EE96E5BECEE
:1025A00008F0040E0701696F930E686F0001F4ECE8
:1025B0000BF0040EEA6E590EE96E000E77EC00F097
:1025C0000A000900F550EE6E0009FBE10AEC09F083
:1025D000030EEA6E9B0EE96E030EE26E870EE16E4D
:1025E000E752E6CFEEFFFCE1180EF66E0D0EF76E29
:1025F000000EF86E0B0E0701906F0001BDEC0AF0A3
:10260000030EEA6E9B0EE96E5BEC08F00A0EA4A8BE
:10261000FED70F011C6F030EEA6E870EE96E000EE7
:10262000000177EC00F00A000900F550EE6E000999
:10263000FBE1030EEA6E9B0EE96E000E77EC00F0F4
:102640000A000900F550EE6E0009FBE10A0EA4A88D
:10265000FED70F011C6FA3D1040EEA6E590EE96E6E
:10266000000EAAEC00F00A000900F550EE6E000919
:10267000FBE1040E0401906F930E8F6F90C4EAFF8C
:102680008FC4E9FFEF6A040EEA6E590EE96E00018D
:1026900091EC09F0280EF66E0D0EF76E000EF86E36
:1026A0000D0E0701906F0001BDEC0AF0040EEA6EFA
:1026B000930EE96E5BEC08F0040E0701696F930E50
:1026C000686F0001F4EC0BF0040EEA6E590EE96E2F
:1026D000000E77EC00F00A000900F550EE6E0009DC
:1026E000FBE10AEC09F0030EEA6E9B0EE96E030EA5
:1026F000E26E870EE16EE752E6CFEEFFFCE1380EA8
:10270000F66E0D0EF76E000EF86E0B0E0701906F51
:102710000001BDEC0AF0030EEA6E9B0EE96E5BEC65
:1027200008F00A0EA4A8FED70F011C6F030EEA6E74
:10273000870EE96E000E000177EC00F00A00090038
:10274000F550EE6E0009FBE1030EEA6E9B0EE96E9A
:10275000000E77EC00F00A000900F550EE6E00095B
:10276000FBE10A0EA4A8FED70F011C6F18D1040EBE
:10277000EA6E590EE96E000EB8EC00F00A0009008E
:10278000F550EE6E0009FBE1040E0401906F930E0C
:102790008F6F90C4EAFF8FC4E9FFEF6A040EEA6E00
:1027A000590EE96E000191EC09F0480EF66E0D0E1F
:1027B000F76E000EF86E0D0E0701906F0001BDEC74
:1027C0000AF0040EEA6E930EE96E5BEC08F0040E5C
:1027D0000701696F930E686F0001F4EC0BF0040EB3
:1027E000EA6E590EE96E000E77EC00F00A0009005F
:1027F000F550EE6E0009FBE10AEC09F0030EEA6EFB
:102800009B0EE96E030EE26E870EE16EE752E6CF95
:10281000EEFFFCE1580EF66E0D0EF76E000EF86E30
:102820000B0E0701906F0001BDEC0AF0030EEA6E7B
:102830009B0EE96E5BEC08F00A0EA4A8FED70F0110
:102840001C6F030EEA6E870EE96E000E000177EC36
:1028500000F00A000900F550EE6E0009FBE1030EDE
:10286000EA6E9B0EE96E000E77EC00F00A0009009C
:10287000F550EE6E0009FBE10A0EA4A8FED70F0189
:102880001C6F8DD0040EEA6E590EE96E000EAAEC94
:1028900000F00A000900F550EE6E0009FBE1040E9D
:1028A0000401906F930E8F6F90C4EAFF8FC4E9FF0D
:1028B000EF6A040EEA6E590EE96E000191EC09F020
:1028C000680EF66E0D0EF76E000EF86E0D0E070117
:1028D000906F0001BDEC0AF0040EEA6E930EE96EF3
:1028E0005BEC08F0040E0701696F930E686F00013E
:1028F000F4EC0BF0040EEA6E590EE96E000E77EC64
:1029000000F00A000900F550EE6E0009FBE10AEC48
:1029100009F0030EEA6E9B0EE96E030EE26E870E5F
:10292000E16EE752E6CFEEFFFCE1780EF66E0D0E9B
:10293000F76E000EF86E0B0E0701906F0001BDECF4
:102940000AF0030EEA6E9B0EE96E5BEC08F00A0ECD
:10295000A4A8FED70F011C6F030EEA6E870EE96E66
:10296000000E000177EC00F00A000900F550EE6E51
:102970000009FBE1030EEA6E9B0EE96E000E77EC98
:1029800000F00A000900F550EE6E0009FBE10A0EA6
:10299000A4A8FED70F011C6F02D000010F010A0E80
:1029A000A4A8FED71C6F000112008E0E006EE2C7B5
:1029B00001F0E1C702F0036A015209E102C001F02F
:1029C000026A080E005E015202E1006A08D0D89047
:1029D00001BE04D0023601360006F9D7019E12006E
:1029E0000701E151D8B471D0006EE551D8B46DD073
:1029F000002604E3810E002668E204D07F0E005E0C
:102A000064E363E0E2C7E9F7E651E91BE28FE68F92
:102A1000E451E803F4CFEBF7E351E703F4CF03F01D
:102A2000F3CFEAF7E803F350EB27F450EA23000E64
:102A30000322E451E703F350EB27F450EA23000E9E
:102A4000026A03220222E251E803F350EA27F4501B
:102A50000322000E0222E251E703F3500326F45052
:102A60000222000E016A0122E451E603F350EA2734
:102A7000F4500322000E02220122E351E603F35038
:102A80000326F4500222000E0122E251E603F35025
:102A90000226F4500122002A01BE05D0EA3703368F
:102AA000023601360006000EEAAF0AD0032A0222DF
:102AB0000122015005E1025003E1035001E1002A27
:102AC000E9BF018EE9AF019E04D0006A016A026A83
:102AD000036A000112000701BC51B608BC6F036A0B
:102AE000BDC7C0F7BD8FD890BD33BE33BF330332EF
:102AF000023201320032BC2FF6D7C0AF0BD0001E1D
:102B0000011E021E031E002AD8B4012AD8B4022ACC
:102B1000D8B4032A000102EF16F0D8B204D0070E91
:102B2000EA6EC40EE96E006A016A026A036A07016E
:102B3000C46BC56BC66BC76BC351C211C111C01149
:102B40002CE0200EC86FD890BC37BD37BE37BF37DA
:102B5000C437C537C637C737C351C75D08E1C2514F
:102B6000C65D05E1C151C55D02E1C051C45D0FE321
:102B7000C051C45FC151D8A0C13DC55FC251D8A0EA
:102B8000C23DC65FC351D8A0C33DC75FD8800036E1
:102B9000013602360336C82FD6D7C4C7EFFFC5C7E4
:102BA000ECFFC6C7ECFFC7C7ECFF00011200E950FD
:102BB0000701B46FB351B66F1BE0B2C7E4F7B1C7FA
:102BC000E3F7B0C7E2F7AFC7E1F7E86BE76B200EBA
:102BD000E66F820EE56F000103DF03C0B2F702C0AB
:102BE000B1F701C0B0F700C0AFF70701B62FE5D7C6
:102BF000B2C7BFF7B1C7BEF7B0C7BDF7AFC7BCF725
:102C0000000169D703C0B2F702C0B1F701C0B0F745
:102C100000C0AFF70701B2AF0DD0B407B48BAF1F40
:102C2000B01FB11FB21FAF2BD8B4B02BD8B4B12B8B
:102C3000D8B4B22B3B0EBB6F9A0EBA6FCA0EB96FE7
:102C4000B86B0A0EB66FB351D8B4B42BD882070E46
:102C5000EA6EAF0EE96EB2C7BFF7B1C7BEF7B0C735
:102C6000BDF7AFC7BCF7BBC7C3F7BAC7C2F7B9C791
:102C7000C1F7B8C7C0F7000150DF0150005213E19F
:102C80000701B329B65DD8A402D000010CD0B4511D
:102C90000DE00F0BB65D01E044E2B4BF42D0B4BD1D
:102CA00005D0200E37D0200E0701B417B4AB0FD0DB
:102CB000B49BB351D8A4B4070050B46F2D0EBC6FB1
:102CC0000001C6EC07F00701B451006EB46BB351BC
:102CD000B65D0DE10050B46F2E0EBC6F0001C6EC66
:102CE00007F00701B451006E200EB417000E300E2D
:102CF000B4AB10D0B49BB351D8A4B4070050B46F98
:102D00002D0EBC6F0001C6EC07F00701B451006E38
:102D1000B46B300E002600C0BCF70001C6EC07F013
:102D20000701D892BBC7BFF7BAC7BEF7B9C7BDF78F
:102D3000B8C7BCF7C36BC26BC16B0A0EC06F000192
:102D4000ECDE03C0BBF702C0BAF701C0B9F700C0A0
:102D5000B8F70701B62F7AD700011200EACF69F75A
:102D6000E9CF68F7070162AF08D0688F68A9682BC0
:102D7000611F621F612BD8B4622B6239F009646F46
:102D80006427E20F656F320F676F62510F0B652783
:102D900065276727E90F666F6627662761390F0B7E
:102DA0006627672766376737671F673761510F0BDD
:102DB00067276437070E636F0A0E66076727FDE310
:102DC00065076627FDE364076527FDE3630764275E
:102DD000FDE3070EEA6E630EE96E070E6815689D47
:102DE000ED52681507E168B9EE5268B903D0200EBC
:102DF000006E21D0E926000EEA22E950670804E1BE
:102E0000EA50070801E1688DEF50006E08E168BDE7
:102E100006D068B91ED068B702D0200E0BD068AFBC
:102E200006D02D0E006EED50689D689F04D0688717
:102E30006899300E0026EACF62F7E9CF61F700C04B
:102E4000BCF70001C6EC07F062C7EAFF61C7E9FF03
:102E50000701EE5068ADD1D7000132EF24F0B0C7C2
:102E6000B4F7AFC7B3F7B4C7EAFF0701B3C7E9FFC9
:102E7000EF522DE0B2C7B6F7B1C7B5F7B6C7EAFF54
:102E8000B5C7E9FFEF520BE1AF51B35D006EB05132
:102E9000B459036E00C001F0026E22D00ED0B4C748
:102EA000EAFFB3C7E9FFEFCFB7F7B6C7EAFFB5C789
:102EB000E9FFEF50B75D01E104D0B52BD8B4B62BD4
:102EC000DDD7B32BD8B4B42B0001CDD70701AF5158
:102ED000B35D006EB051B459036E00C001F0026ED4
:102EE0000001C4EF17F0B0C7B4F7AFC7B3F7B4C76A
:102EF000EAFF0701B3C7E9FFEF5228E0B2C7B6F710
:102F0000B1C7B5F7B6C7EAFFB5C7E9FFEF5218E09A
:102F1000B4C703F0B3C7E9FF03C0EAFFEFCFB7F7C9
:102F2000B6C7EAFFB5C7E9FFEF50B75D05E1B3C724
:102F300001F0B4C702F00DD0B52BD8B4B62BE2D750
:102F4000B32BD8B4B42B0001D2D70701000E016E09
:102F5000026E0001DDEF17F00701A751A81104E090
:102F6000A8C703F0A75103D01DC003F01C50AB6FDE
:102F700003C0ACF7ACC7B0F7ABC7AFF7AAC7B2F79F
:102F8000A9C7B1F700016BD701500701AB27025069
:102F9000AC23ACC7EAFFABC7E9FFEF5204E1000E78
:102FA000016E026E32D0ACC7B0F7ABC7AFF7AAC79D
:102FB000B2F7A9C7B1F7000196D702C0AEF701C0BA
:102FC000ADF70701AD5302E1AE530DE0AEC7EAFF26
:102FD000ADC7E9FFEF6AAD2BD8B4AE2BAEC71DF07D
:102FE000ADC71CF00ED0ACC7B0F7ABC7AFF7000150
:102FF000EBEC0AF001500701AB251C6E0250AC212E
:103000001D6EABC701F0ACC702F000011200DCC7B7
:10301000DFF7DBC7E1F7DAC7E0F70701DE5303E1CB
:10302000DD51000814E2E1C7EAFFE0C7E9FFDF5124
:10303000EF5C05E1E0C701F0E1C702F00BD0E02B47
:10304000D8B4E12BDD51D8B4DE07DD07E7D7000E99
:10305000016E026E000112000701DC51DE19800BC7
:10306000E06FDCAF05D0DB1FDC1FDB2BD8B4DC2B23
:10307000DEAF05D0DD1FDE1FDD2BD8B4DE2BDB512C
:10308000DD03F3CF01F0F4CF00F0DE03F3500026B0
:10309000DC51DD03F3500020026EE0AF05D0011ECD
:1030A000021E012AD8B4022A00019CEF19F0070180
:1030B000B36BB26B300EB56F310EB66F320EB76FA9
:1030C000330EB86F340EB96F350EBA6F360EBB6F54
:1030D000370EBC6F380EBD6F390EBE6F610EBF6FFD
:1030E000620EC06F630EC16F640EC26F650EC36F58
:1030F000660EC46F670EC56F680EC66F690EC76F28
:103100006A0EC86F6B0EC96F6C0ECA6F6D0ECB6FF7
:103110006E0ECC6F6F0ECD6F700ECE6F710ECF6FC7
:10312000730ED06F740ED16F750ED26F760ED36F93
:10313000770ED46F780ED56F790ED66F7A0ED76F63
:10314000D86BA8C7ADF7A7C7ACF7ADC7EAFFACC748
:10315000E9FFEF50200804E1AC2BD8B4AD2BF5D734
:10316000ADC703F0ACC7E9FF03C0EAFFEF502D087D
:1031700007E0ADC7EAFFACC7E9FFEF502B0809E154
:10318000ADC7EAFFAC51AC2BD8B4AD2BE96EEF5014
:1031900001D02B0EB46FABBF08D0AB2D01D005D042
:1031A000ABBF05D0AB51240802E200D17CD0AB53B9
:1031B00046E0AB5110081DE1ADC7EAFFACC7E9FF1F
:1031C000EF50300816E1010EAC25E96E000EAD217E
:1031D000EA6EEF50780809E0010EAC25E96E000EAA
:1031E000AD21EA6EEF50580804E1020EAC27000E44
:1031F000AD23AB5108080BE1ADC7EAFFACC7E9FF4F
:10320000EF50300804E1010EAC27000EAD23AB51A6
:10321000020814E1ADC7EAFFACC7E9FFEF50300880
:103220000DE1010EAC25E96E000EAD21EA6EEF5006
:10323000620804E1020EAC27000EAD2334D0ADC706
:10324000EAFFACC7E9FFEF50300803E00A0EAB6FAE
:103250002AD0010EAC25E96E000EAD21EA6EEF50CA
:10326000780809E0010EAC25E96E000EAD21EA6E8A
:10327000EF50580807E1100EAB6F020EAC27000E9E
:10328000AD2311D0010EAC25E96E000EAD21EA6E22
:10329000EF50620806E1020EAB6FAC27000EAD23C3
:1032A00002D0080EAB6FADC7AFF7ACC7AEF7ADC776
:1032B000EAFFACC7E9FFEF50300804E1AC2BD8B40B
:1032C000AD2BF5D7ADC703F0ACC7E9FF03C0EAFFEC
:1032D000EFCFD9F7D951400806E2D9515A0803E394
:1032E000D951200901D0D951D96F070EDB6FB50E26
:1032F000DA6FD9C7DCF7DE6BABC7DDF7DDBFDE0702
:10330000000185DE02C0B1F701C0B0F70701B0537C
:1033100002E1B15345E0036AAB51006EE8BE03061B
:10332000D96F03C0DAF7B3C7DCF7B2C7DBF703C066
:10333000DEF7DD6F000190D6B50E0701B05D006EBF
:10334000070EB159036E00500124B26F03500220E2
:10335000B36FAC2BD8B4AD2BADC7EAFFACC7E9FF58
:10336000EFCFD9F7D951400806E2D9515A0803E303
:10337000D951200901D0D951D96F070EDB6FB50E95
:10338000DA6FD9C7DCF7DE6BABC7DDF7DDBFDE0771
:1033900000013DDE02C0B1F701C0B0F7B7D70701A9
:1033A000AC51AE5D14E1AD51AF5D11E10701A95122
:1033B000AA1109E0AAC7EAFFA9C7E9FFA8C7ECFF5D
:1033C000ED52A7C7EFFF000E016E026E18D0B45188
:1033D0002D0805E1B21FB31FB22BD8B4B32BA951EE
:1033E000AA1109E0AAC7EAFFA9C7E9FFADC7ECFF28
:1033F000ED52ACC7EFFFB2C701F0B3C702F0000156
:10340000A3EF1EF0800ED8A202D00701E61B070131
:10341000EB6BEC6BE2C7EAF7E651EA1BE151D8B47B
:10342000DFD0E96F006EE551D8B4E3D0E95FD8B4DE
:1034300083D03EE3E6C7EFF7EF8FE7C7EEF7E8C7C5
:10344000EDF7EC6BD890EF33EE33ED33EC33E92F3F
:10345000F8D7EAAF03D0EB81E0D0EB91E991EB89AB
:10346000070EEA6EE40EE96EEBD0EB99EABF0AD0E4
:10347000E9A113D0EF33EE33ED33EC33002AD8B4A7
:10348000C7D00BD0EFBF0CD0D890EC37ED37EE376C
:10349000EF370006D8B4BCD0F5D7EB8D6DD0EB9DDF
:1034A000E2C7EAF7E2AF02D0EF8FABD0EF9FA9D02F
:1034B000E5C7E9F7E5C700F0E151E95FE2C7EFF7DB
:1034C000EF8FE3C7EEF7E4C7EDF7EC6BD890EF337F
:1034D000EE33ED33EC33E92FF8D7EAAF03D0EB83CB
:1034E0009CD0EB93E991EB8B070EEA6EE80EE96E48
:1034F000A7D0EB9BEABF0AD0E9A113D0EF33EE339C
:10350000ED33EC33002AD8B483D00BD0EFBF0CD00E
:10351000D890EC37ED37EE37EF370006D8B478D0D7
:10352000F5D7EB8F29D0EB9FE6C7EAF7E6AF02D0DD
:10353000EF8F67D0EF9F65D0E6C7EFF7EF8FE7C754
:10354000EEF7E8C7EDF7EAAF04D0EF9FEB8565D063
:10355000EB95EC6BE991070EEA6EE40EE96E70D024
:10356000EABF1CD0E2C7EAF7E9A106D0EF33EE3399
:10357000ED33EC33002A4CE0ECAF0BD0ED2B09E13E
:10358000EE2B07E1EF2B05E1EF33EE33ED33002AAD
:103590003FE0EBBD84D7EBBFC6D71CD0800EEF1B3E
:1035A000EFAF04D03AD0E6C7EAF70AD0E2C7EAF7AD
:1035B000EF5306E1EE5304E1ED5302E1006A21D03E
:1035C000EFBF08D0D890EC37ED37EE37EF37002E4D
:1035D000F7D71ED0EAAF02D0EF8F13D0EF9F11D0F4
:1035E000E5C700F0E6C7EFF7E7C7EEF7E8C7EDF786
:1035F00008D0E1C700F0E2C7EFF7E3C7EEF7E4C792
:10360000EDF7EFC701F0EEC702F0EDC703F034D0DD
:10361000006A016A026A036A2FD0EC6BED1FEE1F8D
:10362000EF1FEC1FEC2B05E1ED2B03E1EE2B01E18D
:10363000EF2BEBB112D7EBB354D7EBB589D7B3D798
:10364000EF50ED2705E3EE2B03E1EF2BD8B4E98132
:10365000ED52EF50EE2703E3EF2BD8B4E981ED52A2
:10366000EF50EFBE01D0800AEF27D8B0E981EBB967
:10367000FCD6EBBB3ED774D700011200DEC7E5F7DE
:103680000701E251E51BE5AF05D0D894D890DEBF25
:10369000D8802FD0DEC7E5F7E1C7E6F7DD51E65F5A
:1036A00006E0E5AF26D0D850010AD86E22D0E2C796
:1036B000E6F7DE51E65F06E0E5AF1BD0D850010A21
:1036C000D86E17D0E3C7E6F7DF51E65F06E0E5AF57
:1036D00010D0D850010AD86E0CD0E4C7E6F7E051FC
:1036E000E65F06E0E5AF05D0D850010AD86E01D0FC
:1036F000D890000112008E0E006E0701DD51005EB1
:10370000DEC702F0DFC701F0028E005209E0D89058
:10371000025202E1015204E002320132002EF7D7D8
:10372000DEAF05D0011E021E012AD8B4022A000114
:10373000F7EF1BF00701C26BC16BC06B7F0EBF6F51
:103740007E0EC96F800ECA6FCB6BCC6B7A0ECD6FBD
:103750002A0ECE6FAA0ECF6FA30ED06F750ED16F4B
:10376000B60ED26F090ED36FB40ED46F6F0ED56F35
:103770004F0ED66FB60ED76FAA0ED86F690ED96FDF
:103780008B0EDA6FF60EDB6FE80EDC6FB6C7E0F774
:10379000B5C7DFF7B4C7DEF7B3C7DDF7E46BE36B9C
:1037A000E26BE16B00016ADF05E30701B451800AB7
:1037B000B46F0001B6C7E4F7B5C7E3F7B4C7E2F7E3
:1037C000B3C7E1F7830E0701E86FF90EE76F220E2A
:1037D000E66F7E0EE56F0001F0EC14F003C0E0F739
:1037E00002C0DFF701C0DEF700C0DDF784D701C0FB
:1037F000C3F7B6C7E4F7B5C7E3F7B4C7E2F7B3C793
:10380000E1F7830E0701E86FF90EE76F220EE66F0E
:103810007E0EE56F0001F0EC14F003C0E0F702C08B
:10382000DFF701C0DEF700C0DDF70701E26BC3C7B9
:10383000E1F70001D5EC14F0D882E0C7E4F7DFC768
:10384000E3F7DEC7E2F7DDC7E1F703C0E8F702C040
:10385000E7F701C0E6F700C0E5F7D4DD03C0C8F71D
:1038600002C0C7F701C0C6F700C0C5F7030E0701C5
:10387000C317C35303E0C35102081DE1C8C7E4F7EF
:10388000C7C7E3F7C6C7E2F7C5C7E1F7DB0EE86FC6
:103890000F0EE76F490EE66F7F0EE56F0001F0EC4B
:1038A00014F003C0BEF702C0BDF701C0BCF700C0F2
:1038B000BBF76DD00701C32D36D0D882E46BE36B24
:1038C000E26B7F0EE16FC8C7E8F7C7C7E7F7C6C767
:1038D000E6F7C5C7E5F7000195DD03C0E0F702C0D4
:1038E000DFF701C0DEF700C0DDF703C0E4F702C078
:1038F000E3F701C0E2F700C0E1F7DB0E0701E86F74
:103900000F0EE76F490EE66F7F0EE56F0001F0ECDA
:1039100014F003C0BEF702C0BDF701C0BCF700C081
:10392000BBF735D00701D882C8C7E4F7C7C7E3F7AC
:10393000C6C7E2F7C5C7E1F7E86BE76BE66B7F0E3A
:10394000E56F00015FDD03C0E0F702C0DFF701C0F3
:10395000DEF700C0DDF703C0E4F702C0E3F701C003
:10396000E2F700C0E1F7DB0E0701E86F0F0EE76F2B
:10397000490EE66F7F0EE56F0001F0EC14F003C016
:10398000BEF702C0BDF701C0BCF700C0BBF707011E
:10399000BA6BB96BB86B7F0EB76FBEC7E4F7BDC724
:1039A000E3F7BCC7E2F7BBC7E1F7BEC7E8F7BDC79F
:1039B000E7F7BCC7E6F7BBC7E5F70001F0EC14F08A
:1039C00003C0BEF702C0BDF701C0BCF700C0BBF723
:1039D0000701C46BC45104085DE3C2C7E4F7C1C763
:1039E000E3F7C0C7E2F7BFC7E1F7BEC7E8F7BDC757
:1039F000E7F7BCC7E6F7BBC7E5F70001F0EC14F04A
:103A000003C0C2F702C0C1F701C0C0F700C0BFF7D2
:103A10000701C451040DF350036AC90FE96E070E84
:103A20000320EA6EEFCFE1F7ECCFE2F7ECCFE3F75C
:103A3000ECCFE4F7C2C7E8F7C1C7E7F7C0C7E6F7BE
:103A4000BFC7E5F70001F0EC14F0EACFDEF7E9CFED
:103A5000DDF7D892BAC7E4F7B9C7E3F7B8C7E2F71A
:103A6000B7C7E1F703C0E8F702C0E7F701C0E6F720
:103A700000C0E5F7C7DCDEC7EAFFDDC7E9FF03C02A
:103A8000BAF702C0B9F701C0B8F700C0B7F707012D
:103A9000C42BA0D7C351020802E0C32D03D0B851F4
:103AA000800AB86FB7C700F0B8C701F0B9C702F015
:103AB000BAC703F0000112000701AB51D8B4A5D07A
:103AC000B76FAF51D8B4A1D0B75F05E37F0EB7276A
:103AD000D8B09BD006D0810EB75FD8A096D0D8B40E
:103AE00094D0B7C700F0016A026A036AB66BACC72C
:103AF000B5F7B58FADC7B4F7AEC7B3F7190EB76F4B
:103B0000B251B35F0DE2010EB45F0AE2B55F08E2A5
:103B1000B65F06E2B62BB52BB42BB251B32728D033
:103B2000B151B45F12E2010EB55F0FE2B65F0DE274
:103B3000B62BB52BB151B427B251B32719E3B42B2F
:103B400017E1B52B15E1B62B13D0B0518009B55F45
:103B50000EE2010EB65F0BE2B62BB0518009B5271D
:103B6000B151B427E9E3B52BE7E1B62BE5D70380E4
:103B7000B72F01D00BD0D890B337B437B537B6379D
:103B8000D890033602360136B837BAD7B8A106D076
:103B9000D890013202320332B83302D0000635E049
:103BA000B8BF1ED0D890B337B437B537B637B25197
:103BB000B35F07E2010EB45F04E2B55F02E2B65FF5
:103BC0001AE3B151B45F05E2010EB55F02E2B65FE0
:103BD00012E3B0518009B55F03E2010EB65F0BE35B
:103BE000032A09E1022A07E1012A05E1002A0DE082
:103BF000013202320332ACC7B7F7B051B71BB7AFCF
:103C000002D0018E06D0019E04D0006A016A026AC9
:103C1000036A00011200D882AEC7E4F7ADC7E3F72C
:103C2000ACC7E2F7ABC7E1F7DB0E0701E86F0F0E99
:103C3000E76F490EE66F7F0EE56F000102EC1AF0A8
:103C400003C0B2F702C0B1F701C0B0F700C0AFF7D0
:103C500003C0B6F702C0B5F701C0B4F700C0B3F7B0
:103C600069DDAAEF1FF00900F55211E0F6CFA7F7C2
:103C7000F7CFA8F7F8CFA9F7F5CFBCF7C6EC07F058
:103C8000A7C7F6FFA8C7F7FFA9C7F8FFECD7120030
:103C90000701696B6A6B6B6B6C6B6D6B6E6B6F6B3B
:103CA000706B716B726B736B746B756B766B776B20
:103CB000786B796B7A6B7B6B7C6B7D6B7E6B7F6BD0
:103CC000806B816B826B836B846B856B866B8E6B79
:103CD0008F6B906B916B926B936B946B956B966BF8
:103CE000976B070EEA6E870EE96E000E0001FCEC82
:103CF00000F00A000900F550EE6E0009FBE1040E29
:103D00000701A86F450EA76F070EAA6F870EA96F50
:103D10000001ACEC17F002C08BF701C08AF7070175
:103D20008A5302E18B5335E0986B9851030830E3D6
:103D30008BC7A8F78AC7A7F7AA6BA96B0A0EAB6F48
:103D4000000157EF18F002C08DF701C08CF7036A2D
:103D5000070198518E0FE96E070E0320EA6E8CC79B
:103D6000EFFF9851020804E18DC79EF78CC79DF7BD
:103D7000A86BA76B070EAA6F870EA96F0001ACECAA
:103D800017F002C08BF701C08AF70701982BCDD737
:103D9000C7D7E26B8FC7E1F70001D5EC14F00A0E2C
:103DA0000701E46FD70EE36F230EE26F780EE16F29
:103DB00003C0E8F702C0E7F701C0E6F700C0E5F787
:103DC0000001F0EC14F003C0AAF702C0A9F701C08B
:103DD000A8F700C0A7F70701E26B8EC7E1F7000163
:103DE000D5EC14F0D89203C0E4F702C0E3F701C0A9
:103DF000E2F700C0E1F7AAC7E8F7A9C7E7F7A8C745
:103E0000E6F7A7C7E5F702EC1AF003C09CF702C07B
:103E10009BF701C09AF700C099F71D0E0701A26F2A
:103E20005A0EA16F6A0EA06F820E9F6FDD0EA66FF5
:103E3000240EA56F720EA46F850EA36F9EC7E2F7C6
:103E40009DC7E1F70001D5EC14F003C0E4F702C010
:103E5000E3F701C0E2F700C0E1F7330E0701E86FB6
:103E6000FA0EE76F0E0EE66F790EE56F0001F0ECCB
:103E700014F003C0AAF702C0A9F701C0A8F700C058
:103E8000A7F703C0B6F702C0B5F701C0B4F700C08A
:103E9000B3F750DC9CC7E4F79BC7E3F79AC7E2F798
:103EA00099C7E1F703C0E8F702C0E7F701C0E6F7FA
:103EB00000C0E5F7F0EC14F003C0AAF702C0A9F7C0
:103EC00001C0A8F700C0A7F703C0AEF702C0ADF766
:103ED00001C0ACF700C0ABF7D50E0701B26F380ECA
:103EE000B16F5E0EB06F850EAF6F0001E5DD03C0F0
:103EF00064F702C063F701C062F700C061F79EC7B4
:103F0000E2F79DC7E1F7D5EC14F003C0E4F702C077
:103F1000E3F701C0E2F700C0E1F7330E0701E86FF5
:103F2000FA0EE76F0E0EE66F790EE56F0001F0EC0A
:103F300014F003C0AAF702C0A9F701C0A8F700C097
:103F4000A7F703C0AEF702C0ADF701C0ACF700C0E1
:103F5000ABF761D69CC7E4F79BC7E3F79AC7E2F7D4
:103F600099C7E1F703C0E8F702C0E7F701C0E6F739
:103F700000C0E5F7F0EC14F003C0AAF702C0A9F7FF
:103F800001C0A8F700C0A7F703C0AEF702C0ADF7A5
:103F900001C0ACF700C0ABF7270E0701B26F710E7E
:103FA000B16F570EB06F850EAF6F000185DD03C096
:103FB00068F702C067F701C066F700C065F7070140
:103FC000E06BDF6BDE6BDD6B9CC7E4F79BC7E3F751
:103FD0009AC7E2F799C7E1F700013EEC1BF0D8A0C1
:103FE000A2D0D89264C7E4F763C7E3F762C7E2F7E9
:103FF00061C7E1F7A2C7E8F7A1C7E7F7A0C7E6F7EF
:104000009FC7E5F702EC1AF003C0AAF702C0A9F7B0
:1040100001C0A8F700C0A7F7D89268C7E4F767C740
:10402000E3F766C7E2F765C7E1F7A6C7E8F7A5C7F4
:10403000E7F7A4C7E6F7A3C7E5F702EC1AF003C059
:10404000AEF702C0ADF701C0ACF700C0ABF7070E8A
:104050000401906F690E8F6F4C0E0701BC6F000159
:10406000C6EC07F0540E0701BC6F0001C6EC07F068
:1040700091C7AFF7180E0701B06F0001EFEC07F022
:104080003A0E0701BC6F0001C6EC07F0C90EE96EDD
:10409000AAC7B2F7A9C7B1F7A8C7B0F7A7C7AFF7C4
:1040A000030E0701B36F0001D7EC15F0FA0EF66EA0
:1040B0000D0EF76E000EF86E030E0701AF6F0001D4
:1040C000D7EC07F091C7AFF7180E0701B06F0001EA
:1040D000EFEC07F03A0E0701BC6F0001C6EC07F0E9
:1040E000C90EE96EAEC7B2F7ADC7B1F7ACC7B0F74E
:1040F000ABC7AFF7030E0701B36F0001D7EC15F0A4
:104100002B0E0701BC6F0001C6EC07F0030E070180
:10411000A86FAF0EA76F070EAA6F690EA96F0001F7
:1041200096EC08F059D0070E0401906F690E8F6F5E
:104130004C0E0701BC6F0001C6EC07F0540E0701DE
:10414000BC6F0001C6EC07F091C7AFF7180E07016E
:10415000B06F0001EFEC07F03A0E0701BC6F0001F1
:10416000C6EC07F01A0EF66E0E0EF76E000EF86E25
:104170007ADD0F0EF66E0E0EF76E000EF86E030E61
:104180000701AF6F0001D7EC07F091C7AFF7180E2A
:104190000701B06F0001EFEC07F03A0E0701BC6FAA
:1041A0000001C6EC07F0220EF66E0E0EF76E000E42
:1041B000F86E59DD2B0E0701BC6F0001C6EC07F04D
:1041C000030E0701A86FAF0EA76F070EAA6F690E47
:1041D000A96F000196EC08F0070EEA6E690EE96E11
:1041E000000E77EC00F00A000900F550EE6E0009B1
:1041F000FBE167EF24F0200E070162A9300E636F28
:1042000061C700F000AE08D0001E002A00C061F7B0
:104210002D0E636F628F628101501B6AF2BE1B8E8E
:10422000F29E61C7F4F7640EF56F000121EC03F014
:104230001BBEF28E00C061F7300E01240701646FCF
:104240001B6AF2BE1B8EF29E61C7F4F70A0EF56F71
:10425000000121EC03F01BBEF28E300E002407019A
:10426000666F300E0124656F63C700F0300E645D29
:1042700004E0628362BF628512D062B510D063C76A
:1042800064F762B304D0300E655D04E0628162BF02
:10429000628305D0D8A46281D8B464C765F762B5DB
:1042A00005D062B308D062B10BD00FD063C7BCF7A2
:1042B0000001C6EC07F064C7BCF70001C6EC07F0CC
:1042C00065C7BCF70001C6EC07F066C7BCF7000184
:1042D000C6EC07F0120006019E6B9F6BA06BA16BF2
:1042E000A26BA36BA46BA56BA66BA76BA86BA96B4A
:1042F000AA6BAB6BAC6BAD6BAE6BAF6BB06BB16BFA
:10430000B26BB36BB46BB56BB66BB76BB86BB96BA9
:10431000BA6BBB6BBC6BBD6BBE6BBF6BC06BC16B59
:10432000C26BC36BC46BC56BC66BC76BC86BC96B09
:10433000CA6BCB6BCC6BCD6BCE6BCF6BD06BD16BB9
:10434000D26BD36BD46BD56BD66BD76BD86BD96B69
:10435000DA6BDB6BDC6BDD6BDE6BDF6BE06BE16B19
:10436000E26BE36BE46BE56BE66BE76BE86BE96BC9
:10437000EA6BEB6BEC6BED6BEE6BEF6BF06BF16B79
:10438000F26BF36BF46BF56BF66BF76BF86BF96B29
:10439000FA6BFB6BFC6BFD6BFE6BFF6B0701006B3D
:1043A000016B046B036B010E0F6F116B126B136BC0
:1043B000146B156B166B176B186B196B1A6B1B6BE9
:1043C0001C6B1D6B1E6B1F6B206B216B226B236B99
:1043D000246B256B266B276B286B296B2A6B2B6B49
:1043E0002C6B2D6B2E6B2F6B306B316B326B336BF9
:1043F000346B356B366B376B386B396B3A6B3B6BA9
:104400003C6B3D6B3E6B3F6B406B416B426B436B58
:10441000446B456B466B476B486B496B4A6B4B6B08
:104420004C6B4D6B4E6B4F6B506B516B526B536BB8
:10443000546B556B566B576B586B86B60FD0032B6E
:10444000D8B4042B0451C30809E303E103514F0816
:1044500005E30D0E006E002EFED7EFD786A6B7D06F
:10446000026B0251020817E3036A02519E0FE96EC4
:10447000060E0320EA6EEACF64F7E9CF63F7000186
:1044800054EC0AF064C7EAFF63C7E9FF01C0EFFF1D
:104490000701022BE6D7A0C605F7030E026F0551F0
:1044A000025D17E2036A02519E0FE96E060E0320B9
:1044B000EA6EEACF64F7E9CF63F7000154EC0AF043
:1044C00064C7EAFF63C7E9FF01C0EFFF0701022BE2
:1044D000E6D7026B0551025D16E2036A02519E0F98
:1044E000E96E060E0320EA6EEFCF62F7370E636FB8
:1044F000000179EC0AF0200EA4A8FED70F011C6F72
:104500000701022BE7D706019E3D60D09F3D5ED09C
:10451000A0C661F7A1C662F7A2C663F7A3C664F797
:10452000A4C665F7A5C666F7000128EF0CF001C028
:1045300006F706C761F7A5C662F7F0EF0FF00A0E9F
:10454000A4A8FED70F011C6F00010AEC09F0030EAE
:10455000EA6E9B0EE96E030EE26E870EE16EE75285
:10456000E6CFEEFFFCE12A0EF66E0E0EF76E000EA1
:10457000F86E0B0E0701906F0001BDEC0AF0030E00
:10458000EA6E9B0EE96E5BEC08F00A0EA4A8FED75B
:104590000F011C6F030EEA6E870EE96E000E00011C
:1045A00077EC00F00A000900F550EE6E0009FBE11F
:1045B000030EEA6E9B0EE96E000E77EC00F00A0027
:1045C0000900F550EE6E0009FBE106010701320E0D
:1045D0006D6F00018BEC07F00601A0510A0814E191
:1045E000A051100811E1A1530FE1A25120080CE1E4
:1045F000A3530AE1A42D08D0020E0701616F000148
:10460000CAEC11F0C4D10601A55315E1A0510A0866
:1046100012E1A15310E1A25120080DE1A3530BE1D7
:10462000A451210808E1030E0701616F0001CAECE3
:1046300011F0ADD10601A55101080BE2A551040806
:1046400008E3030E0701616F0001CAEC11F09FD16E
:104650000601A5513F0808E1040E0701616F000142
:10466000CAEC11F094D10601A0515708D8A490D1FA
:10467000A153D8A48DD1A2512008D8A489D1A35385
:10468000D8A486D1A4510408D8A482D100010AEC90
:1046900009F0030EEA6E9B0EE96E030EE26E870EC2
:1046A000E16EE752E6CFEEFFFCE13A0EF66E0E0E3B
:1046B000F76E000EF86E170E0701906F0001BDEC4B
:1046C0000AF0B0C662F7370E0701636F000179EC9C
:1046D0000AF0200EA4A8FED70F011C6F200EA4A87C
:1046E000FED71C6F0701106B10512F08D8A009D1FD
:1046F000026B0251010818E3280E1025036A9E0F71
:10470000E96E060E0320EA6E5A6BEFCF59F7290EB9
:104710001025036A9E0FE96E060E0320EA6E5C6B9D
:10472000EFCF5BF7022BE5D75BC763F7626B59519D
:1047300062135A51631363C7E2F762C7E1F70001DE
:10474000D5EC14F003C0E4F702C0E3F701C0E2F7D0
:1047500000C0E1F70A0E0701E86FD70EE76F230EDE
:10476000E66F780EE56F0001F0EC14F003C00AF775
:1047700002C009F701C008F700C007F72B0E0701B8
:104780001025036A9E0FE96E060E0320EA6EEF52B3
:1047900015E12B0E1025036A9E0FE96E060E03200D
:1047A000EA6E616B2A0E1025036A9E0FE96E060EF3
:1047B0000320EA6EEF5061110B6F0C6B2B0E10256E
:1047C000036A9E0FE96E060E0320EA6EEF5223E0A5
:1047D000026B0251010818E32A0E1025036A9E0F8E
:1047E000E96E060E0320EA6E5E6BEFCF5DF72B0ECF
:1047F0001025036A9E0FE96E060E0320EA6E606BB9
:10480000EFCF5FF7022BE5D7616B61515D110B6F45
:104810005F515E110C6FC2C60DF7B0C60EF7070EE2
:104820000401906F110E8F6F890EE96E0AC7B2F7FF
:1048300009C7B1F708C7B0F707C7AFF7020E0701FE
:10484000B36F0001D7EC15F02B0E0701BC6F000110
:10485000C6EC07F0100EE96E0CC762F70BC761F7E4
:10486000AEEF16F02B0E0701BC6F0001C6EC07F08F
:104870000FC7AFF7180E0701B06F0001EFEC07F09C
:10488000070E0401906F570E8F6F0EC7AFF7180E0B
:104890000701B06F0001EFEC07F0040EEA6E450E61
:1048A000E96E070EE26E110EE16EE752E6CFEEFF03
:1048B000FCE1040EEA6E4F0EE96E070EE26E570E33
:1048C000E16EE752E6CFEEFFFCE148EF1EF0010E8D
:1048D00007010F27070EEA6E110EE96EE26AE16A20
:1048E000E752E6CFEEFFFCE1070EEA6E570EE96EE7
:1048F000E26AE16AE752E6CFEEFFFCE10C0E102718
:10490000F3D6320E6D6F00018BEC07F0070E040139
:10491000906F430E8F6FC3C661F7010E0701626F80
:10492000000169DCC2C661F7010E0701626F000178
:1049300062DCC1C661F7010E0701626F00015BDC3A
:104940002F0E0701BC6F0001C6EC07F0C0C661F76F
:10495000010E0701626F00014EDCBFC661F7010E58
:104960000701626F000147DCBEC661F7010E070157
:10497000626F000140DC010E0701616F0001CAECAB
:1049800011F0320E07016D6F00018BEC07F006018C
:10499000320E07016D6F00018BEC07F092EF2DF0E6
:1049A00006019F51020A000103E0030A06E00AD053
:1049B00096928D829996909609D096928D9299961C
:1049C000908604D096928D929996909612009FC6EA
:1049D000EAFF06019EC6E9FFEFCFA2F6A1C6EAFFF5
:1049E000A0C6E9FFEF50A25D40E09FC6EAFF9EC669
:1049F000E9FFEFCFA2F6A251400803E2A2515A0804
:104A000006E2A251600846E2A2517A0843E3A1C639
:104A1000EAFFA0C6E9FFEFCFA2F6A251400803E2E9
:104A2000A2515A0806E2A251600834E2A2517A0863
:104A300031E39FC6EAFF9EC6E9FFEFCFA2F6A1C60B
:104A4000EAFFA0C6E9FF200EEF24A25D0EE0A1C69A
:104A5000EAFFA0C6E9FFEFCFA2F69FC6EAFF9EC617
:104A6000E9FF200EEF24A25D15E19FC6EAFF9EC676
:104A7000E9FFEF5203E1000E016E21D09FC603F063
:104A80009E519E2BD8B49F2BA02BD8B4A12B0001F4
:104A90009ED706019FC603F09EC6E9FF03C0EAFF4A
:104AA000EFCFA2F6A1C603F0A0C6E9FF03C0EAFF5C
:104AB000EF50A25D02E2FF0E01D0010E016E000177
:104AC0001200B7EC07F040A0FED7320E07016D6F61
:104AD00000018BEC07F01200006A016A07014651E1
:104AE000D89047B100260032013247B30026003289
:104AF000013247B500260032013247B700260032A6
:104B0000013247B900260032013247BB002600328D
:104B1000013247BD00260032013247BF0026003275
:104B200001320001FCEF25F00701446B426B0A0ED5
:104B3000436F416B3F51401103E1000E016EBBD04A
:104B40004451442B3F25E96E000E4021EA6EEFCF21
:104B500045F745512D080CE1010E426F4451442B9D
:104B60003F25E96E000E4021EA6EEFCF45F70CD0ED
:104B700045512B0809E14451442B3F25E96E000EB5
:104B80004021EA6EEFCF45F745512F08D8B08BD0C2
:104B900045513908D8A087D0455130081EE144510D
:104BA0003F25E96E000E4021EA6EEF50780809E0DB
:104BB00044513F25E96E000E4021EA6EEF5058083F
:104BC0000CE1100E436F442B4451442B3F25E96EFA
:104BD000000E4021EA6EEFCF45F743510A081CE171
:104BE00045512F0818E24551390815E30A0E466F62
:104BF00041C747F7000170D7300E0701455D01241A
:104C0000416F4451442B3F25E96E000E4021EA6E6E
:104C1000EFCF45F7E5D747D04351100844E1455160
:104C2000600806E245517A0803E34551DF0B01D0E5
:104C30004551456F45512F0803E24551390806E2B9
:104C40004551400830E2455146082DE345512F08B3
:104C50000CE24551390809E34139466FF00E461719
:104C6000300E455D4625416F09D04139466FF00E43
:104C70004617410E455D0A0F4625416F4451442BAE
:104C80003F25E96E000E4021EA6EEFCF45F7455112
:104C9000600806E245517A0803E34551DF0B01D075
:104CA0004551456FC7D7422D04D043510A0801E151
:104CB000416D41C701F0000112001B6AF2BE1B8E5C
:104CC000F29E30C7F4F70A0E0701F56F000121ECE0
:104CD00003F01BBEF28E01380701316FF00E311761
:104CE0001B6AF2BE1B8EF29E30C7F4F70A0EF56FF8
:104CF000000121EC03F01BBEF28E005007013111C0
:104D0000016E00011200679EA19A48C76AFF020E59
:104D100067BE05D0A1AAFED7000E66BC010E016ECB
:104D20001200668066B0FED7A20E0701486F000130
:104D3000EADF2FC748F7E7DF30C748F7E4DF6684CC
:104D400066B4FED712000701106B116B126B136B68
:104D5000146B156B166B176B186B196B1A6B1B6B3F
:104D60001C6B1D6B1E6B1F6B206B216B226B236BEF
:104D7000246B256B266B276B286B296B2A6B2B6B9F
:104D80002C6BEA6A220EE96E000E00018EEC00F038
:104D90000A000900F550EE6E0009FBE1070EEA6E0D
:104DA000160EE96E0FC7E2FF0EC7E1FFE752E6CF2E
:104DB000EEFFFCE1960E07016D6F00018BEC07F032
:104DC000070E0701A86F160EA76FAA6B220EA96F18
:104DD0000001ACEC17F002C02EF701C02DF7070E52
:104DE000EA6E2A0EE96E2EC7E2FF2DC7E1FFE752F9
:104DF000E6CFEEFFFCE1070E0701406F2A0E3F6F82
:104E0000000192DE01C02FF701C030F756DF01C06C
:104E100015F70701A86BA76BAA6B220EA96F0001FB
:104E2000ACEC17F002C02EF701C02DF7070EEA6EAA
:104E30002A0EE96E2EC7E2FF2DC7E1FFE752E6CF4B
:104E4000EEFFFCE1070E0701406F2A0E3F6F0001E5
:104E50006BDE01C02FF701C030F72FDF01C014F760
:104E60000701A86BA76BAA6B220EA96F0001ACEC1F
:104E700017F002C02EF701C02DF7070EEA6E2A0EBA
:104E8000E96E2EC7E2FF2DC7E1FFE752E6CFEEFF46
:104E9000FCE1070E0701406F2A0E3F6F000144DE60
:104EA00001C02FF701C030F708DF01C013F7070179
:104EB000A86BA76BAA6B220EA96F0001ACEC17F0D0
:104EC00002C02EF701C02DF7070EEA6E2A0EE96E1A
:104ED0002EC7E2FF2DC7E1FFE752E6CFEEFFFCE170
:104EE000070E0701406F2A0E3F6F00011DDE01C053
:104EF0002FF701C030F7E1DE01C012F70701A86B00
:104F0000A76BAA6B220EA96F0001ACEC17F002C0D0
:104F10002EF701C02DF7070EEA6E2A0EE96E2EC796
:104F2000E2FF2DC7E1FFE752E6CFEEFFFCE1070EFF
:104F30000701406F2A0E3F6F0001F6DD01C02FF719
:104F400001C030F7BADE01C011F70701A86BA76BEB
:104F5000AA6B220EA96F0001ACEC17F002C02EF76D
:104F600001C02DF7070EEA6E2A0EE96E2EC7E2FF8A
:104F70002DC7E1FFE752E6CFEEFFFCE1070E070188
:104F8000406F2A0E3F6F0001CFDD01C02FF701C037
:104F900030F793DE01C010F7030E07012F6F10C723
:104FA00030F70001BEDE040E07012F6F11C730F786
:104FB0000001B7DE050E07012F6F12C730F70001A1
:104FC000B0DE060E07012F6F13C730F70001A9DE10
:104FD000080E07012F6F14C730F70001A2DE090E7B
:104FE00007012F6F15C730F700019BDE3C0EF66EF0
:104FF000080EF76E000EF86EA0EC07F035EF2BF000
:10500000679C668666B6FED700B0669A00A0668A80
:10501000668866B8FED76ACF01F0B3EF28F00701C3
:105020004939006E0F0E001600500A0DF3CF4AF7F3
:1050300049510F0B4A25016E0001120001501B6AF5
:10504000F2BE1B8EF29E48C7F4F7640E0701F56F9F
:10505000000121EC03F01BBEF28E00C048F70150A6
:10506000300E08E1070149A310D049B70ED049B965
:10507000200E04D00701499749994981012601C0B2
:10508000BCF70001C6EC07F007011B6AF2BE1B8EDD
:10509000F29E48C7F4F70A0EF56F000121EC03F009
:1050A0001BBEF28E00C048F70150300E08E1070128
:1050B00049B70BD049A109D049B9200E00010126FA
:1050C00001C0BCF7C6EC07F00701300E482748C7FF
:1050D000BCF70001C6EC07F012000701246B256B3A
:1050E000266B276B286B296B2A6B2B6B2C6B2D6B1C
:1050F0002E6B2F6B306B316B326B336B346B356BCC
:10510000366B376B386B396B3A6B3B6B3C6B3D6B7B
:105110003E6B476B668066B0FED7A20E486F0001FB
:10512000F2DD030E0701486F0001EDDD668466B411
:10513000FED7668066B0FED7A30E0701486F000158
:10514000E2DD01C03EF70701476B4751060810E357
:10515000036A47513F0FE96E070E0320EA6E010E06
:10516000006E00014DD701C0EFFF0701472BEDD7BF
:10517000668466B4FED73F517F0B486F496F0001CC
:105180004EDF01C024F740C749F749DF01C025F7CA
:1051900041C749F744DF01C026F742C749F73FDF5F
:1051A00001C027F744C749F73ADF01C028F745C7D0
:1051B00049F735DF01C029F7070E0401906F2A0E69
:1051C0008F6F29C748F71B0E0701496F000136DFB3
:1051D0002F0E0701BC6F0001C6EC07F028C748F787
:1051E0001B0E0701496F000129DF2F0E0701BC6F5D
:1051F0000001C6EC07F027C748F71B0E0701496FEF
:1052000000011CDF2C0E0701BC6F0001C6EC07F08B
:1052100026C748F71B0E0701496F00010FDF3A0E42
:105220000701BC6F0001C6EC07F025C748F71B0E4D
:105230000701496F000102DF3A0E0701BC6F000150
:10524000C6EC07F024C748F71B0E0701496F0001A1
:10525000F5DE240EF66E080EF76E000EF86E130ED5
:105260000701906F0001BDEC0AF0070EEA6E2A0EEE
:10527000E96E5BEC08F00A0EA4A8FED70F011C6FC4
:105280002A0E016E070E026E00015FEF2AF0070181
:10529000276B266B286B296B2A6B2B6B2C6B2D6B6A
:1052A0002E6B2F6B306B316B326B336B346B356B1A
:1052B000366B376B386B396B3A6B3B6B3C6B3D6BCA
:1052C0003E6BEA6A220EE96E000E00018EEC00F0E1
:1052D0000A000900F550EE6E0009FBE1070EEA6EC8
:1052E000280EE96E25C7E2FF24C7E1FFE752E6CFAB
:1052F000EEFFFCE1960E07016D6F00018BEC07F0ED
:10530000070E0701A86F280EA76FAA6B220EA96FC0
:105310000001ACEC17F002C027F701C026F7070E1A
:10532000EA6E3C0EE96E27C7E2FF26C7E1FFE752AF
:10533000E6CFEEFFFCE1070E0701406F3C0E3F6F2A
:10534000000194EC25F001C085F30701A86BA76B61
:10535000AA6B220EA96F0001ACEC17F002C027F770
:1053600001C026F7070EEA6E3C0EE96E27C7E2FF82
:1053700026C7E1FFE752E6CFEEFFFCE1070E07018B
:10538000406F3C0E3F6F000194EC25F001C084F3A8
:105390000701A86BA76BAA6B220EA96F0001ACECEA
:1053A00017F002C027F701C026F7070EEA6E3C0E81
:1053B000E96E27C7E2FF26C7E1FFE752E6CFEEFF1F
:1053C000FCE1070E0701406F3C0E3F6F000194ECBB
:1053D00025F001C083F30701A86BA76BAA6B220E0F
:1053E000A96F0001ACEC17F002C027F701C026F747
:1053F000070EEA6E3C0EE96E27C7E2FF26C7E1FF03
:10540000E752E6CFEEFFFCE1070E0701406F3C0ECE
:105410003F6F000194EC25F001C082F30701A86BF7
:10542000A76BAA6B220EA96F0001ACEC17F002C0AB
:1054300027F701C026F7070EEA6E3C0EE96E27C774
:10544000E2FF26C7E1FFE752E6CFEEFFFCE1070EE1
:105450000701406F3C0E3F6F000194EC25F001C046
:1054600081F30701A86BA76BAA6B220EA96F00013D
:10547000ACEC17F002C027F701C026F7070EEA6E62
:105480003C0EE96E27C7E2FF26C7E1FFE752E6CFF1
:10549000EEFFFCE1070E0701406F3C0E3F6F00017D
:1054A00094EC25F001C080F3960EF66E080EF76EB0
:1054B000000EF86EA0EC07F076EF2AF00ED602C0D0
:1054C0000FF701C00EF7070EEA6E100EE96E0FC758
:1054D000E2FF0EC7E1FFE752E6CFEEFFFCE1070E69
:1054E0000701256F100E246F0001D1D60AEC09F0D8
:1054F00002C00FF701C00EF7A60EF66E080EF76E8B
:10550000000EF86E130E0701906F0001BDEC0AF05B
:105510000FC7EAFF0EC7E9FF5BEC08F00A0EA4A86C
:10552000FED70F011C6F0001120006019F6B9E6BDE
:10553000A091A16BA26BA36BA46BA56BA66BA76BD1
:10554000A86BA96BAA6BAB6BAC6BAD6BAE6BAF6BA7
:10555000B06BB16BB26BB36BB46BB56BB66BB76B57
:10556000B86BB96BBA6BBB6BBC6BBD6BBE6BBF6B07
:10557000C06BC16BC26BC36BC46BC56BC66BC76BB7
:10558000C86BC96BCA6BCB6BCC6BCD6BCE6BCF6B67
:10559000D06BD16BD26BD36BD46BD56BD66BD76B17
:1055A000D86BD96BDA6BDB6BDC6BDD6BDE6BDF6BC7
:1055B000E06BE16BE26BE36BE46BE56BE66BE76B77
:1055C000E86BE96BEA6BEB6BEC6BED6BEE6BEF6B27
:1055D000F06BF16BF26BF36BF46BF56B200EF66F07
:1055E000F76BF86BF96BFA6BFB6BFC6BFD6BFE6B8F
:1055F000FF6B0701006B016B026B036B046B056BA8
:10560000066B076B086B096B0A6B0B6B8A0EF66EE9
:105610000B0EF76E000EF86E0001A0EC07F061ECC7
:1056200025F02C50490A01E022D00AEC09F09A0E2C
:10563000F66E0B0EF76E000EF86EA0EC07F061EC44
:1056400025F02C50430812E1AE0EF66E0B0EF76EED
:10565000000EF86EA0EC07F061EC25F007010F6B6F
:105660002C0E0E6F0001A3EF26F028DF0BD0E00E0A
:10567000F66E0B0EF76E000EF86EA0EC07F002D07F
:10568000B7EC07F0000E0601A0B1010E016E00019B
:10569000BFEF2DF004018EB516D006019E2D07D068
:1056A000010E9F6F0001D0EC24F009D006019E513D
:1056B000020806E1020E9F6F0001D0EC24F0060103
:1056C00004018E8507D006019F6B0001D0EC24F009
:1056D00004018E9500010FEF2EF0F86AD09E078E20
:1056E000720ED36E9B6A646AC69A000EC76E200E55
:1056F000C66E949A94889496958C958A270E696EB6
:10570000280E676E688E689C96988D8898988F880A
:1057100065960C0EAF6EA20EAC6E900EAB6E409006
:10572000416A40920101416B426B436B409403011B
:10573000806B816B826B836B846B856B866B0401E2
:105740008B6B0F0E8C6F409640988D6B409A409CEF
:10575000409E8E910F012087440E1E6F000E1F6F1A
:10576000A60E216F900E226F04018E93906B8F6BAB
:10577000916B000E0F01236F246F256FC196C198A6
:10578000C19A2E6B2F6B546B04018E9512D00200C0
:105790001C00001E402200FF404200FF414400FF69
:1057A000C0003EC000FF43870005C000FF449300D7
:1057B0000000000EF86E570EF76E8E0EF66E0900A2
:1057C000F550006E000A13E00900F550016EE8BEC6
:1057D00005D03F0BEA6E0900F5CFE9FF01BC0900D7
:1057E00001AC0900F5CFEEFF004EE9D7F9D7F86A12
:1057F000640E0501926F650E936F620E946F750EC5
:10580000956F670E966F976B720E986F650E996F16
:10581000730E9A6F650E9B6F740E9C6F9D6B9F6BE2
:10582000A06BA16BA26BA36BA46BA56BA66BA76B04
:10583000A86BA96BAA6BAB6BAC6BAD6BAE6BAF6BB4
:10584000B06BB16BB26BB36BB46BB56BB66BB76B64
:10585000B86BB96BBA6BBB6BBC6BBD6BBE6BBF6B14
:10586000C06BC16BC26BC36BC46BC56BC66BC76BC4
:10587000C86BC96BCA6BCB6BCC6BCD6BCE6BCF6B74
:10588000D06BD16BD26BD36BD46BD56BD66BD76B24
:10589000D86BD96BDA6BDB6BDC6BDD6BDE6BDF6BD4
:1058A000E06BE16BE26BE36BE46BE56BE66BE76B84
:1058B000E86BE96BEA6BEB6BEC6BED6BEE6BEF6B34
:1058C000F06BF16BF26BF36BF46BF56BF66BF76BE4
:1058D000F86BF96BFA6BFB6BFC6BFD6BFE6BFF6B94
:1058E0000601006B016B026B036B046B056B066BAF
:1058F000076B086B096B0A6B0B6B0C6B0D6B0E6BFC
:105900000F6B106B116B126B136B146B156B166BAB
:10591000176B186B196B1A6B1B6B1C6B1D6B1E6B5B
:105920001F6B206B216B226B236B246B256B266B0B
:10593000276B286B296B2A6B2B6B2C6B2D6B2E6BBB
:105940002F6B306B316B326B336B346B356B366B6B
:10595000376B386B396B3A6B3B6B3C6B3D6B3E6B1B
:105960003F6B406B416B426B436B446B456B466BCB
:10597000476B486B496B4A6B4B6B4C6B4D6B4E6B7B
:105980004F6B506B516B526B536B546B556B566B2B
:10599000576B586B596B5A6B5B6B5C6B5D6B5E6BDB
:1059A0005F6B606B616B626B636B646B656B666B8B
:1059B000676B686B696B6A6B6B6B6C6B6D6B6E6B3B
:1059C0006F6B706B716B726B736B746B756B766BEB
:1059D000776B786B796B7A6B7B6B7C6B7D6B7E6B9B
:1059E0007F6B806B816B826B836B846B856B866B4B
:1059F000876B886B896B8A6B8B6B8C6B8D6B8E6BFB
:105A00008F6B906B916B926B936B946B956B966BAA
:105A1000976B986B996B9A6B9B6B9C6B9D6B020E53
:105A20009E6FFA0E07016D6F00018BEC07F0060107
:105A30009E2FF7D7760EF66E0E0EF76E000EF86EEE
:105A40000001A0EC07F0AA0EF66E0E0EF76E000E27
:105A5000F86EA0EC07F09D809D8AA38AF288F086FC
:105A6000C00EF212F198D1808F0ECD6EAA6AC69A3E
:105A7000949A94889496220EC66E000EC76E020EFB
:105A800006019E6FFA0E07016D6F00018BEC07F0A7
:105A900006019E2FF7D7080E9E6FFA0E07016D6F55
:105AA00000018BEC07F006019E2FF7D704018E93BF
:105AB0000001B7EC07F0010EEA6E440EE96E000E2D
:105AC00051EC01F00A000900F550EE6E0009FBE10F
:105AD000010EEA6E620EE96E000E51EC01F00A0052
