:0400000066EF2BF08C
:08000800046ED8CF05F0E0CF33
:1000100006F00001E9CF0CF0EACF07F0E1CF08F0DD
:10002000E2CF09F0D9CF0AF0DACF0BF0F3CF12F01C
:10003000F4CF13F0FACF14F0F5CF15F0F6CF16F099
:10004000F7CF17F0F8CF18F0FBCF19F000C00EF083
:1000500001C00FF002C010F003C011F09DA034EFFA
:1000600000F09EB093EF03F0F0A63AEF00F0F0B08E
:100070008EEF01F0F0A840EF00F0F0B29DEF01F03C
:100080009DAA46EF00F09EBA7CEF01F0A3AA4CEFC8
:1000900000F0A4BA62EF01F00EC000F00FC001F052
:1000A00010C002F011C003F00CC0E9FF07C0EAFF66
:1000B000078E08C0E1FF09C0E2FF0AC0D9FF0BC0EC
:1000C000DAFF12C0F3FF13C0F4FF14C0FAFF15C02B
:1000D000F5FF16C0F6FF17C0F7FF18C0F8FF19C0EC
:1000E000FBFF045006C0E0FF05C0D8FF1000F76A10
:1000F000020FF66E010EF722000EF86E0900F550A1
:1001000012000000F76A180FF66E010EF722000EBB
:10011000F86E0900F55012004F4B0000F76A300FDF
:10012000F66E010EF722000EF86E0900F55012006F
:100130002F2C3A220000F76A4A0FF66E010EF722C2
:10014000000EF86E0900F5501200425444726563C7
:100150006F6E0D00F76A680FF66E010EF722000E43
:10016000F86E0900F5501200425444636F6E0D00A2
:10017000F76A840FF66E010EF722000EF86E090082
:10018000F5501200425444737461626C650D0000B6
:10019000F76AA40FF66E010EF722000EF86E090042
:1001A000F5501200524D532A0000F76ABE0FF66E4A
:1001B000010EF722000EF86E0900F55012004E46AF
:1001C000442A0000F76AD80FF66E010EF722000EDF
:1001D000F86E0900F55012004352532A0000F76AE6
:1001E000F20FF66E010EF722000EF86E0900F550C0
:1001F00012004357532A0000F76A0C0FF66E020EE6
:10020000F722000EF86E0900F55012002E2B0000A8
:10021000F76A240FF66E020EF722000EF86E090040
:10022000F55012005741544348444F472054494D1C
:10023000454F55540000F76A4A0FF66E020EF7223A
:10024000000EF86E0900F550120046524553482042
:10025000504F5745522055502100F76A6E0FF66EE9
:10026000020EF722000EF86E0900F5501200534FEF
:100270004654574152452052455345542D00F76A84
:10028000920FF66E020EF722000EF86E0900F5507E
:10029000120048415244574152452052455345545B
:1002A0000000F76AB60FF66E020EF722000EF86E27
:1002B0000900F550120036333935363433333439CA
:1002C0003133000040804150412A036A2C0FE96E0F
:1002D000000E0320EA6EA4AAFED70F011DCFEFFF88
:1002E000036A41502C0FE96E000E0320EA6EEF6A9C
:1002F000A49A00014CEF00F0408201014151412BD2
:10030000036A420FE96E000E0320EA6E9EAAFED732
:10031000AECFEFFF9E9A00014CEF00F04084010E3B
:10032000EA6E710EE96EE26A420EE16EE752E6CFC6
:10033000EEFFFCE1F0904CEF00F004018E83F092B0
:1003400000014CEF00F041542B434F50533F0D0040
:1003500041542B435245473F0D0041540D00475334
:100360004D206D6F64756C65206163746976650AF4
:10037000000047534D206D6F64756C65206E6F20D3
:10038000726573706F6E73650A0049676E69746594
:100390002047534D206D6F64756C650A0000415411
:1003A0005E534D534F0D000047534D204D6F647504
:1003B0006C652053687574646F776E0A0000496E2F
:1003C000697469616C697A652047534D204D6F648B
:1003D000756C650A0000436865636B696E67206E23
:1003E0006574776F726B207265676973747261747C
:1003F000696F6E2C20706C6561736520776169741C
:100400000A005265676973746572656420746F20B1
:100410006E6574776F726B3A2025730A00004E6523
:1004200074776F726B207265676973747261746937
:100430006F6E206661696C65640A000050657266C3
:100440006F726D696E672047534D206D6F64756CD8
:1004500065207265626F6F740A0041542646300D44
:100460000000415445300D0041545E5353594E43F2
:100470003D310D0041542B434E4D493D312C312C23
:10048000302C302C310D000041542B434D47463D5C
:10049000310D000041542B43534D533D300D0000AE
:1004A00041542B434C49503D310D000041542B43E6
:1004B0005042533D4F4E0D0041542B43504D533D40
:1004C0004D542C4D542C4D540D0047534D20726506
:1004D0006164790A000041542B434D47443D25692E
:1004E0000D0041542B434D47533D25632573256330
:1004F0002C3132390D004D6573736167652073656A
:100500006E7420746F3A2025730A000047534D2003
:100510006572726F7220323A204D65737361676540
:10052000204E4F542073656E742E0A0047534D20A1
:1005300054696D656F757420323A204D657373612F
:100540006765204E4F542073656E742E0A00475322
:100550004D206572726F7220313A20204D657373A1
:10056000616765204E4F542073656E742E0A00003B
:1005700047534D2054696D656F757420313A204D95
:10058000657373616765204E4F542073656E742EDA
:100590000A0041542B4353510D00534D533A20252B
:1005A000730A000054727920746F2073656E6420A2
:1005B0002569202D3E20000041542B43434C4B3DE8
:1005C000222573220D0047534D20636C6F636B200F
:1005D0007365740A000047534D20636C6F636B2092
:1005E0004E4F54207365740A000041542B43434C12
:1005F0004B3F0D00696E69740D004C544520496EE7
:10060000697469616C697A65640A00007369676E70
:10061000616C0D000A534D532053656E743A2025CA
:10062000730A00004F46460D00004F4E0D006967EB
:10063000740D00004C54452049676E697465640A66
:1006400000000601F651016AF55D03E2F5C600F00F
:100650000CD0006A080EF76FF5370036F651005CD3
:10066000D8B0006E0136F72FF7D700011200016AEB
:10067000026A006A036A0601F85102E1F75118E0C4
:10068000100EF96FD890F537F63700360336F8516B
:10069000035C02E1F751005C07E3F751005ED8A06C
:1006A0000306F851035ED88001360236F92FEAD7E7
:1006B00000017FEF03F00601F46BF36BD00EF2251F
:1006C000F36F070EF46FD8B0F42BF351030BF56FF3
:1006D000F66BF5530BE1F65309E1F2C6F5F6640E3D
:1006E000F66F0001AEDF005214E10601F66BF2C6B0
:1006F000F5F6010EF86F900EF76F0001B8D700C045
:10070000F5F6060103C0F6F6F55308E1F65306E1E7
:100710000001010E016E05D004D00601000E016E2D
:100720000001B4EF03F0CD92CF8ECD820401916B26
:100730000301802B80513B084CE2806B408C812B65
:1007400081513B0846E2816B822B8251170841E2BE
:10075000826B832B83511D080AE18451020807E153
:1007600085C3F2F60001A7D7015228E003018351A7
:100770001E0806E184510208D8A402D000011ED050
:1007800083511F0818E184510408D8A402D0000145
:1007900015D084510608D8A402D000010FD084518E
:1007A0000908D8A402D0000109D084510B08D8A4AC
:1007B00002D0000103D08351200804E10301842BFF
:1007C000010E836F84510D0803E1852B010E846FA8
:1007D000408A8251170806E181513A0803E18053AB
:1007E00001E1408E825104018D5D0BE003018151D6
:1007F0003A08D8B402D0040104D004018E8182C327
:100800008DF481C3F5F68CC4F6F600011ADF0052B0
:1008100005E140B802D04088408601D040989E90C3
:100820004CEF00F0525443206461746520616E64A3
:100830002074696D653A2025730A000052544320E4
:10084000757064617465640A0000594541525F50D7
:100850005245563D25690A0066726F6D20434F551B
:100860004E5445524E455759454152203D25730A35
:10087000000041542B43434C4B3D222573220D0075
:10088000636C6F636B207365740A000041542B43E3
:10089000434C4B3F0D004D435520636C6F636B2001
:1008A0007365740A00004D435520646174652061CE
:1008B0006E642074696D653A2025730A000020205B
:1008C000202020204445425547204D4F4445204D8F
:1008D000454E550A0000202020202020412E2020B7
:1008E00020202047657420646174612066726F6DFA
:1008F000207468652073656E736F720A0000202093
:1009000020202020422E20202020204765742061B6
:10091000725127732063757272656E7420636F6EF7
:1009200066696775726174696F6E730A00002020D2
:1009300020202020432E2020202020446973706C2A
:100940006179204445425547206D656E750A000067
:10095000202020202020442E2020202020436861B9
:100960006E67652073656E64696E672074696D6576
:100970000A00202020202020452E20202020204357
:100980006865636B20736174656C6C697465207352
:10099000656E64696E670A00202020202020462EA4
:1009A00020202020205365742073657276657220A4
:1009B0006E756D6265720A00202020202020472E6F
:1009C00020202020204C697374207265676973743D
:1009D00065726564206E756D626572730A00202011
:1009E00020202020482E202020202047656E657280
:1009F0006174652043524320636F64650A002020C0
:100A000020202020492E202020202053657420649F
:100A100061746520616E642074696D650A00202030
:100A2000202020204A2E2020202020536574207072
:100A30006F77657220626F61726420636F6E6669A2
:100A40006775726174696F6E0A0020202020202073
:100A50004C2E2020202020446F776E6C6F61642024
:100A6000646174612066726F6D20666C61736820CA
:100A70006D656D6F72790A002020202020204D2E98
:100A800020202020204368616E67652070617373A9
:100A9000776F72640A002020202020204E2E202014
:100AA000202020456E61626C6520736174656C6CFA
:100AB0006974650A00002020202020204F2E20206D
:100AC000202020536574207468652073656E736FF1
:100AD0007220747970650A00202020202020512E79
:100AE0002020202054657374204972696469756DF3
:100AF00020736174656C6C69746520636F6D6D61E2
:100B00006E64730A0000202020202020532E202015
:100B10002020205475726E206F66662077617463A2
:100B200068646F670A00202020202020572E202094
:100B300020202045786974204445425547206D6F38
:100B400064650A00202020202020582E202020200C
:100B50002044656C6574652072656769737465729D
:100B60006564206E756D6265720A00002020202089
:100B70002020612E20202020205265676973746533
:100B800072206E756D6265720A000A456E74657238
:100B90002043686F6963653A0A0050726573732079
:100BA0004320746F206368616E67650A0000456EBC
:100BB000746572204461746520616E642054696DAF
:100BC000652028464F524D4154202259592F4D4DF2
:100BD0002F44442C48483A4D4D3A535322290000A3
:100BE000506C656173652063686F6F736520616E1B
:100BF0006F74686572206C65747465722066726FBC
:100C00006D20746865204445425547206D656E75BA
:100C10000A004153333933352052656164790A0043
:100C20000A4C696768746E696E6720446574656311
:100C30007465642121210A2A2A2A2A2A2A2A2A2A90
:100C40002A2A2A2A2A2A2A2A2A2A2A2A2A2A2A2A04
:100C50002A2A2A2A2A2A2A2A2A2A2A2A2A2A2A2AF4
:100C60002A2A2A2A2A2A2A2A2A2A2A2A2A2A2A2AE4
:100C70002A2A2A2A2A2A2A2A2A2A2A2A2A2A2A2AD4
:100C80002A2A2A2A2A2A2A2A2A2A2A2A2A2A2A2AC4
:100C90002A2A2A2A2A2A2A2A2A2A2A2A2A2A2A2AB4
:100CA0002A2A2A2A2A2A2A2A2A2A2A2A2A2A2A2AA4
:100CB0002A2A2A2A2A2A2A2A2A2A2A2A2A2A2A2A94
:100CC0002A2A2A2A2A2A2A2A2A2A2A2A2A00464379
:100CD0003A25732B257347533A2A2B42543A2573EE
:100CE0002B44543A2A0D0000534D5320746F205367
:100CF000656E743A20257300446174652D54696DE6
:100D0000653A2025730A0000534D5320746F205319
:100D1000656E743A20257300446174652D54696DC5
:100D2000653A2025730A0000534D5320746F2053F9
:100D3000656E743A20257300446174652D54696DA5
:100D4000653A2025730A0000534D5320746F2053D9
:100D5000656E743A20257300446174652D54696D85
:100D6000653A2025730A0000534D5320746F2053B9
:100D7000656E743A20257300446174652D54696D65
:100D8000653A2025730A0000534D5320746F205399
:100D9000656E743A202573000A4152512041636305
:100DA0006570747320526571756573740A004D65C2
:100DB0007373616765204E756D626572203D2025F5
:100DC000690A00000A4D657373616765204E756D91
:100DD000626572203D2025690A000A4D65737361C2
:100DE0006765204E756D626572203D2025690A0099
:100DF0004C5425693A25302E33662B4C4E25693AE2
:100E000025302E33662B00004C5425693A25732B70
:100E10004C4E25693A25732B000030302E3030308F
:100E200000003030302E30303000446174652D5475
:100E3000696D653A2025730A00005761726E696E0C
:100E400067202D20466C61736820436F756E743A7D
:100E50002025582020004F544845522052455345E4
:100E60005420434155534520282569290000257306
:100E7000202D202573000A2A2A2A2A2A2A2A2A2AE9
:100E80002A2A2A2A2A2A2A2A2A2A2A2A2A2A2A2AC2
:100E90002A2A2A2A2A2A2A2A2A2A2A2A2A2A2A2AB2
:100EA0002A2A2A2A2A2A2A2A0A00554C4154204C46
:100EB000696768746E696E67204D6F6E69746F72D2
:100EC000696E672053746174696F6E20284265747F
:100ED000612076657273696F6E290A000A496E692E
:100EE0007469616C697A696E6720425444323030AB
:100EF0000A004445425547204D4F44450000526585
:100F0000736574204D43550A000054696D65205384
:100F1000796E630A0000060EEA6E6E0EE96EEF50FF
:100F20000EE0050E016E006A002EFED7012EFBD7E3
:100F30002E0E006E002EFED700D0EF2EF2D712003C
:100F40000900F55213E0F6CF91F6F7CF92F6F8CFFD
:100F500093F6F550A4A8FED70F011C6F91C6F6FFBB
:100F600092C6F7FF93C6F8FF0001EAD71200679E0A
:100F7000A19A49C66AFF020E67BE05D0A1AAFED794
:100F8000000E66BC010E016E1200679C668666B696
:100F9000FED700B0669A00A0668A668866B8FED75B
:100FA0006ACF01F0B5EF08F006014A39006E0F0E66
:100FB000001600500A0DF3CF4BF64A510F0B4B258C
:100FC000016E0001120090C4EAFF8FC4E9FF060120
:100FD000BDC6EFFFE92AD8B4EA2AEF6A04018F2BD5
:100FE000D8B4902B0001120001501B6AF2BE1B8E78
:100FF000F29E49C6F5F6640E0601F66F000121EC7B
:1010000003F01BBEF28E00C049F60150300E08E11D
:1010100006014AA30FD04AB70DD04AB9200E04D01A
:1010200006014A974A994A81012601C0BDF600018E
:10103000CADF06011B6AF2BE1B8EF29E49C6F5F698
:101040000A0EF66F000121EC03F01BBEF28E00C009
:1010500049F60150300E08E106014AB70AD04AA10C
:1010600008D04AB9200E0001012601C0BDF6ABDF51
:101070000601300E492749C6BDF60001A4DF120063
:101080000900F6CF92F6F7CF93F6F8CF94F6F55025
:10109000A4A8FED70F011C6F92C6F6FF93C6F7FFF8
:1010A00094C6F8FF0601912F01D002D00001E8D7C5
:1010B00000011200EF5212E0EACF6CF6E9CF6BF6B6
:1010C000EF50A4A8FED70F011C6F6CC6EAFF6BC6D9
:1010D000E9FFE92AD8B4EA2A0001ECD71200060198
:1010E000256B266B276B286B296B2A6B2B6B2C6B64
:1010F0002D6B2E6B2F6B306B316B326B336B346B14
:10110000356B366B376B386B396B3A6B3B6B3C6BC3
:101110003D6B3E6B3F6B486B668066B0FED7A20EA0
:10112000496F000124DF030E0601496F00011FDF34
:10113000668466B4FED7668066B0FED7A30E06014D
:10114000496F000114DF01C03FF60601486B4851AA
:10115000060810E3036A4851400FE96E060E0320AB
:10116000EA6E010E006E000110D701C0EFFF06010C
:10117000482BEDD7668466B4FED740517F0B496F8C
:101180004A6F000111DF01C025F641C64AF60CDFA7
:1011900001C026F642C64AF607DF01C027F643C65D
:1011A0004AF602DF01C028F645C64AF6FDDE01C058
:1011B00029F646C64AF6F8DE01C02AF6060E0401F4
:1011C000906F2B0E8F6F2AC649F61B0E06014A6FD1
:1011D00000010ADF2F0E0601BD6F0001F4DE29C6F3
:1011E00049F61B0E06014A6F0001FEDE2F0E0601B6
:1011F000BD6F0001E8DE28C649F61B0E06014A6FE6
:101200000001F2DE2C0E0601BD6F0001DCDE27C6F8
:1012100049F61B0E06014A6F0001E6DE3A0E060192
:10122000BD6F0001D0DE26C649F61B0E06014A6FCF
:101230000001DADE3A0E0601BD6F0001C4DE25C6EC
:1012400049F61B0E06014A6F0001CEDE240EF66E33
:10125000080EF76E000EF86E130E0601916F000176
:101260000FDF060EEA6E2B0EE96E24DF0A0EA4A82D
:10127000FED70F011C6F2B0E016E060E026E0001D1
:10128000C4EF0DF0B1C6B5F6B0C6B4F6B5C6EAFF08
:101290000601B4C6E9FFEF522DE0B3C6B7F6B2C6F9
:1012A000B6F6B7C6EAFFB6C6E9FFEF520BE1B0519A
:1012B000B45D006EB151B559036E00C001F0026E0D
:1012C00022D00ED0B5C6EAFFB4C6E9FFEFCFB8F61C
:1012D000B7C6EAFFB6C6E9FFEF50B85D01E104D03A
:1012E000B62BD8B4B72BDDD7B42BD8B4B52B0001AF
:1012F000CDD70601B051B45D006EB151B559036E42
:1013000000C001F0026E0001F3EF09F0B1C6B5F6BE
:10131000B0C6B4F6B5C6EAFF0601B4C6E9FFEF529F
:1013200028E0B3C6B7F6B2C6B6F6B7C6EAFFB6C689
:10133000E9FFEF5218E0B5C603F0B4C6E9FF03C0F9
:10134000EAFFEFCFB8F6B7C6EAFFB6C6E9FFEF503F
:10135000B85D05E1B4C601F0B5C602F00DD0B62BFC
:10136000D8B4B72BE2D7B42BD8B4B52B0001D2D761
:101370000601000E016E026E00010CEF0AF0B1C60C
:10138000B3F6B0C6B2F6B3C6EAFF0601B2C6E9FFCD
:10139000EF5206E0B22BD8B4B32B0001F4D706010C
:1013A000B051B25D006EB151B359036E00C001F08F
:1013B000026E000112000601A851A91104E0A9C69D
:1013C00003F0A85103D01DC003F01C50AC6F03C044
:1013D000ADF6ADC6B1F6ACC6B0F6ABC6B3F6AAC6AE
:1013E000B2F600014FD701500601AC270250AD23E1
:1013F000ADC6EAFFACC6E9FFEF5204E1000E016E94
:10140000026E31D0ADC6B1F6ACC6B0F6ABC6B3F61F
:10141000AAC6B2F600017AD702C0AFF601C0AEF696
:101420000601AE5302E1AF530DE0AFC6EAFFAEC610
:10143000E9FFEF6AAE2BD8B4AF2BAFC61DF0AEC636
:101440001CF00DD0ADC6B1F6ACC6B0F6000197DF0A
:1014500001500601AC251C6E0250AD211D6EACC6BC
:1014600001F0ADC602F000011200006A016A060137
:101470004751D89048B100260032013248B30026C7
:101480000032013248B500260032013248B700264A
:101490000032013248B900260032013248BB002632
:1014A0000032013248BD00260032013248BF00261A
:1014B000003201320001C5EF0AF00601456B436BB3
:1014C0000A0E446F426B4051411103E1000E016E60
:1014D000BBD04551452B4025E96E000E4121EA6EF7
:1014E000EFCF46F646512D080CE1010E436F4551F2
:1014F000452B4025E96E000E4121EA6EEFCF46F6FE
:101500000CD046512B0809E14551452B4025E96E89
:10151000000E4121EA6EEFCF46F646512F08D8B0B3
:101520008BD046513908D8A087D0465130081EE1EB
:1015300045514025E96E000E4121EA6EEF507808D2
:1015400009E045514025E96E000E4121EA6EEF5059
:1015500058080CE1100E446F452B4551452B402592
:10156000E96E000E4121EA6EEFCF46F644510A08BB
:101570001CE146512F0818E24651390815E30A0EBE
:10158000476F42C648F6000170D7300E0601465D2F
:101590000124426F4551452B4025E96E000E412143
:1015A000EA6EEFCF46F6E5D747D04451100844E144
:1015B0004651600806E246517A0803E34651DF0BC4
:1015C00001D04651466F46512F0803E24651390873
:1015D00006E24651400830E2465146082DE34651A6
:1015E0002F080CE24651390809E34239476FF00EE3
:1015F0004717300E465D4725426F09D04239476F85
:10160000F00E4717410E465D0A0F4725426F4551C0
:10161000452B4025E96E000E4121EA6EEFCF46F6DC
:101620004651600806E246517A0803E34651DF0B53
:1016300001D04651466FC7D7432D04D044510A0804
:1016400001E1426D42C601F0000112000601286B63
:10165000276B296B2A6B2B6B2C6B2D6B2E6B2F6BD7
:10166000306B316B326B336B346B356B366B376B86
:10167000386B396B3A6B3B6B3C6B3D6B3E6B3F6B36
:10168000EA6A220EE96E000E00018EEC00F00A00FC
:101690000900F550EE6E0009FBE1060EEA6E290E18
:1016A000E96E26C6E2FF25C6E1FFE752E6CFEEFF70
:1016B000FCE1960E06016E6F00012DDC060E0601A0
:1016C000A96F290EA86FAB6B220EAA6F000173DE03
:1016D00002C028F601C027F6060EEA6E3D0EE96E3E
:1016E00028C6E2FF27C6E1FFE752E6CFEEFFFCE1A6
:1016F000060E0601416F3D0E406F0001DEDE01C0A7
:1017000085F30601A96BA86BAB6B220EAA6F0001D3
:1017100052DE02C028F601C027F6060EEA6E3D0E24
:10172000E96E28C6E2FF27C6E1FFE752E6CFEEFFEB
:10173000FCE1060E0601416F3D0E406F0001BDDE6B
:1017400001C084F30601A96BA86BAB6B220EAA6FD4
:10175000000131DE02C028F601C027F6060EEA6E4F
:101760003D0EE96E28C6E2FF27C6E1FFE752E6CF4D
:10177000EEFFFCE1060E0601416F3D0E406F0001D9
:101780009CDE01C083F30601A96BA86BAB6B220E34
:10179000AA6F000110DE02C028F601C027F6060E6F
:1017A000EA6E3D0EE96E28C6E2FF27C6E1FFE7526A
:1017B000E6CFEEFFFCE1060E0601416F3D0E406FE5
:1017C00000017BDE01C082F30601A96BA86BAB6B45
:1017D000220EAA6F0001EFDD02C028F601C027F635
:1017E000060EEA6E3D0EE96E28C6E2FF27C6E1FF4F
:1017F000E752E6CFEEFFFCE1060E0601416F3D0E1B
:10180000406F00015ADE01C081F30601A96BA86B8D
:10181000AB6B220EAA6F0001CEDD02C028F601C01C
:1018200027F6060EEA6E3D0EE96E28C6E2FF27C6D1
:10183000E1FFE752E6CFEEFFFCE1060E0601416F45
:101840003D0E406F000139DE01C080F3960EF66E4A
:10185000080EF76E000EF86EA0EC07F0DBEF0DF04F
:10186000200E0601B1A9300EB26FB0C600F000AE76
:1018700008D0001E002A00C0B0F62D0EB26FB18F46
:10188000B18101501B6AF2BE1B8EF29EB0C6F5F606
:10189000640EF66F000121EC03F01BBEF28E00C057
:1018A000B0F6300E01240601B36F1B6AF2BE1B8E28
:1018B000F29EB0C6F5F60A0EF66F000121EC03F0B9
:1018C0001BBEF28E300E00240601B56F300E0124CF
:1018D000B46FB2C600F0300EB35D04E0B183B1BFA7
:1018E000B18512D0B2C6B3F6200EB26F300EB45D21
:1018F00004E0B181B1BFB18307D0D8A4B18104E1C4
:10190000B3C6B4F6200EB36FB1B505D0B1B308D0ED
:10191000B1B10BD00FD0B2C6BDF60001E3EC07F0B9
:10192000B3C6BDF60001E3EC07F0B4C6BDF6000196
:10193000E3EC07F0B5C6BDF60001E3EC07F01200DA
:1019400006016651090812E368C690F467C68FF471
:10195000300EBD6F0001E3EC07F066C6B0F6180E5E
:101960000601B16F00017CDF0BD0060168C690F460
:1019700067C68FF466C6B0F6180EB16F000170DF4F
:10198000060167C601F068C602F000011200A9C690
:10199000ADF6A8C6ACF6ADC6EAFF0601ACC6E9FFD7
:1019A000EF5206E0AC2BD8B4AD2B0001F4D7060102
:1019B000ABC6EAFFAAC6E9FFEF5213E0ABC6EAFFE7
:1019C000AAC6E9FFEFCFB0F6ADC6EAFFACC6E9FFA5
:1019D000B0C6EFFFAC2BD8B4AD2BAA2BD8B4AB2B31
:1019E000E7D7ADC6EAFFACC6E9FFEF6AA8C601F0CB
:1019F000A9C602F00001120067C66DF666C66CF655
:101A00006DC6EAFF06016CC6E9FFEF5206E06C2BDB
:101A1000D8B46D2B0001F4D7060169C6EAFF68C689
:101A2000E9FFEF521CE06B5303E16A51000817E233
:101A300069C6EAFF68C6E9FFEFCF70F66DC6EAFF38
:101A40006CC6E9FF70C6EFFF6C2BD8B46D2B682B0A
:101A5000D8B4692B6A51D8B46B076A07DED76DC654
:101A6000EAFF6CC6E9FFEF6A66C601F067C602F0DE
:101A7000000187EF0DF00601636B656B646B2F0E41
:101A8000636F85C366F600015BDF02C067F601C0C5
:101A900066F6030EEA6E870EE96E02C0E2FF01C031
:101AA000E1FFE752E6CFEEFFFCE184C366F648DFD4
:101AB00002C067F601C066F6030E0601A96F870E25
:101AC000A86F02C0ABF601C0AAF6000160DF83C3B5
:101AD00066F636DF02C067F601C066F6030E060141
:101AE000A96F870EA86F02C0ABF601C0AAF600016D
:101AF0004EDF030E0601676F870E666F060E696F75
:101B0000630E686F6B6B010E6A6F000175D782C33D
:101B100066F616DF02C067F601C066F6030E060120
:101B2000A96F870EA86F02C0ABF601C0AAF600012C
:101B30002EDF81C366F604DF02C067F601C066F6D9
:101B4000030E0601A96F870EA86F02C0ABF601C095
:101B5000AAF600011CDF80C366F6F2DE02C067F65B
:101B600001C066F6030E0601A96F870EA86F02C0BA
:101B7000ABF601C0AAF600010ADF870E016E030E64
:101B8000026E12006FEF08F002C010F601C00FF6EF
:101B9000060EEA6E110EE96E10C6E2FF0FC6E1FFF7
:101BA000E752E6CFEEFFFCE1060E0601266F110EAE
:101BB000256F00014BD55FDF02C010F601C00FF6A4
:101BC000A60EF66E080EF76E000EF86E130E0601E6
:101BD000916F000140EC08F010C6EAFF0FC6E9FF64
:101BE0005AEC08F00A0EA4A8FED70F011C6F0001E2
:101BF0001200EA6A2C0EE96E000E77EC00F00A0083
:101C00000900F550EE6E0009FBE14090416A1200B8
:101C10000900F6CFB1F6F7CFB2F6F8CFB3F6F5CFAD
:101C2000BDF6E3EC07F0B1C6F6FFB2C6F7FFB3C6E8
:101C3000F8FF0601B02F01D002D00001E9D7000162
:101C40001200EF5210E0EACF6AF6E9CF69F6EFCF63
:101C5000BDF6E3EC07F06AC6EAFF69C6E9FFE92AC8
:101C6000D8B4EA2AEED7120005019F6BA06BA16BD6
:101C7000A26BA36BA46BA56BA66BA76BA86BA96BE0
:101C8000AA6BAB6BAC6BAD6BAE6BAF6BB06BB16B90
:101C9000B26BD0500F0BD0A8000ED080D082D0886D
:101CA000D886D888DB6FDB51070A000107E00B0AF2
:101CB00013E00C0A1FE00F0A2BE038D0050EEA6E85
:101CC0009F0EE96E000E08EC01F00A000900F550C5
:101CD000EE6E0009FBE147D0050EEA6E9F0EE96E3D
:101CE000000E1BEC01F00A000900F550EE6E000931
:101CF000FBE139D0050EEA6E9F0EE96E000E2DEC69
:101D000001F00A000900F550EE6E0009FBE12BD04E
:101D1000050EEA6E9F0EE96E000E3FEC01F00A0020
:101D20000900F550EE6E0009FBE11DD0050E04011F
:101D3000906F9F0E8F6F560EF66E0E0EF76E000EA2
:101D4000F86E130E0601B06F000162DFDBC5B0F65E
:101D5000180E0601B16F000183DD290E0601BD6F6B
:101D60000001E3EC07F0050EEA6E9F0EE96E5AECF7
:101D700008F00A0EA4A8FED70F011C6F00017BDE3D
:101D8000050E0401906FB30E8F6F90C4EAFF8FC4ED
:101D9000E9FFEF6A050EEA6E9F0EE96E000151DF62
:101DA000700EF66E0E0EF76E000EF86E030E060144
:101DB000B06F00012DDF90C4EAFF8FC4E9FFEF6A26
:101DC000030EEA6E870EE96E3CDF77EF2CF0988603
:101DD00086B6FED7080E006E0601666B008E0ED02A
:101DE000009E0CD0D89086B6D8806633008C06D082
:101DF000009C002EF7D766C601F00CD0100E00BE76
:101E0000040E016E012EFED700D000BEE9D700BC43
:101E1000EFD7E8D700011200060164BF12D00F0E01
:101E2000006E633900160A0E005C03E2300E0026D5
:101E300002D0645100260050A4A8FED70F011C6FE9
:101E400006010F0E63170A0E635D02E2300E02D028
:101E5000649F645163276351A4A8FED70F011C6FD0
:101E60000001120006016B6B6B6B6B3D01D012D051
:101E7000036A6B51420FE96E000E0320EA6EEF6AAF
:101E8000036A6B51700FE96E020E0320EA6EEF6A6F
:101E90006B2BEBD70101416B426B409200011200AA
:101EA000EF5210E0EACF6CF6E9CF6BF6EF509EA848
:101EB000FED7AD6E6CC6EAFF6BC6E9FFE92AD8B45F
:101EC000EA2AEED76CEF10F006016B6B6C6B6D6B52
:101ED000030EB16F6F0EB06F0001BFEC09F001C0CF
:101EE0006DF601014251415D06016D5D0CE00BE3B1
:101EF0006B2B6B511D0807E3640E6E6F00018BECBA
:101F000007F0EFD7060142C16DF66B511D08D8A04E
:101F1000C2D06B6B01014151425D23E0036A425123
:101F2000420FE96E000E0320EA6E03016F51EF5C71
:101F3000D8A402D0010115D0010E010142250601ED
:101F40006F6F1B6AF2BE1B8EF29EF56FF669000181
:101F500021EC03F01BBEF28E00C042F10601DAD77D
:101F6000010106016C6B01014151425D3AE0036AD7
:101F70004251420FE96E000E0320EA6EEFCF6EF67B
:101F8000036A06016C516F0FE96E030E0320EA6EBF
:101F9000EF506E5DD8B402D0010123D0036A6C51BA
:101FA0006F0FE96E030E0320EA6EEF52D8A402D041
:101FB000010117D06C516C2B010E01014225060165
:101FC0006F6F1B6AF2BE1B8EF29EF56FF669000101
:101FD00021EC03F01BBEF28E00C042F10601C3D714
:101FE0000101036A06016C516F0FE96E030E0320B5
:101FF000EA6EEF5234E1036A01014151420FE96E8A
:10200000000E0320EA6EEF6A4251415D06016D6FDA
:102010006C6B6C516D5D1CE3036A6C51700F016E4B
:10202000020E032203C06FF66C5101014225036AC0
:10203000420FE96E000E0320EA6EEFCF70F6060144
:102040006FC6EAFF01C0E9FF70C6EFFF6C2BE1D756
:1020500041C142F1700E016E020E026E21D0036A80
:102060006C516F0FE96E030E0320EA6EEF5206E02B
:1020700001014151425DD8A44ED70601640E6E6F36
:1020800000018BEC07F06DC642F106016B2B6B5122
:102090000908D8B03FD741C142F1000E016E026E6F
:1020A00000016DEF10F0030EEA6E6F0EE96E000E88
:1020B00082EC00F00A000900F550EE6E0009FBE129
:1020C000D1DEC80E06016E6F00018BEC07F06AC608
:1020D000EAFF69C6E9FFE4D6F7D60150021018E01E
:1020E000140EF66E060EF76E000EF86E0B0E06015D
:1020F000916F000140EC08F06AC6EAFF69C6E9FF8B
:102100005AEC08F00A0EA4A8FED70F011C6F0001BC
:102110001200060162510A080DE163530BE164519C
:10212000200808E1655306E16651210803E1010E2C
:10213000686FD5D06251100820E163531EE16451ED
:1021400020081BE1655319E1662D17D00A0EA4A8DB
:10215000FED70F011C6F040EEA6E770EE96E000EBB
:102160000001C8EC00F00A000900F550EE6E00090D
:10217000FBE1020E0601686FB2D0625137080DE133
:1021800063530BE16451200808E1655306E1665191
:10219000020803E1030E686FA2D0625127081CE118
:1021A00063531AE16451200817E1655315E1665144
:1021B000030812E1040EEA6E770EE96E000E0001CC
:1021C000D5EC00F00A000900F550EE6E0009FBE1C5
:1021D000030E0601686F83D06251100821E163533A
:1021E0001FE1645120081CE165531AE166510F0894
:1021F00017E10A0EA4A8FED70F011C6F040EEA6EA9
:10220000770EE96E000E0001E2EC00F00A00090012
:10221000F550EE6E0009FBE1030E0601686F5FD01A
:10222000625157080DE163530BE16451200808E146
:10223000655306E16651040803E1030E686F4FD051
:102240006251120821E163531FE1645120081CE12F
:1022500065531AE16651050817E10A0EA4A8FED7D6
:102260000F011C6F040EEA6E770EE96E000E00017E
:10227000EFEC00F00A000900F550EE6E0009FBE1FA
:10228000030E0601686F2BD062513F080BE16353C8
:1022900009E16451200806E1655304E1665106082E
:1022A00001E11DD0625116080BE1635309E164514D
:1022B000200806E1655304E16651070801E10FD0EB
:1022C000625116080BE1635309E16451200806E1ED
:1022D000655304E16651090801E101D0686B000112
:1022E000C1DD040EEA6E630EE96E040EE26E770E37
:1022F000E16EE752E6CFEEFFFCE1040E0401906FC1
:10230000930E8F6F90C4EAFF8FC4E9FFEF6A040E4B
:10231000EA6E630EE96E000194DC67C6B0F6180E33
:102320000601B16F000130EC0CF00D0E0601BD6F1F
:102330000001E3EC07F0880EF66E0D0EF76E000E4E
:10234000F86E0D0E0601916F000140EC08F0040ECE
:10235000EA6E930EE96E5AEC08F0040EEA6E630E14
:10236000E96E000E77EC00F00A000900F550EE6E01
:102370000009FBE1040EEA6E770EE96E000E77ECC1
:1023800000F00A000900F550EE6E0009FBE1040EB2
:1023900006016A6F930E696F000185DEC80E0601A3
:1023A0006E6F00018BEC07F0060168C601F00001BA
:1023B00021EF26F098988F98080E016E00D000004B
:1023C000018E10D0019E060191330001D8B08F8894
:1023D000D8A08F98018C06D0019C012EF4D700D094
:1023E00000008F88100EE96EE92EFED700D00000A5
:1023F00001BEE8D701BCF0D71200200E060192A959
:10240000300E936F91C600F000AE08D0001E002A77
:1024100000C091F62D0E936F928F928101501B6A2E
:10242000F2BE1B8EF29E91C6F5F6640EF66F0001A9
:1024300021EC03F01BBEF28E00C091F6300E012499
:102440000601946F1B6AF2BE1B8EF29E91C6F5F6D2
:102450000A0EF66F000121EC03F01BBEF28E300E67
:1024600000240601966F300E0124956F93C600F08C
:10247000300E945D04E0928392BF928512D093C691
:1024800094F6200E936F300E955D04E0928192BF1A
:10249000928307D0D8A4928104E194C695F6200EC9
:1024A000946F92B505D092B309D092B10DD012D0ED
:1024B0009351A4A8FED70F011C6F06019451A4A844
:1024C000FED70F011C6F06019551A4A8FED70F017E
:1024D0001C6F06019651A4A8FED70F011C6F0001C6
:1024E00012000601B66BB76B010EB86FDA6AD96AD3
:1024F000060EBB6FAE0EBA6F060EEA6EB20EE96E36
:10250000BBC6E2FFBAC6E1FFB8C6B9F6D890E5503F
:10251000EE02F350B623F450B723B92FF7D7B6C65F
:10252000DEFFB7C6B6F6B76BD8B0B72BBA2BD8B4A8
:10253000BB2BB82BB8510508DFE100012FEF13F0DA
:10254000D8B204D0060EEA6EBE0EE96E0601B9518D
:10255000BD19800BC36FB9AF0BD0B61FB71FB81F23
:10256000B91FB62BD8B4B72BD8B4B82BD8B4B92B65
:10257000BDAF0BD0BA1FBB1FBC1FBD1FBA2BD8B439
:10258000BB2BD8B4BC2BD8B4BD2B006A016A026A3D
:10259000036ABE6BBF6BC06BC16BBD51BC11BB117D
:1025A000BA112CE0200EC26FD890B637B737B837C3
:1025B000B937BE37BF37C037C137BD51C15D08E13C
:1025C000BC51C05D05E1BB51BF5D02E1BA51BE5DCA
:1025D0000FE3BA51BE5FBB51D8A0BB3DBF5FBC513A
:1025E000D8A0BC3DC05FBD51D8A0BD3DC15FD88063
:1025F0000036013602360336C22FD6D7C3AF0BD012
:10260000001E011E021E031E002AD8B4012AD8B4DF
:10261000022AD8B4032ABEC6EFFFBFC6ECFFC0C66D
:10262000ECFFC1C6ECFF000112000601A96BA86B0C
:10263000A76B010EA66FAB6BAC6BA2AF19D0010EEE
:10264000AB6FA2C6B1F6A1C6B0F6A0C6AFF69FC6E4
:10265000AEF6B569B469B369B269000142D703C087
:10266000A2F602C0A1F601C0A0F600C09FF60601C6
:10267000A65306E1A75304E1A85302E1A9536AE077
:10268000D892A2C6B9F6A1C6B8F6A0C6B7F69FC63C
:10269000B6F6BD6BBC6BBB6BA3C6BAF6000150DFD0
:1026A00003C0A9F602C0A8F601C0A7F600C0A6F6AE
:1026B0000601AC51A425016E000EA521036E01C0D8
:1026C000AEF6AF6FEACFB1F6E9CFB0F6D882060E1C
:1026D000EA6EB20EE96EA2C6B9F6A1C6B8F6A0C6F9
:1026E000B7F69FC6B6F6BD6BBC6BBB6BA3C6BAF69E
:1026F000000126DFB1C6EAFFB0C6E9FF300E0601D1
:10270000B225006E000EB321000EB421000EB521DB
:10271000AFC6EAFFAEC6E9FF00C0EFFFAC51A4258B
:10272000E96E000EA521EA6EEF50390809E2AC51BE
:10273000A425E96E000EA521EA6E070EEF24EF6EC8
:10274000AC2BA9C6A2F6A8C6A1F6A7C6A0F6A6C637
:102750009FF68ED7AB2D09D0AC51A425E96E000EA3
:10276000A521EA6E2D0EEF6EAC2BAA6BD890AC3182
:10277000AA5D2AE2AA51A425E96E000EA521EA6EFF
:10278000EFCFADF6AA51A425016E000EA521036E70
:10279000AA51AC5DFF0FA425E96E000EA521EA6EDB
:1027A000EFCFB0F603C0EAFF01C0E9FFB0C6EFFF0C
:1027B000AA51AC5DFF0FA425E96E000EA521EA6EBB
:1027C000ADC6EFFFAA2BD2D7AC51A425E96E000EFF
:1027D000A521EA6EEF6AA4C601F0A5C602F00001C9
:1027E0004BEF14F006019869976994C603F0935172
:1027F000D8B494079307031040E092C6EAFF9151C2
:10280000912BD8B4922BE96EEF509819956F966B77
:102810009631036E9531026E033202320332023278
:10282000033202320F0E03160250951B0350961B03
:1028300097C6A0F69F6B9539036E026AF00E0316D9
:1028400002509F1B0350A01B9535026E9635036EF8
:1028500002360336023603360236033602360336B4
:10286000E00E021602509F1B0350A01B9F519519AA
:10287000976FA0519619986FB8D7A26BA16B98C6A5
:10288000A0F697C69FF6100EA36F060EA56F990EC1
:10289000A46F0001CAD6060197C601F098C602F0DF
:1028A000000112000601656B646B686B69696A69F7
:1028B000120E6B6F6C6B020E6D6F6E6F6F6B706BC9
:1028C000716B010E726F736F746B756B766B776BD8
:1028D000786BAD0E796F6B0E7A6F7B697C69160E23
:1028E0007D6F7E6B020E7F6F010E806F816B060E17
:1028F000826F836B040E846F060E856F010E866FE8
:10290000876B886B896B8A6B8B6B8C6B8D6B8E6B1B
:102910003E0E8F6F5A0E906F6251010A000106E061
:10292000030A52E0010AD8B4E2D092D1980EF66EB2
:102930000D0EF76E000EF86EA0EC07F0060191691F
:10294000000138DD06019169000134DD0A0E06013F
:10295000916F00012FDD0601916B00012BDD020E4E
:102960000601916F000126DD330E0601916F000113
:1029700021DD0601916B00011DDD0601916B000157
:1029800019DD9F0E0601916F000114DDF70E06019F
:10299000916F00010FDDAE0EF66E0D0EF76E000E9C
:1029A000F86E110E0601916F000140EC08F063C64D
:1029B00091F6180E0601926F00011FDD0A0EA4A801
:1029C000FED70F011C6F45D10601686B68511108D5
:1029D00004E363C670F6682BF9D7060E926F690E92
:1029E000916F946B100E936F0001FCDE02C065F6D0
:1029F00001C064F6060E036E650EE96E03C0EAFFC1
:102A0000EFCF66F6060E036E640EE96E03C0EAFFB2
:102A1000EFCF67F60601686B6851110806E367C6D9
:102A200079F666C67AF6682BF7D791690001C2DCA1
:102A3000060191690001BEDC120E0601916F0001D2
:102A4000B9DC0601916B0001B5DC020E0601916F45
:102A50000001B0DC020E0601916F0001ABDC060143
:102A6000916B0001A7DC70C691F6A4DC0601916BA6
:102A70000001A0DC010E0601916F00019BDC010E3C
:102A80000601916F000196DC0601916B000192DC5A
:102A90000601916B00018EDC0601916B00018ADC5E
:102AA0000601916B000186DC0601916B000182DC5E
:102AB00079C691F67FDC7AC691F67CDCC40EF66EA0
:102AC0000D0EF76E000EF86E120E0601916F0001EA
:102AD00040EC08F063C691F6180E0601926F0001F3
:102AE0008CDC0A0EA4A8FED70F011C6FB2D0060121
:102AF000686B6851150804E363C682F6682BF9D742
:102B0000060E926F7B0E916F946B140E936F000103
:102B100069DE02C065F601C064F6060E036E650E3E
:102B2000E96E03C0EAFFEFCF66F6060E036E640E91
:102B3000E96E03C0EAFFEFCF67F60601686B6851E4
:102B4000150806E367C68FF666C690F6682BF7D7BA
:102B5000916900012FDC0601916900012BDC160E42
:102B60000601916F000126DC0601916B000122DC59
:102B7000020E0601916F00011DDC010E0601916F2E
:102B8000000118DC0601916B000114DC82C691F68D
:102B900011DC0601916B00010DDC040E0601916F42
:102BA000000108DC060E0601916F000103DC010E36
:102BB0000601916F0001DAEC11F00601916B000142
:102BC000DAEC11F00601916B0001DAEC11F006016C
:102BD000916B0001DAEC11F00601916B0001DAEC67
:102BE00011F00601916B0001DAEC11F00601916B16
:102BF0000001DAEC11F00601916B0001DAEC11F042
:102C00000601916B0001DAEC11F08FC691F6DAEC57
:102C100011F090C691F6DAEC11F0DA0EF66E0D0EA8
:102C2000F76E000EF86E120E0601916F000140EC77
:102C300008F063C691F6180E0601926F0001FDECD4
:102C400011F00A0EA4A8FED70F011C6F02D00001DC
:102C50000F01000129EF26F006016251010A00016F
:102C60000DE0030AD8B4CFD0010AD8B457D1070A6F
:102C7000D8B4DFD1010AD8B467D2F2D2200EF66EF2
:102C80000C0EF76E000EF86EA0EC07F0040E0401B7
:102C9000906F930E8F6FCE0EF66E0C0EF76E000EC9
:102CA000F86E030E0601B06F000108EC0EF090C440
:102CB000EAFF8FC4E9FFEF6A040EEA6E4F0EE96E79
:102CC00021EC0EF02B0E0601BD6F0001E3EC07F0C6
:102CD00090C4EAFF8FC4E9FFEF6A030EEA6EAF0EFD
:102CE000E96E21EC0EF0D60EF66E0C0EF76E000EAD
:102CF000F86E080E0601B06F000108EC0EF090C4EB
:102D0000EAFF8FC4E9FFEF6A030EEA6E9B0EE96EDD
:102D100021EC0EF0E00EF66E0C0EF76E000EF86E63
:102D2000060E0601B06F000108EC0EF0E80EF66E1C
:102D30000C0EF76E000EF86E0D0E0601916F00017D
:102D400040EC08F0040EEA6E930EE96E5AEC08F0BF
:102D5000040E06016A6F930E696F000153EC10F0C8
:102D6000030EEA6EAF0EE96E000E77EC00F00A007B
:102D70000900F550EE6E0009FBE13BEC0DF0030E8F
:102D8000EA6E9B0EE96E030EE26E870EE16EE7526D
:102D9000E6CFEEFFFCE1F80EF66E0C0EF76E000EBD
:102DA000F86E0B0E0601916F000140EC08F0030E67
:102DB000EA6E9B0EE96E5AEC08F00A0EA4A8FED744
:102DC0000F011C6F030EEA6E870EE96E000E000104
:102DD00077EC00F00A000900F550EE6E0009FBE107
:102DE000030EEA6E9B0EE96E000E77EC00F00A000F
:102DF0000900F550EE6E0009FBE10A0EA4A8FED70B
:102E00000F011C6F2ED2040EEA6E590EE96E000EF1
:102E10009BEC00F00A000900F550EE6E0009FBE1A2
:102E2000040E0401906F930E8F6F90C4EAFF8FC45D
:102E3000E9FFEF6A040EEA6E590EE96E000121EC1B
:102E40000EF0080EF66E0D0EF76E000EF86E0D0EFB
:102E50000601916F000140EC08F0040EEA6E930E3B
:102E6000E96E5AEC08F0040E06016A6F930E696F62
:102E7000000153EC10F0040EEA6E590EE96E000EDC
:102E800077EC00F00A000900F550EE6E0009FBE156
:102E90003BEC0DF0030EEA6E9B0EE96E030EE26E44
:102EA000870EE16EE752E6CFEEFFFCE1180EF66EFC
:102EB0000D0EF76E000EF86E0B0E0601916F0001FD
:102EC00040EC08F0030EEA6E9B0EE96E5AEC08F037
:102ED0000A0EA4A8FED70F011C6F030EEA6E870E20
:102EE000E96E000E000177EC00F00A000900F550D1
:102EF000EE6E0009FBE1030EEA6E9B0EE96E000E1A
:102F000077EC00F00A000900F550EE6E0009FBE1D5
:102F10000A0EA4A8FED70F011C6FA3D1040EEA6EFF
:102F2000590EE96E000EAAEC00F00A000900F550F7
:102F3000EE6E0009FBE1040E0401906F930E8F6F9B
:102F400090C4EAFF8FC4E9FFEF6A040EEA6E590EDF
:102F5000E96E000121EC0EF0280EF66E0D0EF76EF4
:102F6000000EF86E0D0E0601916F000140EC08F0A6
:102F7000040EEA6E930EE96E5AEC08F0040E060198
:102F80006A6F930E696F000153EC10F0040EEA6E45
:102F9000590EE96E000E77EC00F00A000900F550BA
:102FA000EE6E0009FBE13BEC0DF0030EEA6E9B0EAA
:102FB000E96E030EE26E870EE16EE752E6CFEEFF9A
:102FC000FCE1380EF66E0D0EF76E000EF86E0B0E6D
:102FD0000601916F000140EC08F0030EEA6E9B0EB3
:102FE000E96E5AEC08F00A0EA4A8FED70F011C6F78
:102FF000030EEA6E870EE96E000E000177EC00F01A
:103000000A000900F550EE6E0009FBE1030EEA6EBE
:103010009B0EE96E000E77EC00F00A000900F550F7
:10302000EE6E0009FBE10A0EA4A8FED70F011C6F8B
:1030300018D1040EEA6E590EE96E000EB8EC00F0DD
:103040000A000900F550EE6E0009FBE1040E0401D0
:10305000906F930E8F6F90C4EAFF8FC4E9FFEF6A01
:10306000040EEA6E590EE96E000121EC0EF0480ED6
:10307000F66E0D0EF76E000EF86E0D0E0601916FD6
:10308000000140EC08F0040EEA6E930EE96E5AEC73
:1030900008F0040E06016A6F930E696F000153EC8D
:1030A00010F0040EEA6E590EE96E000E77EC00F097
:1030B0000A000900F550EE6E0009FBE13BEC0DF053
:1030C000030EEA6E9B0EE96E030EE26E870EE16E52
:1030D000E752E6CFEEFFFCE1580EF66E0D0EF76EEE
:1030E000000EF86E0B0E0601916F000140EC08F027
:1030F000030EEA6E9B0EE96E5AEC08F00A0EA4A8C5
:10310000FED70F011C6F030EEA6E870EE96E000EEC
:10311000000177EC00F00A000900F550EE6E00099E
:10312000FBE1030EEA6E9B0EE96E000E77EC00F0F9
:103130000A000900F550EE6E0009FBE10A0EA4A892
:10314000FED70F011C6F8DD0040EEA6E590EE96E8A
:10315000000EAAEC00F00A000900F550EE6E00091E
:10316000FBE1040E0401906F930E8F6F90C4EAFF91
:103170008FC4E9FFEF6A040EEA6E590EE96E000192
:1031800021EC0EF0680EF66E0D0EF76E000EF86E66
:103190000D0E0601916F000140EC08F0040EEA6E7E
:1031A000930EE96E5AEC08F0040E06016A6F930E56
:1031B000696F000153EC10F0040EEA6E590EE96ECF
:1031C000000E77EC00F00A000900F550EE6E0009E1
:1031D000FBE13BEC0DF0030EEA6E9B0EE96E030E75
:1031E000E26E870EE16EE752E6CFEEFFFCE1780E6D
:1031F000F66E0D0EF76E000EF86E0B0E0601916F57
:10320000000140EC08F0030EEA6E9B0EE96E5AECEA
:1032100008F00A0EA4A8FED70F011C6F030EEA6E79
:10322000870EE96E000E000177EC00F00A0009003D
:10323000F550EE6E0009FBE1030EEA6E9B0EE96E9F
:10324000000E77EC00F00A000900F550EE6E000960
:10325000FBE10A0EA4A8FED70F011C6F02D00001EB
:103260000F010A0EA4A8FED71C6F000112008E0EDB
:10327000006EE3C601F0E2C602F0036A015209E102
:1032800002C001F0026A080E005E015202E1006A0B
:1032900008D0D89001BE04D0023601360006F9D716
:1032A000019E12000601E251D8B471D0006EE651C1
:1032B000D8B46DD0002604E3810E002668E204D065
:1032C0007F0E005E64E363E0E3C6EAF6E751EA1BC3
:1032D000E38FE78FE551E903F4CFECF6E451E8031F
:1032E000F4CF03F0F3CFEBF6E903F350EC27F450FF
:1032F000EB23000E0322E551E803F350EC27F450D2
:10330000EB23000E026A03220222E351E903F35089
:10331000EB27F4500322000E0222E351E803F3509E
:103320000326F4500222000E016A0122E551E70350
:10333000F350EB27F4500322000E02220122E45145
:10334000E703F3500326F4500222000E0122E3515A
:10335000E703F3500226F4500122002A01BE05D0F3
:10336000EB370336023601360006000EEBAF0AD00B
:10337000032A02220122015005E1025003E1035019
:1033800001E1002AEABF018EEAAF019E04D0006A83
:10339000016A026A036A000112000601BD51B60803
:1033A000BD6F036ABEC6C1F6BE8FD890BE33BF33B1
:1033B000C0330332023201320032BD2FF6D7C1AF23
:1033C0000BD0001E011E021E031E002AD8B4012AC3
:1033D000D8B4022AD8B4032A000164EF1AF0D8B294
:1033E00004D0060EEA6EC50EE96E006A016A026A32
:1033F000036A0601C56BC66BC76BC86BC451C311AA
:10340000C211C1112CE0200EC96FD890BD37BE3754
:10341000BF37C037C537C637C737C837C451C85D8F
:1034200008E1C351C75D05E1C251C65D02E1C1516A
:10343000C55D0FE3C151C55FC251D8A0C23DC65F93
:10344000C351D8A0C33DC75FC451D8A0C43DC85F15
:10345000D8800036013602360336C92FD6D7C5C606
:10346000EFFFC6C6ECFFC7C6ECFFC8C6ECFF000105
:103470001200E9500601B56FB451B76F1BE0B3C637
:10348000E5F6B2C6E4F6B1C6E3F6B0C6E2F6E96B1D
:10349000E86B200EE76F820EE66F000103DF03C0CA
:1034A000B3F602C0B2F601C0B1F600C0B0F6060134
:1034B000B72FE5D7B3C6C0F6B2C6BFF6B1C6BEF6E3
:1034C000B0C6BDF6000169D703C0B3F602C0B2F6BC
:1034D00001C0B1F600C0B0F60601B3AF0DD0B5071C
:1034E000B58BB01FB11FB21FB31FB02BD8B4B12B17
:1034F000D8B4B22BD8B4B32B3B0EBC6F9A0EBB6FB3
:10350000CA0EBA6FB96B0A0EB76FB451D8B4B52BE7
:10351000D882060EEA6EB00EE96EB3C6C0F6B2C629
:10352000BFF6B1C6BEF6B0C6BDF6BCC6C4F6BBC6D5
:10353000C3F6BAC6C2F6B9C6C1F6000150DF0150E3
:10354000005213E10601B429B75DD8A402D00001EE
:103550000CD0B5510DE00F0BB75D01E044E2B5BFF3
:1035600042D0B5BD05D0200E37D0200E0601B517CC
:10357000B5AB0FD0B59BB451D8A4B5070050B56F0B
:103580002D0EBD6F0001E3EC07F00601B551006E92
:10359000B56BB451B75D0DE10050B56F2E0EBD6F28
:1035A0000001E3EC07F00601B551006E200EB517DF
:1035B000000E300EB5AB10D0B59BB451D8A4B507F2
:1035C0000050B56F2D0EBD6F0001E3EC07F0060152
:1035D000B551006EB56B300E002600C0BDF600017F
:1035E000E3EC07F00601D892BCC6C0F6BBC6BFF636
:1035F000BAC6BEF6B9C6BDF6C46BC36BC26B0A0EC3
:10360000C16F0001ECDE03C0BCF602C0BBF601C016
:10361000BAF600C0B9F60601B72F7AD7000112003A
:10362000EACF6AF6E9CF69F6060163AF08D0698F81
:1036300069A9692B621F631F622BD8B4632B63399E
:10364000F009656F6527E20F666F320F686F63518F
:103650000F0B662766276827E90F676F67276727BD
:1036600062390F0B6727682767376837681F683725
:1036700062510F0B68276537070E646F0A0E6707E4
:103680006827FDE366076727FDE365076627FDE317
:1036900064076527FDE3060EEA6E640EE96E070E09
:1036A0006915699DED52691507E169B9EE5269B96D
:1036B00003D0200E006E21D0E926000EEA22E95048
:1036C000680804E1EA50060801E1698DEF50006ED8
:1036D00008E169BD06D069B91ED069B702D0200ED5
:1036E0000BD069AF06D02D0E006EED50699D699F1D
:1036F00004D069876999300E0026EACF63F6E9CFD6
:1037000062F600C0BDF60001E3EC07F063C6EAFF15
:1037100062C6E9FF0601EE5069ADD1D70001BCEFEA
:1037200027F0DDC6E0F6DCC6E2F6DBC6E1F6060110
:10373000DF5303E1DE51000814E2E2C6EAFFE1C60E
:10374000E9FFE051EF5C05E1E1C601F0E2C602F0FD
:103750000BD0E12BD8B4E22BDE51D8B4DF07DE0763
:10376000E7D7000E016E026E000112000601DD5166
:10377000DF19800BE16FDDAF05D0DC1FDD1FDC2B17
:10378000D8B4DD2BDFAF05D0DE1FDF1FDE2BD8B4B2
:10379000DF2BDC51DE03F3CF01F0F4CF00F0DF03C9
:1037A000F3500026DD51DE03F3500020026EE1AF3E
:1037B00005D0011E021E012AD8B4022A000126EFFC
:1037C0001DF00601B46BB36B300EB66F310EB76FE0
:1037D000320EB86F330EB96F340EBA6F350EBB6F41
:1037E000360EBC6F370EBD6F380EBE6F390EBF6F11
:1037F000610EC06F620EC16F630EC26F640EC36F45
:10380000650EC46F660EC56F670EC66F680EC76F14
:10381000690EC86F6A0EC96F6B0ECA6F6C0ECB6FE4
:103820006D0ECC6F6E0ECD6F6F0ECE6F700ECF6FB4
:10383000710ED06F730ED16F740ED26F750ED36F81
:10384000760ED46F770ED56F780ED66F790ED76F50
:103850007A0ED86FD96BA9C6AEF6A8C6ADF6AEC6BD
:10386000EAFFADC6E9FFEF50200804E1AD2BD8B464
:10387000AE2BF5D7AEC603F0ADC6E9FF03C0EAFF35
:10388000EF502D0807E0AEC6EAFFADC6E9FFEF50E6
:103890002B0809E1AEC6EAFFAD51AD2BD8B4AE2B73
:1038A000E96EEF5001D02B0EB56FACBF08D0AC2D38
:1038B00001D005D0ACBF05D0AC51240802E200D144
:1038C0007CD0AC5346E0AC5110081DE1AEC6EAFF17
:1038D000ADC6E9FFEF50300816E1010EAD25E96EE7
:1038E000000EAE21EA6EEF50780809E0010EAD251A
:1038F000E96E000EAE21EA6EEF50580804E1020EA8
:10390000AD27000EAE23AC5108080BE1AEC6EAFFAE
:10391000ADC6E9FFEF50300804E1010EAD27000EFF
:10392000AE23AC51020814E1AEC6EAFFADC6E9FF12
:10393000EF5030080DE1010EAD25E96E000EAE210D
:10394000EA6EEF50620804E1020EAD27000EAE23CE
:1039500034D0AEC6EAFFADC6E9FFEF50300803E051
:103960000A0EAC6F2AD0010EAD25E96E000EAE2115
:10397000EA6EEF50780809E0010EAD25E96E000E01
:10398000AE21EA6EEF50580807E1100EAC6F020E40
:10399000AD27000EAE2311D0010EAD25E96E000E4D
:1039A000AE21EA6EEF50620806E1020EAC6FAD2761
:1039B000000EAE2302D0080EAC6FAEC6B0F6ADC698
:1039C000AFF6AEC6EAFFADC6E9FFEF50300804E13E
:1039D000AD2BD8B4AE2BF5D7AEC603F0ADC6E9FF1C
:1039E00003C0EAFFEFCFDAF6DA51400806E2DA5117
:1039F0005A0803E3DA51200901D0DA51DA6F060ED2
:103A0000DC6FB60EDB6FDAC6DDF6DF6BACC6DEF65A
:103A1000DEBFDF07000185DE02C0B2F601C0B1F6ED
:103A20000601B15302E1B25345E0036AAC51006EA6
:103A3000E8BE0306DA6F03C0DBF6B4C6DDF6B3C634
:103A4000DCF603C0DFF6DE6F000190D6B60E06018D
:103A5000B15D006E060EB259036E00500124B36FC3
:103A600003500220B46FAD2BD8B4AE2BAEC6EAFF24
:103A7000ADC6E9FFEFCFDAF6DA51400806E2DA51D7
:103A80005A0803E3DA51200901D0DA51DA6F060E41
:103A9000DC6FB60EDB6FDAC6DDF6DF6BACC6DEF6CA
:103AA000DEBFDF0700013DDE02C0B2F601C0B1F6A5
:103AB000B7D70601AD51AF5D14E1AE51B05D11E174
:103AC0000601AA51AB1109E0ABC6EAFFAAC6E9FF9D
:103AD000A9C6ECFFED52A8C6EFFF000E016E026E04
:103AE00018D0B5512D0805E1B31FB41FB32BD8B4BE
:103AF000B42BAA51AB1109E0ABC6EAFFAAC6E9FF95
:103B0000AEC6ECFFED52ADC6EFFFB3C601F0B4C6D2
:103B100002F000012DEF22F0800ED8A202D00601A3
:103B2000E71B0601EC6BED6BE3C6EBF6E751EB1B15
:103B3000E251D8B4DFD0EA6F006EE651D8B4E3D0DA
:103B4000EA5FD8B483D03EE3E7C6F0F6F08FE8C66C
:103B5000EFF6E9C6EEF6ED6BD890F033EF33EE33C7
:103B6000ED33EA2FF8D7EBAF03D0EC81E0D0EC9146
:103B7000EA91EC89060EEA6EE50EE96EEBD0EC995F
:103B8000EBBF0AD0EAA113D0F033EF33EE33ED33BD
:103B9000002AD8B4C7D00BD0F0BF0CD0D890ED37E6
:103BA000EE37EF37F0370006D8B4BCD0F5D7EC8D40
:103BB0006DD0EC9DE3C6EBF6E3AF02D0F08FABD057
:103BC000F09FA9D0E6C6EAF6E6C600F0E251EA5F49
:103BD000E3C6F0F6F08FE4C6EFF6E5C6EEF6ED6B61
:103BE000D890F033EF33EE33ED33EA2FF8D7EBAF65
:103BF00003D0EC839CD0EC93EA91EC8B060EEA6E3A
:103C0000E90EE96EA7D0EC9BEBBF0AD0EAA113D076
:103C1000F033EF33EE33ED33002AD8B483D00BD03A
:103C2000F0BF0CD0D890ED37EE37EF37F037000605
:103C3000D8B478D0F5D7EC8F29D0EC9FE7C6EBF657
:103C4000E7AF02D0F08F67D0F09F65D0E7C6F0F6FF
:103C5000F08FE8C6EFF6E9C6EEF6EBAF04D0F09FC2
:103C6000EC8565D0EC95ED6BEA91060EEA6EE50EFB
:103C7000E96E70D0EBBF1CD0E3C6EBF6EAA106D02C
:103C8000F033EF33EE33ED33002A4CE0EDAF0BD0E1
:103C9000EE2B09E1EF2B07E1F02B05E1F033EF33D9
:103CA000EE33002A3FE0ECBD84D7ECBFC6D71CD072
:103CB000800EF01BF0AF04D03AD0E7C6EBF60AD086
:103CC000E3C6EBF6F05306E1EF5304E1EE5302E1F5
:103CD000006A21D0F0BF08D0D890ED37EE37EF372B
:103CE000F037002EF7D71ED0EBAF02D0F08F13D0F5
:103CF000F09F11D0E6C600F0E7C6F0F6E8C6EFF692
:103D0000E9C6EEF608D0E2C600F0E3C6F0F6E4C677
:103D1000EFF6E5C6EEF6F0C601F0EFC602F0EEC62D
:103D200003F034D0006A016A026A036A2FD0ED6B97
:103D3000EE1FEF1FF01FED1FED2B05E1EE2B03E152
:103D4000EF2B01E1F02BECB112D7ECB354D7ECB56B
:103D500089D7B3D7EF50EE2705E3EF2B03E1F02B24
:103D6000D8B4EA81ED52EF50EF2703E3F02BD8B43B
:103D7000EA81ED52EF50EFBE01D0800AF027D8B0B3
:103D8000EA81ECB9FCD6ECBB3ED774D70001120037
:103D9000DFC6E6F60601E351E61BE6AF05D0D89490
:103DA000D890DFBFD8802FD0DFC6E6F6E2C6E7F6B0
:103DB000DE51E75F06E0E6AF26D0D850010AD86EA4
:103DC00022D0E3C6E7F6DF51E75F06E0E6AF1BD09F
:103DD000D850010AD86E17D0E4C6E7F6E051E75F85
:103DE00006E0E6AF10D0D850010AD86E0CD0E5C678
:103DF000E7F6E151E75F06E0E6AF05D0D850010AEB
:103E0000D86E01D0D890000112008E0E006E06010F
:103E1000DE51005EDFC602F0E0C601F0028E005205
:103E200009E0D890025202E1015204E0023201326C
:103E3000002EF7D7DFAF05D0011E021E012AD8B42D
:103E4000022A000181EF1FF00601C36BC26BC16B38
:103E50007F0EC06F7E0ECA6F800ECB6FCC6BCD6BAA
:103E60007A0ECE6F2A0ECF6FAA0ED06FA30ED16F2F
:103E7000750ED26FB60ED36F090ED46FB40ED56F18
:103E80006F0ED66F4F0ED76FB60ED86FAA0ED96FC2
:103E9000690EDA6F8B0EDB6FF60EDC6FE80EDD6FEE
:103EA000B7C6E1F6B6C6E0F6B5C6DFF6B4C6DEF6CE
:103EB000E56BE46BE36BE26B00016ADF05E306018F
:103EC000B551800AB56F0001B7C6E5F6B6C6E4F68F
:103ED000B5C6E3F6B4C6E2F6830E0601E96FF90E45
:103EE000E86F220EE76F7E0EE66F000152EC19F0CC
:103EF00003C0E1F602C0E0F601C0DFF600C0DEF666
:103F000084D701C0C4F6B7C6E5F6B6C6E4F6B5C6B2
:103F1000E3F6B4C6E2F6830E0601E96FF90EE86F28
:103F2000220EE76F7E0EE66F000152EC19F003C01F
:103F3000E1F602C0E0F601C0DFF600C0DEF60601E1
:103F4000E36BC4C6E2F6000137EC19F0D882E1C693
:103F5000E5F6E0C6E4F6DFC6E3F6DEC6E2F603C049
:103F6000E9F602C0E8F601C0E7F600C0E6F6D4DDE7
:103F700003C0C9F602C0C8F601C0C7F600C0C6F645
:103F8000030E0601C417C45303E0C45102081DE127
:103F9000C9C6E5F6C8C6E4F6C7C6E3F6C6C6E2F685
:103FA000DB0EE96F0F0EE86F490EE76F7F0EE66FCD
:103FB000000152EC19F003C0BFF602C0BEF601C00A
:103FC000BDF600C0BCF66DD00601C42D36D0D88237
:103FD000E56BE46BE36B7F0EE26FC9C6E9F6C8C61A
:103FE000E8F6C7C6E7F6C6C6E6F6000195DD03C0EB
:103FF000E1F602C0E0F601C0DFF600C0DEF603C065
:10400000E5F602C0E4F601C0E3F600C0E2F6DB0E1E
:104010000601E96F0F0EE86F490EE76F7F0EE66F3E
:10402000000152EC19F003C0BFF602C0BEF601C099
:10403000BDF600C0BCF635D00601D882C9C6E5F68B
:10404000C8C6E4F6C7C6E3F6C6C6E2F6E96BE86B97
:10405000E76B7F0EE66F00015FDD03C0E1F602C093
:10406000E0F601C0DFF600C0DEF603C0E5F602C0F0
:10407000E4F601C0E3F600C0E2F6DB0E0601E96FEC
:104080000F0EE86F490EE76F7F0EE66F000152ECEE
:1040900019F003C0BFF602C0BEF601C0BDF600C0F5
:1040A000BCF60601BB6BBA6BB96B7F0EB86FBFC6AF
:1040B000E5F6BEC6E4F6BDC6E3F6BCC6E2F6BFC68C
:1040C000E9F6BEC6E8F6BDC6E7F6BCC6E6F60001F0
:1040D00052EC19F003C0BFF602C0BEF601C0BDF637
:1040E00000C0BCF60601C56BC55104085DE3C3C63C
:1040F000E5F6C2C6E4F6C1C6E3F6C0C6E2F6BFC640
:10410000E9F6BEC6E8F6BDC6E7F6BCC6E6F60001AF
:1041100052EC19F003C0C3F602C0C2F601C0C1F6EA
:1041200000C0C0F60601C551040DF350036ACA0F62
:10413000E96E060E0320EA6EEFCFE2F6ECCFE3F66F
:10414000ECCFE4F6ECCFE5F6C3C6E9F6C2C6E8F676
:10415000C1C6E7F6C0C6E6F6000152EC19F0EACF98
:10416000DFF6E9CFDEF6D892BBC6E5F6BAC6E4F6CE
:10417000B9C6E3F6B8C6E2F603C0E9F602C0E8F64F
:1041800001C0E7F600C0E6F6C7DCDFC6EAFFDEC620
:10419000E9FF03C0BBF602C0BAF601C0B9F600C021
:1041A000B8F60601C52BA0D7C451020802E0C42D01
:1041B00003D0B951800AB96FB8C600F0B9C601F092
:1041C000BAC602F0BBC603F0000112000601AC51F2
:1041D000D8B4A5D0B86FB051D8B4A1D0B85F05E3BA
:1041E0007F0EB827D8B09BD006D0810EB85FD8A07C
:1041F00096D0D8B494D0B8C600F0016A026A036AB7
:10420000B76BADC6B6F6B68FAEC6B5F6AFC6B4F6EA
:10421000190EB86FB351B45F0DE2010EB55F0AE23B
:10422000B65F08E2B75F06E2B72BB62BB52BB351EA
:10423000B42728D0B251B55F12E2010EB65F0FE28B
:10424000B75F0DE2B72BB62BB251B527B351B427E8
:1042500019E3B52B17E1B62B15E1B72B13D0B151EC
:104260008009B65F0EE2010EB75F0BE2B72BB151CA
:104270008009B627B251B527E9E3B62BE7E1B72BA2
:10428000E5D70380B82F01D00BD0D890B437B5371D
:10429000B637B737D890033602360136B937BAD7B2
:1042A000B9A106D0D890013202320332B93302D01C
:1042B000000635E0B9BF1ED0D890B437B537B63751
:1042C000B737B351B45F07E2010EB55F04E2B65FE2
:1042D00002E2B75F1AE3B251B55F05E2010EB65FC5
:1042E00002E2B75F12E3B1518009B65F03E2010E4B
:1042F000B75F0BE3032A09E1022A07E1012A05E17E
:10430000002A0DE0013202320332ADC6B8F6B151D7
:10431000B81BB8AF02D0018E06D0019E04D0006A4F
:10432000016A026A036A00011200D882AFC6E5F68C
:10433000AEC6E4F6ADC6E3F6ACC6E2F6DB0E0601A9
:10434000E96F0F0EE86F490EE76F7F0EE66F000111
:104350008CEC1DF003C0B3F602C0B2F601C0B1F69A
:1043600000C0B0F603C0B7F602C0B6F601C0B5F69D
:1043700000C0B4F669DD34EF23F00900F55211E016
:10438000F6CFA8F6F7CFA9F6F8CFAAF6F5CFBDF687
:10439000E3EC07F0A8C6F6FFA9C6F7FFAAC6F8FF28
:1043A000ECD7120006016A6B6B6B6C6B6D6B6E6BFE
:1043B0006F6B706B716B726B736B746B756B766B11
:1043C000776B786B796B7A6B7B6B7C6B7D6B7E6BC1
:1043D0007F6B806B816B826B836B846B856B866B71
:1043E000876B8F6B906B916B926B936B946B956BF0
:1043F000966B976B986B060EEA6E880EE96E000E50
:104400000001FCEC00F00A000900F550EE6E000916
:10441000FBE1040E0601A96F450EA86F060EAB6FF7
:10442000880EAA6F0001DBEC09F002C08CF601C017
:104430008BF606018B5302E18C5335E0996B995151
:10444000030830E38CC6A9F68BC6A8F6AB6BAA6B43
:104450000A0EAC6F0001E1EF1BF002C08EF601C046
:104460008DF6036A060199518F0FE96E060E03203F
:10447000EA6E8DC6EFFF9951020804E18EC69FF6E1
:104480008DC69EF6A96BA86B060EAB6F880EAA6F41
:104490000001DBEC09F002C08CF601C08BF60601CE
:1044A000992BCDD7C7D7E36B90C6E2F6000137EC66
:1044B00019F00A0E0601E56FD70EE46F230EE36FC5
:1044C000780EE26F03C0E9F602C0E8F601C0E7F635
:1044D00000C0E6F6000152EC19F003C0ABF602C0D2
:1044E000AAF601C0A9F600C0A8F60601E36B8FC6C4
:1044F000E2F6000137EC19F0D89203C0E5F602C0ED
:10450000E4F601C0E3F600C0E2F6ABC6E9F6AAC6DF
:10451000E8F6A9C6E7F6A8C6E6F68CEC1DF003C0DF
:104520009DF602C09CF601C09BF600C09AF61D0ED7
:104530000601A36F5A0EA26F6A0EA16F820EA06FC2
:10454000DD0EA76F240EA66F720EA56F850EA46FE9
:104550009FC6E3F69EC6E2F6000137EC19F003C0F1
:10456000E5F602C0E4F601C0E3F600C0E2F6330E61
:104570000601E96FFA0EE86F0E0EE76F790EE66F2F
:10458000000152EC19F003C0ABF602C0AAF601C05C
:10459000A9F600C0A8F603C0B7F602C0B6F601C07F
:1045A000B5F600C0B4F650DC9DC6E5F69CC6E4F650
:1045B0009BC6E3F69AC6E2F603C0E9F602C0E8F647
:1045C00001C0E7F600C0E6F652EC19F003C0ABF606
:1045D00002C0AAF601C0A9F600C0A8F603C0AFF653
:1045E00002C0AEF601C0ADF600C0ACF6D50E0601B5
:1045F000B36F380EB26F5E0EB16F850EB06F0001F3
:10460000E5DD03C065F602C064F601C063F600C0D4
:1046100062F69FC6E3F69EC6E2F637EC19F003C0D9
:10462000E5F602C0E4F601C0E3F600C0E2F6330EA0
:104630000601E96FFA0EE86F0E0EE76F790EE66F6E
:10464000000152EC19F003C0ABF602C0AAF601C09B
:10465000A9F600C0A8F603C0AFF602C0AEF601C0CE
:10466000ADF600C0ACF661D69DC6E5F69CC6E4F694
:104670009BC6E3F69AC6E2F603C0E9F602C0E8F686
:1046800001C0E7F600C0E6F652EC19F003C0ABF645
:1046900002C0AAF601C0A9F600C0A8F603C0AFF692
:1046A00002C0AEF601C0ADF600C0ACF6270E0601A2
:1046B000B36F710EB26F570EB16F850EB06F000100
:1046C00085DD03C069F602C068F601C067F600C068
:1046D00066F60601E16BE06BDF6BDE6B9DC6E5F60F
:1046E0009CC6E4F69BC6E3F69AC6E2F60001C8EC67
:1046F0001EF0D8A0A2D0D89265C6E5F664C6E4F64E
:1047000063C6E3F662C6E2F6A3C6E9F6A2C6E8F619
:10471000A1C6E7F6A0C6E6F68CEC1DF003C0ABF62A
:1047200002C0AAF601C0A9F600C0A8F6D89269C6D0
:10473000E5F668C6E4F667C6E3F666C6E2F6A7C61F
:10474000E9F6A6C6E8F6A5C6E7F6A4C6E6F68CEC3A
:104750001DF003C0AFF602C0AEF601C0ADF600C05A
:10476000ACF6060E0401906F6A0E8F6F4C0E0601B8
:10477000BD6F0001E3EC07F0540E0601BD6F0001B0
:10478000E3EC07F092C6B0F6180E0601B16F000117
:1047900030EC0CF03A0E0601BD6F0001E3EC07F0BF
:1047A000C90EE96EABC6B3F6AAC6B2F6A9C6B1F693
:1047B000A8C6B0F6030E0601B46F000139EC1AF07A
:1047C000FA0EF66E0D0EF76E000EF86E030E060171
:1047D000B06F000108EC0EF092C6B0F6180E06019C
:1047E000B16F000130EC0CF03A0E0601BD6F000114
:1047F000E3EC07F0C90EE96EAFC6B3F6AEC6B2F68B
:10480000ADC6B1F6ACC6B0F6030E0601B46F00013A
:1048100039EC1AF02B0E0601BD6F0001E3EC07F036
:10482000030E0601A96FAF0EA86F060EAB6F6A0EDE
:10483000AA6F0001C7EC0CF059D0060E0401906F6E
:104840006A0E8F6F4C0E0601BD6F0001E3EC07F09E
:10485000540E0601BD6F0001E3EC07F092C6B0F6FE
:10486000180E0601B16F000130EC0CF03A0E060193
:10487000BD6F0001E3EC07F01A0EF66E0E0EF76E38
:10488000000EF86E7ADD0F0EF66E0E0EF76E000E4D
:10489000F86E030E0601B06F000108EC0EF092C630
:1048A000B0F6180E0601B16F000130EC0CF03A0EB4
:1048B0000601BD6F0001E3EC07F0220EF66E0E0E4E
:1048C000F76E000EF86E59DD2B0E0601BD6F00016C
:1048D000E3EC07F0030E0601A96FAF0EA86F060EFA
:1048E000AB6F6A0EAA6F0001C7EC0CF0060EEA6E01
:1048F0006A0EE96E000E77EC00F00A000900F55030
:10490000EE6E0009FBE1F1EF27F0200E060163A92E
:10491000300E646F62C600F000AE08D0001E002AA0
:1049200000C062F62D0E646F638F638101501B6AB5
:10493000F2BE1B8EF29E62C6F5F6640EF66F0001A3
:1049400021EC03F01BBEF28E00C062F6300E012493
:104950000601656F1B6AF2BE1B8EF29E62C6F5F6FB
:104960000A0EF66F000121EC03F01BBEF28E300E32
:1049700000240601676F300E0124666F64C600F0E4
:10498000300E655D04E0638363BF638512D063B559
:1049900010D064C665F663B304D0300E665D04E0E3
:1049A000638163BF638305D0D8A46381D8B465C62F
:1049B00066F663B505D063B308D063B10BD00FD0F2
:1049C00064C6BDF60001E3EC07F065C6BDF6000164
:1049D000E3EC07F066C6BDF60001E3EC07F067C63E
:1049E000BDF60001E3EC07F0120005019F6BA06B20
:1049F000A16BA26BA36BA46BA56BA66BA76BA86B3B
:104A0000A96BAA6BAB6BAC6BAD6BAE6BAF6BB06BEA
:104A1000B16BB26BB36BB46BB56BB66BB76BB86B9A
:104A2000B96BBA6BBB6BBC6BBD6BBE6BBF6BC06B4A
:104A3000C16BC26BC36BC46BC56BC66BC76BC86BFA
:104A4000C96BCA6BCB6BCC6BCD6BCE6BCF6BD06BAA
:104A5000D16BD26BD36BD46BD56BD66BD76BD86B5A
:104A6000D96BDA6BDB6BDC6BDD6BDE6BDF6BE06B0A
:104A7000E16BE26BE36BE46BE56BE66BE76BE86BBA
:104A8000E96BEA6BEB6BEC6BED6BEE6BEF6BF06B6A
:104A9000F16BF26BF36BF46BF56BF66BF76BF86B1A
:104AA000F96BFA6BFB6BFC6BFD6BFE6BFF6B06012E
:104AB000006B016B026B056B046B010E106F126BC8
:104AC000136B146B156B166B176B186B196B1A6BDA
:104AD0001B6B1C6B1D6B1E6B1F6B206B216B226B8A
:104AE000236B246B256B266B276B286B296B2A6B3A
:104AF0002B6B2C6B2D6B2E6B2F6B306B316B326BEA
:104B0000336B346B356B366B376B386B396B3A6B99
:104B10003B6B3C6B3D6B3E6B3F6B406B416B426B49
:104B2000436B446B456B466B476B486B496B4A6BF9
:104B30004B6B4C6B4D6B4E6B4F6B506B516B526BA9
:104B4000536B546B556B566B576B586B596B86B6E2
:104B50000FD0042BD8B4052B0551C30809E303E19A
:104B600004514F0805E30D0E006E002EFED7EFD75F
:104B700086A6B7D0036B0351020817E3036A0351FB
:104B80009F0FE96E050E0320EA6EEACF65F6E9CFC6
:104B900064F60001E7EC0EF065C6EAFF64C6E9FFC3
:104BA00001C0EFFF0601032BE6D7A1C506F6030EF1
:104BB000036F0651035D17E2036A03519F0FE96E0D
:104BC000050E0320EA6EEACF65F6E9CF64F6000130
:104BD000E7EC0EF065C6EAFF64C6E9FF01C0EFFF2F
:104BE0000601032BE6D7036B0651035D16E2036A49
:104BF00003519F0FE96E050E0320EA6EEFCF63F6B7
:104C0000370E646F00010CEC0FF0200EA4A8FED745
:104C10000F011C6F0601032BE7D705019F3D60D0F4
:104C2000A03D5ED0A1C562F6A2C563F6A3C564F639
:104C3000A4C565F6A5C566F6A6C567F6000189EFA9
:104C400010F001C007F607C662F6A6C563F652EF7C
:104C500014F00A0EA4A8FED70F011C6F00013BEC54
:104C60000DF0030EEA6E9B0EE96E030EE26E870EE8
:104C7000E16EE752E6CFEEFFFCE12A0EF66E0E0E75
:104C8000F76E000EF86E0B0E0601916F000140ECFE
:104C900008F0030EEA6E9B0EE96E5AEC08F00A0E5D
:104CA000A4A8FED70F011C6F030EEA6E870EE96EF3
:104CB000000E000177EC00F00A000900F550EE6EDE
:104CC0000009FBE1030EEA6E9B0EE96E000E77EC25
:104CD00000F00A000900F550EE6E0009FBE1050145
:104CE0000601320E6E6F00018BEC07F00501A15139
:104CF0000A0814E1A151100811E1A2530FE1A351D8
:104D000020080CE1A4530AE1A52D08D0020E0601EB
:104D1000626F00012CEC16F0C4D10501A65315E119
:104D2000A1510A0812E1A25310E1A35120080DE19C
:104D3000A4530BE1A551210808E1030E0601626F9F
:104D400000012CEC16F0ADD10501A65101080BE2D3
:104D5000A651040808E3030E0601626F00012CEC63
:104D600016F09FD10501A6513F0808E1040E060187
:104D7000626F00012CEC16F094D10501A151570887
:104D8000D8A490D1A253D8A48DD1A3512008D8A4DF
:104D900089D1A453D8A486D1A5510408D8A482D11E
:104DA00000013BEC0DF0030EEA6E9B0EE96E030E64
:104DB000E26E870EE16EE752E6CFEEFFFCE13A0EBF
:104DC000F66E0E0EF76E000EF86E170E0601916F5E
:104DD000000140EC08F0B1C563F6370E0601646FC0
:104DE00000010CEC0FF0200EA4A8FED70F011C6FE1
:104DF000200EA4A8FED71C6F0601116B11512F08BD
:104E0000D8A009D1036B0351010818E3280E11251E
:104E1000036A9F0FE96E050E0320EA6E5B6BEFCF0E
:104E20005AF6290E1125036A9F0FE96E050E03201D
:104E3000EA6E5D6BEFCF5CF6032BE5D75CC664F6DC
:104E4000636B5A5163135B51641364C6E3F663C624
:104E5000E2F6000137EC19F003C0E5F602C0E4F613
:104E600001C0E3F600C0E2F60A0E0601E96FD70EB4
:104E7000E86F230EE76F780EE66F000152EC19F031
:104E800003C00BF602C00AF601C009F600C008F61E
:104E90002B0E06011125036A9F0FE96E050E0320F4
:104EA000EA6EEF5215E12B0E1125036A9F0FE96E92
:104EB000050E0320EA6E626B2A0E1125036A9F0F0E
:104EC000E96E050E0320EA6EEF5062110C6F0D6B58
:104ED0002B0E1125036A9F0FE96E050E0320EA6E63
:104EE000EF5223E0036B0351010818E32A0E11254A
:104EF000036A9F0FE96E050E0320EA6E5F6BEFCF2A
:104F00005EF62B0E1125036A9F0FE96E050E032036
:104F1000EA6E616BEFCF60F6032BE5D7626B6251EF
:104F20005E110C6F60515F110D6FC3C50EF6B1C5F8
:104F30000FF6060E0401906F120E8F6F890EE96E48
:104F40000BC6B3F60AC6B2F609C6B1F608C6B0F685
:104F5000020E0601B46F000139EC1AF02B0E0601A7
:104F6000BD6F0001E3EC07F0100EE96E0DC663F6AD
:104F70000CC662F610EF1BF02B0E0601BD6F000190
:104F8000E3EC07F010C6B0F6180E0601B16F000191
:104F900030EC0CF0060E0401906F580E8F6F0FC6A8
:104FA000B0F6180E0601B16F000130EC0CF0040EE3
:104FB000EA6E450EE96E060EE26E120EE16EE752E3
:104FC000E6CFEEFFFCE1040EEA6E4F0EE96E060E30
:104FD000E26E580EE16EE752E6CFEEFFFCE1D2EF53
:104FE00021F0010E06011027060EEA6E120EE96E80
:104FF000E26AE16AE752E6CFEEFFFCE1060EEA6EF6
:10500000580EE96EE26AE16AE752E6CFEEFFFCE194
:105010000C0E1127F3D6320E6E6F00018BEC07F0E9
:10502000060E0401906F440E8F6FC4C562F6010E28
:105030000601636F000169DCC3C562F6010E06015B
:10504000636F000162DCC2C562F6010E0601636F88
:1050500000015BDC2F0E0601BD6F0001E3EC07F0E1
:10506000C1C562F6010E0601636F00014EDCC0C5CA
:1050700062F6010E0601636F000147DCBFC562F6F0
:10508000010E0601636F000140DC010E0601626F34
:1050900000012CEC16F0320E06016E6F00018BEC55
:1050A00007F00501320E06016E6F00018BEC07F070
:1050B0008EEF2CF00501A051020A000103E0030A63
:1050C00006E00AD096928D829996909609D0969293
:1050D0008D929996908604D096928D9299969096FC
:1050E0001200A0C5EAFF05019FC5E9FFEFCFA3F5B8
:1050F000A2C5EAFFA1C5E9FFEF50A35D40E0A0C54E
:10510000EAFF9FC5E9FFEFCFA3F5A351400803E2F3
:10511000A3515A0806E2A351600846E2A3517A0857
:1051200043E3A2C5EAFFA1C5E9FFEFCFA3F5A35171
:10513000400803E2A3515A0806E2A351600834E292
:10514000A3517A0831E3A0C5EAFF9FC5E9FFEFCF7D
:10515000A3F5A2C5EAFFA1C5E9FF200EEF24A35DD8
:105160000EE0A2C5EAFFA1C5E9FFEFCFA3F5A0C5F8
:10517000EAFF9FC5E9FF200EEF24A35D15E1A0C55E
:10518000EAFF9FC5E9FFEF5203E1000E016E21D057
:10519000A0C503F09F519F2BD8B4A02BA12BD8B44E
:1051A000A22B00019ED70501A0C503F09FC5E9FF12
:1051B00003C0EAFFEFCFA3F5A2C503F0A1C5E9FF45
:1051C00003C0EAFFEF50A35D02E2FF0E01D0010E23
:1051D000016E00011200F9EC0DF040A0FED7320E76
:1051E00006016E6F00018BEC07F012001B6AF2BE25
:1051F0001B8EF29E31C6F5F60A0E0601F66F00010F
:1052000021EC03F01BBEF28E01380601326FF00E66
:1052100032171B6AF2BE1B8EF29E31C6F5F60A0EDD
:10522000F66F000121EC03F01BBEF28E0050060168
:105230003211016E00011200668066B0FED7A20E28
:105240000601496F0001B7EC07F030C649F6B7EC2C
:1052500007F031C649F6B7EC07F0668466B4FED7AE
:1052600012000601116B126B136B146B156B166B2E
:10527000176B186B196B1A6B1B6B1C6B1D6B1E6B02
:105280001F6B206B216B226B236B246B256B266BB2
:10529000276B286B296B2A6B2B6B2C6B2D6BEA6AA7
:1052A000220EE96E000E00018EEC00F00A000900EB
:1052B000F550EE6E0009FBE1060EEA6E170EE96E80
:1052C00010C6E2FF0FC6E1FFE752E6CFEEFFFCE1BA
:1052D000960E06016E6F00018BEC07F0060E0601BC
:1052E000A96F170EA86FAB6B220EAA6F0001DBEC43
:1052F00009F002C02FF601C02EF6060EEA6E2B0E44
:10530000E96E2FC6E2FF2EC6E1FFE752E6CFEEFFC1
:10531000FCE1060E0601416F2B0E406F00015DECB3
:105320000AF001C030F601C031F660DF01C016F6A8
:105330000601A96BA86BAB6B220EAA6F0001DBEC18
:1053400009F002C02FF601C02EF6060EEA6E2B0EF3
:10535000E96E2FC6E2FF2EC6E1FFE752E6CFEEFF71
:10536000FCE1060E0601416F2B0E406F00015DEC63
:105370000AF001C030F601C031F638DF01C015F681
:105380000601A96BA86BAB6B220EAA6F0001DBECC8
:1053900009F002C02FF601C02EF6060EEA6E2B0EA3
:1053A000E96E2FC6E2FF2EC6E1FFE752E6CFEEFF21
:1053B000FCE1060E0601416F2B0E406F00015DEC13
:1053C0000AF001C030F601C031F610DF01C014F65A
:1053D0000601A96BA86BAB6B220EAA6F0001DBEC78
:1053E00009F002C02FF601C02EF6060EEA6E2B0E53
:1053F000E96E2FC6E2FF2EC6E1FFE752E6CFEEFFD1
:10540000FCE1060E0601416F2B0E406F00015DECC2
:105410000AF001C030F601C031F6E8DE01C013F633
:105420000601A96BA86BAB6B220EAA6F0001DBEC27
:1054300009F002C02FF601C02EF6060EEA6E2B0E02
:10544000E96E2FC6E2FF2EC6E1FFE752E6CFEEFF80
:10545000FCE1060E0601416F2B0E406F00015DEC72
:105460000AF001C030F601C031F6C0DE01C012F60C
:105470000601A96BA86BAB6B220EAA6F0001DBECD7
:1054800009F002C02FF601C02EF6060EEA6E2B0EB2
:10549000E96E2FC6E2FF2EC6E1FFE752E6CFEEFF30
:1054A000FCE1060E0601416F2B0E406F00015DEC22
:1054B0000AF001C030F601C031F698DE01C011F6E5
:1054C000030E0601306F11C631F60001B5DE040E81
:1054D0000601306F12C631F60001AEDE050E060180
:1054E000306F13C631F60001A7DE060E0601306FDD
:1054F00014C631F60001A0DE080E0601306F15C695
:1055000031F6000199DE090E0601306F16C631F63C
:10551000000192DE3C0EF66E080EF76E000EF86E7D
:10552000A0EC07F030EF2BF00501A06B9F6BA19171
:10553000A26BA36BA46BA56BA66BA76BA86BA96BE7
:10554000AA6BAB6BAC6BAD6BAE6BAF6BB06BB16B97
:10555000B26BB36BB46BB56BB66BB76BB86BB96B47
:10556000BA6BBB6BBC6BBD6BBE6BBF6BC06BC16BF7
:10557000C26BC36BC46BC56BC66BC76BC86BC96BA7
:10558000CA6BCB6BCC6BCD6BCE6BCF6BD06BD16B57
:10559000D26BD36BD46BD56BD66BD76BD86BD96B07
:1055A000DA6BDB6BDC6BDD6BDE6BDF6BE06BE16BB7
:1055B000E26BE36BE46BE56BE66BE76BE86BE96B67
:1055C000EA6BEB6BEC6BED6BEE6BEF6BF06BF16B17
:1055D000F26BF36BF46BF56BF66B200EF76FF86BF9
:1055E000F96BFA6BFB6BFC6BFD6BFE6BFF6B0601E3
:1055F000006B016B026B036B046B056B066B076B37
:10560000086B096B0A6B0B6B0C6B8A0EF66E0B0E3C
:10561000F76E000EF86E0001A0EC07F0DCDD2C50F8
:10562000490A01E020D03BEC0DF09A0EF66E0B0E0D
:10563000F76E000EF86EA0EC07F0CDDD2C5043089D
:1056400011E1AE0EF66E0B0EF76E000EF86EA0ECCA
:1056500007F0C1DD0601106B2C0E0F6F000101D6A3
:10566000C2EC0DF00BD0E00EF66E0B0EF76E000ED6
:10567000F86EA0EC07F002D0F9EC0DF0000E050179
:10568000A1B1010E016E0001C1EF2CF004018EB535
:1056900014D005019F2D06D0010EA06F00010ADD78
:1056A00008D005019F51020805E1020EA06F00011C
:1056B00001DD050104018E8506D00501A06B000106
:1056C000F9DC04018E95000112EF2DF0F86AD09EEE
:1056D000078E720ED36E9B6A646AC69A000EC76EFE
:1056E000200EC66E949A94889496958C958A270E6F
:1056F000696E280E676E688E689C96988D8898985B
:105700008F8865960C0EAF6EA20EAC6E900EAB6ECF
:105710004090416A40920101416B426B436B40945F
:105720000301806B816B826B836B846B856B866BF3
:1057300004018B6B0F0E8C6F409640988D6B409AD6
:10574000409C409E8E910F012087440E1E6F000EDC
:105750001F6FA60E216F900E226F04018E93906B27
:105760008F6B916B000E0F01236F246F256FC19615
:10577000C198C19A2E6B2F6B546B04018E9512D079
:1057800002001C00001E402200FF404200FF414476
:1057900000FFC0003EC000FF43870005C000FF447B
:1057A00093000000000EF86E570EF76E800EF66E36
:1057B0000900F550006E000A13E00900F550016E73
:1057C000E8BE05D03F0BEA6E0900F5CFE9FF01BC4A
:1057D000090001AC0900F5CFEEFF004EE9D7F9D77B
:1057E000F86A640E0501926F650E936F620E946FF6
:1057F000750E956F670E966F976B720E986F650EAC
:10580000996F730E9A6F650E9B6F740E9C6F9D6BF4
:10581000020E9F6FFA0E06016E6F00018BEC07F00F
:1058200005019F2FF7D7760EF66E0E0EF76E000E5F
:10583000F86E0001A0EC07F0AA0EF66E0E0EF76EE1
:10584000000EF86EA0EC07F09D809D8AA38AF28876
:10585000F086C00EF212F198D1808F0ECD6EAA6A3A
:10586000C69A949A94889496220EC66E000EC76EBD
:10587000020E05019F6FFA0E06016E6F00018BECA0
:1058800007F005019F2FF7D7080E9F6FFA0E06014C
:105890006E6F00018BEC07F005019F2FF7D7000119
:1058A000C2EC0DF004018E930001F9EC0DF0010E35
:1058B000EA6E440EE96E000E51EC01F00A00090098
:1058C000F550EE6E0009FBE1010EEA6E620EE96E24
:1058D000000E51EC01F00A000900F550EE6E0009CF
:1058E000FBE13C0E04018C6F000134EF0EF0DC0E86
:1058F000F66E0E0EF76E000EF86EA0EC07F0C80EF6
:1059000006016E6F00018BEC07F0C80E06016E6F8A
:1059100000018BEC07F00400F5EF24F0C80E06013F
:105920006E6F00018BEC07F040A051D0010E050115
:10593000A06F00015AEC28F0010E415C036A2C0FA5
:10594000E96E000E0320EA6EEF6A0501A06B2C0ED3
:105950009F6F050EA26F920EA16F000171EC28F0EF
:10596000015210E1010E0501A06F00015AEC28F070
:10597000F20EF66E0E0EF76E000EF86EA0EC07F04B
:10598000D3D522D00501A06B2C0E9F6F050EA26F00
:10599000980EA16F000171EC28F0015215E1010E83
:1059A0000501A06F00015AEC28F0FE0EF66E0E0EF7
:1059B000F76E000EF86EA0EC07F0320E06016E6F67
:1059C00000018BEC07F0FF00F9EC0DF038D040A699
:1059D00006D0010E0501A06F00015AEC28F040AE80
:1059E00011D0010E0501A06F00015AEC28F00A0E3B
:1059F000F66E0F0EF76E000EF86EA0EC07F0C2EC1C
:105A00000DF0409E04018EA108D0010E0501A06F8B
:105A100000015AEC28F004018E91010E05019F6FE0
:105A2000000134D6020E05019F6FFA0E06016E6F5B
:105A300000018BEC07F005019F2FF7D700016BD712
:025A4000030061
:020000040030CA
:0E0000001D487E3EF98B9100FFC0FFE0FF40DF
:00000001FF
;PIC18F87K22
;CRC=AD14  CREATED="08-Aug-25 15:59"
